{
  "_format": "hh-sol-artifact-1",
  "contractName": "RegisterForm",
  "sourceName": "contracts/RegisterForm.sol",
  "abi": [
    {
      "inputs": [
        {
          "internalType": "address",
          "name": "_sc",
          "type": "address"
        }
      ],
      "stateMutability": "nonpayable",
      "type": "constructor"
    },
    {
      "anonymous": false,
      "inputs": [
        {
          "indexed": true,
          "internalType": "address",
          "name": "previousOwner",
          "type": "address"
        },
        {
          "indexed": true,
          "internalType": "address",
          "name": "newOwner",
          "type": "address"
        }
      ],
      "name": "OwnershipTransferred",
      "type": "event"
    },
    {
      "inputs": [
        {
          "internalType": "uint16",
          "name": "_pageNo",
          "type": "uint16"
        }
      ],
      "name": "exportByPage",
      "outputs": [
        {
          "components": [
            {
              "internalType": "address",
              "name": "address_",
              "type": "address"
            },
            {
              "internalType": "uint256",
              "name": "balance_",
              "type": "uint256"
            }
          ],
          "internalType": "struct RegisterForm.ScBalance[]",
          "name": "scBalanceList_",
          "type": "tuple[]"
        }
      ],
      "stateMutability": "view",
      "type": "function"
    },
    {
      "inputs": [
        {
          "internalType": "address",
          "name": "_address",
          "type": "address"
        }
      ],
      "name": "getScBalance",
      "outputs": [
        {
          "internalType": "uint256",
          "name": "",
          "type": "uint256"
        }
      ],
      "stateMutability": "view",
      "type": "function"
    },
    {
      "inputs": [],
      "name": "getTotalCount",
      "outputs": [
        {
          "internalType": "uint256",
          "name": "count_",
          "type": "uint256"
        },
        {
          "internalType": "uint256",
          "name": "totalPage_",
          "type": "uint256"
        }
      ],
      "stateMutability": "view",
      "type": "function"
    },
    {
      "inputs": [],
      "name": "owner",
      "outputs": [
        {
          "internalType": "address",
          "name": "",
          "type": "address"
        }
      ],
      "stateMutability": "view",
      "type": "function"
    },
    {
      "inputs": [
        {
          "internalType": "string",
          "name": "_telegramId",
          "type": "string"
        }
      ],
      "name": "register",
      "outputs": [
        {
          "internalType": "bool",
          "name": "success_",
          "type": "bool"
        }
      ],
      "stateMutability": "nonpayable",
      "type": "function"
    },
    {
      "inputs": [
        {
          "internalType": "address",
          "name": "_address",
          "type": "address"
        }
      ],
      "name": "registerOf",
      "outputs": [
        {
          "internalType": "string",
          "name": "",
          "type": "string"
        }
      ],
      "stateMutability": "view",
      "type": "function"
    },
    {
      "inputs": [],
      "name": "renounceOwnership",
      "outputs": [],
      "stateMutability": "nonpayable",
      "type": "function"
    },
    {
      "inputs": [
        {
          "internalType": "address",
          "name": "newOwner",
          "type": "address"
        }
      ],
      "name": "transferOwnership",
      "outputs": [],
      "stateMutability": "nonpayable",
      "type": "function"
    }
  ],
  "bytecode": "0x60c06040523480156200001157600080fd5b5060405162001bec38038062001bec83398181016040528101906200003791906200018c565b620000576200004b620000a960201b60201c565b620000b160201b60201c565b603261ffff1660808161ffff1660f01b815250508073ffffffffffffffffffffffffffffffffffffffff1660a08173ffffffffffffffffffffffffffffffffffffffff1660601b815250505062000206565b600033905090565b60008060009054906101000a900473ffffffffffffffffffffffffffffffffffffffff169050816000806101000a81548173ffffffffffffffffffffffffffffffffffffffff021916908373ffffffffffffffffffffffffffffffffffffffff1602179055508173ffffffffffffffffffffffffffffffffffffffff168173ffffffffffffffffffffffffffffffffffffffff167f8be0079c531659141344cd1fd0a4f28419497f9722a3daafe3b4186f6b6457e060405160405180910390a35050565b6000815190506200018681620001ec565b92915050565b6000602082840312156200019f57600080fd5b6000620001af8482850162000175565b91505092915050565b6000620001c582620001cc565b9050919050565b600073ffffffffffffffffffffffffffffffffffffffff82169050919050565b620001f781620001b8565b81146200020357600080fd5b50565b60805160f01c60a05160601c6119896200026360003960006108a50152600081816102f70152818161031e0152818161044001528181610467015281816104fd0152818161053e0152818161058c01526105c201526119896000f3fe608060405234801561001057600080fd5b50600436106100885760003560e01c8063891dc18f1161005b578063891dc18f146101165780638da5cb5b14610146578063f2c298be14610164578063f2fde38b1461019457610088565b806333794c781461008d57806356d42bb3146100bd5780636bdcd30e146100dc578063715018a61461010c575b600080fd5b6100a760048036038101906100a29190610eba565b6101b0565b6040516100b49190611234565b60405180910390f35b6100c56102f0565b6040516100d3929190611351565b60405180910390f35b6100f660048036038101906100f19190610f24565b610377565b60405161010391906111f7565b60405180910390f35b610114610819565b005b610130600480360381019061012b9190610eba565b6108a1565b60405161013d9190611336565b60405180910390f35b61014e610953565b60405161015b91906111dc565b60405180910390f35b61017e60048036038101906101799190610ee3565b61097c565b60405161018b9190611219565b60405180910390f35b6101ae60048036038101906101a99190610eba565b610b7c565b005b60608173ffffffffffffffffffffffffffffffffffffffff16600073ffffffffffffffffffffffffffffffffffffffff1610610221576040517f08c379a000000000000000000000000000000000000000000000000000000000815260040161021890611276565b60405180910390fd5b600160008373ffffffffffffffffffffffffffffffffffffffff1673ffffffffffffffffffffffffffffffffffffffff168152602001908152602001600020805461026b90611600565b80601f016020809104026020016040519081016040528092919081815260200182805461029790611600565b80156102e45780601f106102b9576101008083540402835291602001916102e4565b820191906000526020600020905b8154815290600101906020018083116102c757829003601f168201915b50505050509050919050565b60008060007f000000000000000000000000000000000000000000000000000000000000000061ffff1660017f000000000000000000000000000000000000000000000000000000000000000061ffff166003805490506103519190611430565b61035b9190611527565b6103659190611486565b90506003805490508192509250509091565b6060610381610c74565b73ffffffffffffffffffffffffffffffffffffffff1661039f610953565b73ffffffffffffffffffffffffffffffffffffffff16146103f5576040517f08c379a00000000000000000000000000000000000000000000000000000000081526004016103ec906112d6565b60405180910390fd5b60008261ffff161161043c576040517f08c379a000000000000000000000000000000000000000000000000000000000815260040161043390611256565b60405180910390fd5b60007f000000000000000000000000000000000000000000000000000000000000000061ffff1660017f000000000000000000000000000000000000000000000000000000000000000061ffff1660038054905061049a9190611430565b6104a49190611527565b6104ae9190611486565b9050808361ffff1611156104f7576040517f08c379a00000000000000000000000000000000000000000000000000000000081526004016104ee906112b6565b60405180910390fd5b600060017f000000000000000000000000000000000000000000000000000000000000000060018661052991906114f3565b61053391906114b7565b61ffff1610610579577f000000000000000000000000000000000000000000000000000000000000000060018561056a91906114f3565b61057491906114b7565b61057c565b60005b61ffff16905060006003805490507f0000000000000000000000000000000000000000000000000000000000000000866105b691906114b7565b61ffff1610156105f5577f0000000000000000000000000000000000000000000000000000000000000000856105ec91906114b7565b61ffff166105fc565b6003805490505b90506000828261060c9190611527565b905060008167ffffffffffffffff811115610650577f4e487b7100000000000000000000000000000000000000000000000000000000600052604160045260246000fd5b60405190808252806020026020018201604052801561068957816020015b610676610d40565b81526020019060019003908161066e5790505b5090506000808590505b8481101561080a57600061070a600383815481106106da577f4e487b7100000000000000000000000000000000000000000000000000000000600052603260045260246000fd5b9060005260206000200160009054906101000a900473ffffffffffffffffffffffffffffffffffffffff166108a1565b90506000604051806040016040528060038581548110610753577f4e487b7100000000000000000000000000000000000000000000000000000000600052603260045260246000fd5b9060005260206000200160009054906101000a900473ffffffffffffffffffffffffffffffffffffffff1673ffffffffffffffffffffffffffffffffffffffff16815260200183815250905080858560ff16815181106107dc577f4e487b7100000000000000000000000000000000000000000000000000000000600052603260045260246000fd5b602002602001018190525083806107f2906116ac565b9450505050808061080290611663565b915050610693565b50819650505050505050919050565b610821610c74565b73ffffffffffffffffffffffffffffffffffffffff1661083f610953565b73ffffffffffffffffffffffffffffffffffffffff1614610895576040517f08c379a000000000000000000000000000000000000000000000000000000000815260040161088c906112d6565b60405180910390fd5b61089f6000610c7c565b565b60007f000000000000000000000000000000000000000000000000000000000000000073ffffffffffffffffffffffffffffffffffffffff166370a08231836040518263ffffffff1660e01b81526004016108fc91906111dc565b60206040518083038186803b15801561091457600080fd5b505afa158015610928573d6000803e3d6000fd5b505050506040513d601f19601f8201168201806040525081019061094c9190610f4d565b9050919050565b60008060009054906101000a900473ffffffffffffffffffffffffffffffffffffffff16905090565b600060028260405161098e91906111c5565b908152602001604051809103902060009054906101000a900460ff1660ff16600060ff16146109f2576040517f08c379a00000000000000000000000000000000000000000000000000000000081526004016109e9906112f6565b60405180910390fd5b600160003373ffffffffffffffffffffffffffffffffffffffff1673ffffffffffffffffffffffffffffffffffffffff1681526020019081526020016000208054610a3c90611600565b9050600060ff161015610a84576040517f08c379a0000000000000000000000000000000000000000000000000000000008152600401610a7b90611316565b60405180910390fd5b81600160003373ffffffffffffffffffffffffffffffffffffffff1673ffffffffffffffffffffffffffffffffffffffff1681526020019081526020016000209080519060200190610ad7929190610d70565b506001600283604051610aea91906111c5565b908152602001604051809103902060006101000a81548160ff021916908360ff1602179055506003339080600181540180825580915050600190039060005260206000200160009091909190916101000a81548173ffffffffffffffffffffffffffffffffffffffff021916908373ffffffffffffffffffffffffffffffffffffffff16021790555060019050919050565b610b84610c74565b73ffffffffffffffffffffffffffffffffffffffff16610ba2610953565b73ffffffffffffffffffffffffffffffffffffffff1614610bf8576040517f08c379a0000000000000000000000000000000000000000000000000000000008152600401610bef906112d6565b60405180910390fd5b600073ffffffffffffffffffffffffffffffffffffffff168173ffffffffffffffffffffffffffffffffffffffff161415610c68576040517f08c379a0000000000000000000000000000000000000000000000000000000008152600401610c5f90611296565b60405180910390fd5b610c7181610c7c565b50565b600033905090565b60008060009054906101000a900473ffffffffffffffffffffffffffffffffffffffff169050816000806101000a81548173ffffffffffffffffffffffffffffffffffffffff021916908373ffffffffffffffffffffffffffffffffffffffff1602179055508173ffffffffffffffffffffffffffffffffffffffff168173ffffffffffffffffffffffffffffffffffffffff167f8be0079c531659141344cd1fd0a4f28419497f9722a3daafe3b4186f6b6457e060405160405180910390a35050565b6040518060400160405280600073ffffffffffffffffffffffffffffffffffffffff168152602001600081525090565b828054610d7c90611600565b90600052602060002090601f016020900481019282610d9e5760008555610de5565b82601f10610db757805160ff1916838001178555610de5565b82800160010185558215610de5579182015b82811115610de4578251825591602001919060010190610dc9565b5b509050610df29190610df6565b5090565b5b80821115610e0f576000816000905550600101610df7565b5090565b6000610e26610e218461139f565b61137a565b905082815260208101848484011115610e3e57600080fd5b610e498482856115be565b509392505050565b600081359050610e608161190e565b92915050565b600082601f830112610e7757600080fd5b8135610e87848260208601610e13565b91505092915050565b600081359050610e9f81611925565b92915050565b600081519050610eb48161193c565b92915050565b600060208284031215610ecc57600080fd5b6000610eda84828501610e51565b91505092915050565b600060208284031215610ef557600080fd5b600082013567ffffffffffffffff811115610f0f57600080fd5b610f1b84828501610e66565b91505092915050565b600060208284031215610f3657600080fd5b6000610f4484828501610e90565b91505092915050565b600060208284031215610f5f57600080fd5b6000610f6d84828501610ea5565b91505092915050565b6000610f828383611178565b60408301905092915050565b610f978161155b565b82525050565b610fa68161155b565b82525050565b6000610fb7826113e0565b610fc18185611403565b9350610fcc836113d0565b8060005b83811015610ffd578151610fe48882610f76565b9750610fef836113f6565b925050600181019050610fd0565b5085935050505092915050565b6110138161156d565b82525050565b6000611024826113eb565b61102e8185611414565b935061103e8185602086016115cd565b61104781611792565b840191505092915050565b600061105d826113eb565b6110678185611425565b93506110778185602086016115cd565b80840191505092915050565b6000611090601c83611414565b915061109b826117a3565b602082019050919050565b60006110b3601e83611414565b91506110be826117cc565b602082019050919050565b60006110d6602683611414565b91506110e1826117f5565b604082019050919050565b60006110f9601783611414565b915061110482611844565b602082019050919050565b600061111c602083611414565b91506111278261186d565b602082019050919050565b600061113f602383611414565b915061114a82611896565b604082019050919050565b6000611162602083611414565b915061116d826118e5565b602082019050919050565b60408201600082015161118e6000850182610f8e565b5060208201516111a160208501826111a7565b50505050565b6111b0816115a7565b82525050565b6111bf816115a7565b82525050565b60006111d18284611052565b915081905092915050565b60006020820190506111f16000830184610f9d565b92915050565b600060208201905081810360008301526112118184610fac565b905092915050565b600060208201905061122e600083018461100a565b92915050565b6000602082019050818103600083015261124e8184611019565b905092915050565b6000602082019050818103600083015261126f81611083565b9050919050565b6000602082019050818103600083015261128f816110a6565b9050919050565b600060208201905081810360008301526112af816110c9565b9050919050565b600060208201905081810360008301526112cf816110ec565b9050919050565b600060208201905081810360008301526112ef8161110f565b9050919050565b6000602082019050818103600083015261130f81611132565b9050919050565b6000602082019050818103600083015261132f81611155565b9050919050565b600060208201905061134b60008301846111b6565b92915050565b600060408201905061136660008301856111b6565b61137360208301846111b6565b9392505050565b6000611384611395565b90506113908282611632565b919050565b6000604051905090565b600067ffffffffffffffff8211156113ba576113b9611763565b5b6113c382611792565b9050602081019050919050565b6000819050602082019050919050565b600081519050919050565b600081519050919050565b6000602082019050919050565b600082825260208201905092915050565b600082825260208201905092915050565b600081905092915050565b600061143b826115a7565b9150611446836115a7565b9250827fffffffffffffffffffffffffffffffffffffffffffffffffffffffffffffffff0382111561147b5761147a6116d6565b5b828201905092915050565b6000611491826115a7565b915061149c836115a7565b9250826114ac576114ab611705565b5b828204905092915050565b60006114c282611579565b91506114cd83611579565b92508161ffff04831182151516156114e8576114e76116d6565b5b828202905092915050565b60006114fe82611579565b915061150983611579565b92508282101561151c5761151b6116d6565b5b828203905092915050565b6000611532826115a7565b915061153d836115a7565b9250828210156115505761154f6116d6565b5b828203905092915050565b600061156682611587565b9050919050565b60008115159050919050565b600061ffff82169050919050565b600073ffffffffffffffffffffffffffffffffffffffff82169050919050565b6000819050919050565b600060ff82169050919050565b82818337600083830152505050565b60005b838110156115eb5780820151818401526020810190506115d0565b838111156115fa576000848401525b50505050565b6000600282049050600182168061161857607f821691505b6020821081141561162c5761162b611734565b5b50919050565b61163b82611792565b810181811067ffffffffffffffff8211171561165a57611659611763565b5b80604052505050565b600061166e826115a7565b91507fffffffffffffffffffffffffffffffffffffffffffffffffffffffffffffffff8214156116a1576116a06116d6565b5b600182019050919050565b60006116b7826115b1565b915060ff8214156116cb576116ca6116d6565b5b600182019050919050565b7f4e487b7100000000000000000000000000000000000000000000000000000000600052601160045260246000fd5b7f4e487b7100000000000000000000000000000000000000000000000000000000600052601260045260246000fd5b7f4e487b7100000000000000000000000000000000000000000000000000000000600052602260045260246000fd5b7f4e487b7100000000000000000000000000000000000000000000000000000000600052604160045260246000fd5b6000601f19601f8301169050919050565b7f4552524f523a20506167654e6f206d757374206265207468616e203000000000600082015250565b7f4552524f523a20416464726573732063616e206e6f74206265207a65726f0000600082015250565b7f4f776e61626c653a206e6577206f776e657220697320746865207a65726f206160008201527f6464726573730000000000000000000000000000000000000000000000000000602082015250565b7f4552524f523a20506167654e6f20746f6f206c61726765000000000000000000600082015250565b7f4f776e61626c653a2063616c6c6572206973206e6f7420746865206f776e6572600082015250565b7f4552524f523a205468652074656c656772616d2069642077617320726567697360008201527f7465640000000000000000000000000000000000000000000000000000000000602082015250565b7f4552524f523a20596f7572206164647265737320776173207265676973746564600082015250565b6119178161155b565b811461192257600080fd5b50565b61192e81611579565b811461193957600080fd5b50565b611945816115a7565b811461195057600080fd5b5056fea26469706673582212206046aea8057369670ad9f6edfc4dc73da3dbc04a40a348ffabf2d640335eefe764736f6c63430008020033",
  "linkReferences": {},
  "deployedLinkReferences": {}
}