{
  "_format": "hh-sol-artifact-1",
  "contractName": "ScFarmForStaker",
  "sourceName": "contracts/ScFarmForStaker.sol",
  "abi": [
    {
      "anonymous": false,
      "inputs": [
        {
          "indexed": true,
          "internalType": "address",
          "name": "staker",
          "type": "address"
        },
        {
          "indexed": true,
          "internalType": "uint256",
          "name": "oldAmount",
          "type": "uint256"
        },
        {
          "indexed": true,
          "internalType": "uint256",
          "name": "newAmount",
          "type": "uint256"
        }
      ],
      "name": "ChangeStakeAmount",
      "type": "event"
    },
    {
      "anonymous": false,
      "inputs": [
        {
          "indexed": true,
          "internalType": "address",
          "name": "staker",
          "type": "address"
        },
        {
          "indexed": true,
          "internalType": "uint256",
          "name": "reward",
          "type": "uint256"
        }
      ],
      "name": "Claim",
      "type": "event"
    },
    {
      "anonymous": false,
      "inputs": [
        {
          "indexed": false,
          "internalType": "address",
          "name": "sender",
          "type": "address"
        },
        {
          "indexed": false,
          "internalType": "address",
          "name": "pair",
          "type": "address"
        },
        {
          "indexed": false,
          "internalType": "address",
          "name": "ths",
          "type": "address"
        },
        {
          "indexed": false,
          "internalType": "address",
          "name": "usdt",
          "type": "address"
        },
        {
          "indexed": false,
          "internalType": "address",
          "name": "staking",
          "type": "address"
        },
        {
          "indexed": false,
          "internalType": "address",
          "name": "sc",
          "type": "address"
        }
      ],
      "name": "Initalize",
      "type": "event"
    },
    {
      "anonymous": false,
      "inputs": [
        {
          "indexed": true,
          "internalType": "bytes32",
          "name": "role",
          "type": "bytes32"
        },
        {
          "indexed": true,
          "internalType": "bytes32",
          "name": "previousAdminRole",
          "type": "bytes32"
        },
        {
          "indexed": true,
          "internalType": "bytes32",
          "name": "newAdminRole",
          "type": "bytes32"
        }
      ],
      "name": "RoleAdminChanged",
      "type": "event"
    },
    {
      "anonymous": false,
      "inputs": [
        {
          "indexed": true,
          "internalType": "bytes32",
          "name": "role",
          "type": "bytes32"
        },
        {
          "indexed": true,
          "internalType": "address",
          "name": "account",
          "type": "address"
        },
        {
          "indexed": true,
          "internalType": "address",
          "name": "sender",
          "type": "address"
        }
      ],
      "name": "RoleGranted",
      "type": "event"
    },
    {
      "anonymous": false,
      "inputs": [
        {
          "indexed": true,
          "internalType": "bytes32",
          "name": "role",
          "type": "bytes32"
        },
        {
          "indexed": true,
          "internalType": "address",
          "name": "account",
          "type": "address"
        },
        {
          "indexed": true,
          "internalType": "address",
          "name": "sender",
          "type": "address"
        }
      ],
      "name": "RoleRevoked",
      "type": "event"
    },
    {
      "inputs": [],
      "name": "DEFAULT_ADMIN_ROLE",
      "outputs": [
        {
          "internalType": "bytes32",
          "name": "",
          "type": "bytes32"
        }
      ],
      "stateMutability": "view",
      "type": "function"
    },
    {
      "inputs": [],
      "name": "MANAGER_ROLE",
      "outputs": [
        {
          "internalType": "bytes32",
          "name": "",
          "type": "bytes32"
        }
      ],
      "stateMutability": "view",
      "type": "function"
    },
    {
      "inputs": [],
      "name": "ONE_SC",
      "outputs": [
        {
          "internalType": "uint256",
          "name": "",
          "type": "uint256"
        }
      ],
      "stateMutability": "view",
      "type": "function"
    },
    {
      "inputs": [],
      "name": "ONE_THS",
      "outputs": [
        {
          "internalType": "uint256",
          "name": "",
          "type": "uint256"
        }
      ],
      "stateMutability": "view",
      "type": "function"
    },
    {
      "inputs": [],
      "name": "ONE_USDT",
      "outputs": [
        {
          "internalType": "uint256",
          "name": "",
          "type": "uint256"
        }
      ],
      "stateMutability": "view",
      "type": "function"
    },
    {
      "inputs": [],
      "name": "OWNER_ROLE",
      "outputs": [
        {
          "internalType": "bytes32",
          "name": "",
          "type": "bytes32"
        }
      ],
      "stateMutability": "view",
      "type": "function"
    },
    {
      "inputs": [
        {
          "internalType": "address[]",
          "name": "_users",
          "type": "address[]"
        }
      ],
      "name": "addManagerBatch",
      "outputs": [],
      "stateMutability": "nonpayable",
      "type": "function"
    },
    {
      "inputs": [
        {
          "internalType": "address",
          "name": "_newOwner",
          "type": "address"
        }
      ],
      "name": "changeOwner",
      "outputs": [],
      "stateMutability": "nonpayable",
      "type": "function"
    },
    {
      "inputs": [
        {
          "internalType": "address",
          "name": "_staker",
          "type": "address"
        },
        {
          "internalType": "uint256",
          "name": "_newAmount",
          "type": "uint256"
        }
      ],
      "name": "changeStakeAmount",
      "outputs": [],
      "stateMutability": "nonpayable",
      "type": "function"
    },
    {
      "inputs": [],
      "name": "claim",
      "outputs": [],
      "stateMutability": "nonpayable",
      "type": "function"
    },
    {
      "inputs": [],
      "name": "earnScMax",
      "outputs": [
        {
          "internalType": "uint256",
          "name": "",
          "type": "uint256"
        }
      ],
      "stateMutability": "view",
      "type": "function"
    },
    {
      "inputs": [
        {
          "internalType": "bytes32",
          "name": "role",
          "type": "bytes32"
        }
      ],
      "name": "getRoleAdmin",
      "outputs": [
        {
          "internalType": "bytes32",
          "name": "",
          "type": "bytes32"
        }
      ],
      "stateMutability": "view",
      "type": "function"
    },
    {
      "inputs": [
        {
          "internalType": "bytes32",
          "name": "role",
          "type": "bytes32"
        },
        {
          "internalType": "address",
          "name": "account",
          "type": "address"
        }
      ],
      "name": "grantRole",
      "outputs": [],
      "stateMutability": "nonpayable",
      "type": "function"
    },
    {
      "inputs": [
        {
          "internalType": "bytes32",
          "name": "role",
          "type": "bytes32"
        },
        {
          "internalType": "address",
          "name": "account",
          "type": "address"
        }
      ],
      "name": "hasRole",
      "outputs": [
        {
          "internalType": "bool",
          "name": "",
          "type": "bool"
        }
      ],
      "stateMutability": "view",
      "type": "function"
    },
    {
      "inputs": [],
      "name": "initFlag",
      "outputs": [
        {
          "internalType": "bool",
          "name": "",
          "type": "bool"
        }
      ],
      "stateMutability": "view",
      "type": "function"
    },
    {
      "inputs": [
        {
          "internalType": "address",
          "name": "_pair",
          "type": "address"
        },
        {
          "internalType": "address",
          "name": "_ths",
          "type": "address"
        },
        {
          "internalType": "address",
          "name": "_usdt",
          "type": "address"
        },
        {
          "internalType": "address",
          "name": "_staking",
          "type": "address"
        },
        {
          "internalType": "address",
          "name": "_sc",
          "type": "address"
        }
      ],
      "name": "initalize",
      "outputs": [],
      "stateMutability": "nonpayable",
      "type": "function"
    },
    {
      "inputs": [],
      "name": "levelDec",
      "outputs": [
        {
          "internalType": "uint256",
          "name": "",
          "type": "uint256"
        }
      ],
      "stateMutability": "view",
      "type": "function"
    },
    {
      "inputs": [],
      "name": "pairAddr",
      "outputs": [
        {
          "internalType": "address",
          "name": "",
          "type": "address"
        }
      ],
      "stateMutability": "view",
      "type": "function"
    },
    {
      "inputs": [
        {
          "internalType": "address",
          "name": "_addr",
          "type": "address"
        }
      ],
      "name": "pendingReward",
      "outputs": [
        {
          "internalType": "uint256",
          "name": "pendingReward_",
          "type": "uint256"
        }
      ],
      "stateMutability": "view",
      "type": "function"
    },
    {
      "inputs": [
        {
          "internalType": "address",
          "name": "_user",
          "type": "address"
        }
      ],
      "name": "removeManager",
      "outputs": [],
      "stateMutability": "nonpayable",
      "type": "function"
    },
    {
      "inputs": [
        {
          "internalType": "bytes32",
          "name": "role",
          "type": "bytes32"
        },
        {
          "internalType": "address",
          "name": "account",
          "type": "address"
        }
      ],
      "name": "renounceRole",
      "outputs": [],
      "stateMutability": "nonpayable",
      "type": "function"
    },
    {
      "inputs": [
        {
          "internalType": "bytes32",
          "name": "role",
          "type": "bytes32"
        },
        {
          "internalType": "address",
          "name": "account",
          "type": "address"
        }
      ],
      "name": "revokeRole",
      "outputs": [],
      "stateMutability": "nonpayable",
      "type": "function"
    },
    {
      "inputs": [],
      "name": "scAddr",
      "outputs": [
        {
          "internalType": "address",
          "name": "",
          "type": "address"
        }
      ],
      "stateMutability": "view",
      "type": "function"
    },
    {
      "inputs": [
        {
          "internalType": "uint256",
          "name": "_newMax",
          "type": "uint256"
        }
      ],
      "name": "setEarnScMax",
      "outputs": [],
      "stateMutability": "nonpayable",
      "type": "function"
    },
    {
      "inputs": [
        {
          "internalType": "uint256",
          "name": "_newReward",
          "type": "uint256"
        }
      ],
      "name": "setStakeRewardPerLevelPerBlock",
      "outputs": [],
      "stateMutability": "nonpayable",
      "type": "function"
    },
    {
      "inputs": [],
      "name": "stakeRewardPerLevelPerBlock",
      "outputs": [
        {
          "internalType": "uint256",
          "name": "",
          "type": "uint256"
        }
      ],
      "stateMutability": "view",
      "type": "function"
    },
    {
      "inputs": [
        {
          "internalType": "address",
          "name": "",
          "type": "address"
        }
      ],
      "name": "stakedInfoOf",
      "outputs": [
        {
          "internalType": "uint256",
          "name": "currentStakedTHS",
          "type": "uint256"
        },
        {
          "internalType": "uint256",
          "name": "lastEarnedBlock",
          "type": "uint256"
        },
        {
          "internalType": "uint256",
          "name": "lastEarnedAmount",
          "type": "uint256"
        },
        {
          "internalType": "uint256",
          "name": "lasEarnedStakedTHS",
          "type": "uint256"
        },
        {
          "internalType": "uint256",
          "name": "lasEarnedStakeThsAsUsdt",
          "type": "uint256"
        },
        {
          "internalType": "uint256",
          "name": "earnedTotal",
          "type": "uint256"
        }
      ],
      "stateMutability": "view",
      "type": "function"
    },
    {
      "inputs": [
        {
          "internalType": "bytes4",
          "name": "interfaceId",
          "type": "bytes4"
        }
      ],
      "name": "supportsInterface",
      "outputs": [
        {
          "internalType": "bool",
          "name": "",
          "type": "bool"
        }
      ],
      "stateMutability": "view",
      "type": "function"
    },
    {
      "inputs": [],
      "name": "thsAddr",
      "outputs": [
        {
          "internalType": "address",
          "name": "",
          "type": "address"
        }
      ],
      "stateMutability": "view",
      "type": "function"
    },
    {
      "inputs": [],
      "name": "thsStaking",
      "outputs": [
        {
          "internalType": "address",
          "name": "",
          "type": "address"
        }
      ],
      "stateMutability": "view",
      "type": "function"
    },
    {
      "inputs": [],
      "name": "usdtAddr",
      "outputs": [
        {
          "internalType": "address",
          "name": "",
          "type": "address"
        }
      ],
      "stateMutability": "view",
      "type": "function"
    },
    {
      "inputs": [
        {
          "internalType": "uint256",
          "name": "_thsAmount",
          "type": "uint256"
        }
      ],
      "name": "viewAsUsdt",
      "outputs": [
        {
          "internalType": "uint256",
          "name": "usdtAmount_",
          "type": "uint256"
        }
      ],
      "stateMutability": "view",
      "type": "function"
    },
    {
      "inputs": [
        {
          "internalType": "address",
          "name": "_token",
          "type": "address"
        },
        {
          "internalType": "address",
          "name": "_to",
          "type": "address"
        }
      ],
      "name": "withdrawToken",
      "outputs": [],
      "stateMutability": "nonpayable",
      "type": "function"
    }
  ],
  "bytecode": "0x608060405260405180604001604052807fb19546dff01e856fb3f010c267a7b1c60363cf8a4664e21cc89c26224620214e81526020017f241ecf16d79d0f8dbfb92cbc07fe17840425976cf0667f022fe9877caa831b0881525060019060026200006b929190620003f3565b50670de0b6b3a764000061012c62000084919062000464565b600755651f9465b8ab8e6008553480156200009e57600080fd5b50620000d17f241ecf16d79d0f8dbfb92cbc07fe17840425976cf0667f022fe9877caa831b08336200012260201b60201c565b620000e16200013860201b60201c565b62000101620000f56200018c60201b60201c565b6200019460201b60201c565b6001600260006101000a81548160ff0219169083151502179055506200054c565b6200013482826200021660201b60201c565b5050565b6200018a7f241ecf16d79d0f8dbfb92cbc07fe17840425976cf0667f022fe9877caa831b087fb19546dff01e856fb3f010c267a7b1c60363cf8a4664e21cc89c26224620214e6200030760201b60201c565b565b600033905090565b60005b6001805490508110156200021257620001fc60018281548110620001e4577f4e487b7100000000000000000000000000000000000000000000000000000000600052603260045260246000fd5b9060005260206000200154836200012260201b60201c565b80806200020990620004cf565b91505062000197565b5050565b6200022882826200036a60201b60201c565b6200030357600160008084815260200190815260200160002060000160008373ffffffffffffffffffffffffffffffffffffffff1673ffffffffffffffffffffffffffffffffffffffff16815260200190815260200160002060006101000a81548160ff021916908315150217905550620002a86200018c60201b60201c565b73ffffffffffffffffffffffffffffffffffffffff168173ffffffffffffffffffffffffffffffffffffffff16837f2f8788117e7eff1d82e926ec794901d17c78024a50270940304540a733656f0d60405160405180910390a45b5050565b60006200031a83620003d460201b60201c565b905081600080858152602001908152602001600020600101819055508181847fbd79b86ffe0ab8e8776151514217cd7cacd52c909f66475c3af44e129f0b00ff60405160405180910390a4505050565b600080600084815260200190815260200160002060000160008373ffffffffffffffffffffffffffffffffffffffff1673ffffffffffffffffffffffffffffffffffffffff16815260200190815260200160002060009054906101000a900460ff16905092915050565b6000806000838152602001908152602001600020600101549050919050565b82805482825590600052602060002090810192821562000432579160200282015b828111156200043157825182559160200191906001019062000414565b5b50905062000441919062000445565b5090565b5b808211156200046057600081600090555060010162000446565b5090565b60006200047182620004c5565b91506200047e83620004c5565b9250817fffffffffffffffffffffffffffffffffffffffffffffffffffffffffffffffff0483118215151615620004ba57620004b96200051d565b5b828202905092915050565b6000819050919050565b6000620004dc82620004c5565b91507fffffffffffffffffffffffffffffffffffffffffffffffffffffffffffffffff8214156200051257620005116200051d565b5b600182019050919050565b7f4e487b7100000000000000000000000000000000000000000000000000000000600052601160045260246000fd5b613cf3806200055c6000396000f3fe608060405234801561001057600080fd5b50600436106101fb5760003560e01c8063803039d91161011a578063b3d94a5e116100ad578063dff935d01161007c578063dff935d01461056d578063e58378bb1461059d578063ec87621c146105bb578063f40f0f52146105d9578063fcb30cd514610609576101fb565b8063b3d94a5e146104f9578063cb66b40c14610517578063ce447e9b14610535578063d547741f14610551576101fb565b8063a217fddf116100e9578063a217fddf14610487578063a6f9dae1146104a5578063a7c8cb4d146104c1578063ac18de43146104dd576101fb565b8063803039d9146103ff5780638521dc471461041d57806391d1485414610439578063938c0a1514610469576101fb565b806336568abe116101925780634f4fc99b116101615780634f4fc99b146103875780634fa828a4146103a55780635460b84a146103c357806360f91f2c146103e1576101fb565b806336568abe146103275780633aeac4e1146103435780633fd3eb1f1461035f5780634e71d92d1461037d576101fb565b80631554e1ce116101ce5780631554e1ce1461029f5780631f9c29e1146102bd578063248a9ca3146102db5780632f2ff15d1461030b576101fb565b806301ffc9a71461020057806304b376c8146102305780630df3b62c1461024e57806311b9425f14610283575b600080fd5b61021a60048036038101906102159190612c84565b610625565b60405161022791906131eb565b60405180910390f35b61023861069f565b604051610245919061310f565b60405180910390f35b61026860048036038101906102639190612a74565b6106c5565b60405161027a9695949392919061347e565b60405180910390f35b61029d60048036038101906102989190612b79565b610701565b005b6102a76108c1565b6040516102b4919061310f565b60405180910390f35b6102c56108e7565b6040516102d29190613463565b60405180910390f35b6102f560048036038101906102f09190612c1f565b610900565b6040516103029190613206565b60405180910390f35b61032560048036038101906103209190612c48565b61091f565b005b610341600480360381019061033c9190612c48565b610948565b005b61035d60048036038101906103589190612ac6565b6109cb565b005b610367610b9d565b60405161037491906131eb565b60405180910390f35b610385610bb0565b005b61038f610cd5565b60405161039c919061310f565b60405180910390f35b6103ad610cf9565b6040516103ba9190613463565b60405180910390f35b6103cb610d01565b6040516103d89190613463565b60405180910390f35b6103e9610d07565b6040516103f69190613463565b60405180910390f35b610407610d0d565b6040516104149190613463565b60405180910390f35b61043760048036038101906104329190612cfc565b610d19565b005b610453600480360381019061044e9190612c48565b610d93565b60405161046091906131eb565b60405180910390f35b610471610dfd565b60405161047e9190613463565b60405180910390f35b61048f610e09565b60405161049c9190613206565b60405180910390f35b6104bf60048036038101906104ba9190612a74565b610e10565b005b6104db60048036038101906104d69190612b02565b610f1a565b005b6104f760048036038101906104f29190612a74565b6112d5565b005b6105016113db565b60405161050e919061310f565b60405180910390f35b61051f611401565b60405161052c919061310f565b60405180910390f35b61054f600480360381019061054a9190612cfc565b611427565b005b61056b60048036038101906105669190612c48565b6114a1565b005b61058760048036038101906105829190612cfc565b6114ca565b6040516105949190613463565b60405180910390f35b6105a5611892565b6040516105b29190613206565b60405180910390f35b6105c36118b6565b6040516105d09190613206565b60405180910390f35b6105f360048036038101906105ee9190612a74565b6118da565b6040516106009190613463565b60405180910390f35b610623600480360381019061061e9190612bb5565b611a3a565b005b60007f7965db0b000000000000000000000000000000000000000000000000000000007bffffffffffffffffffffffffffffffffffffffffffffffffffffffff1916827bffffffffffffffffffffffffffffffffffffffffffffffffffffffff19161480610698575061069782611bb9565b5b9050919050565b600660009054906101000a900473ffffffffffffffffffffffffffffffffffffffff1681565b60096020528060005260406000206000915090508060000154908060010154908060020154908060030154908060040154908060050154905086565b3373ffffffffffffffffffffffffffffffffffffffff16600560009054906101000a900473ffffffffffffffffffffffffffffffffffffffff1673ffffffffffffffffffffffffffffffffffffffff1614610791576040517f08c379a0000000000000000000000000000000000000000000000000000000008152600401610788906132a3565b60405180910390fd5b600260019054906101000a900460ff166107e0576040517f08c379a00000000000000000000000000000000000000000000000000000000081526004016107d790613263565b60405180910390fd5b6000600960008473ffffffffffffffffffffffffffffffffffffffff1673ffffffffffffffffffffffffffffffffffffffff16815260200190815260200160002060000154905061083083611c23565b81600960008573ffffffffffffffffffffffffffffffffffffffff1673ffffffffffffffffffffffffffffffffffffffff1681526020019081526020016000206000018190555081818473ffffffffffffffffffffffffffffffffffffffff167f95b53cd2c5aab31b8b239cac46797315a9aed9b7c97b4266ca329d00c90d0f6d60405160405180910390a4505050565b600460009054906101000a900473ffffffffffffffffffffffffffffffffffffffff1681565b670de0b6b3a76400006103e86108fd91906135f4565b81565b6000806000838152602001908152602001600020600101549050919050565b61092882610900565b61093981610934611f9f565b611fa7565b6109438383612044565b505050565b610950611f9f565b73ffffffffffffffffffffffffffffffffffffffff168173ffffffffffffffffffffffffffffffffffffffff16146109bd576040517f08c379a00000000000000000000000000000000000000000000000000000000081526004016109b490613443565b60405180910390fd5b6109c78282612124565b5050565b6109fc7fb19546dff01e856fb3f010c267a7b1c60363cf8a4664e21cc89c26224620214e6109f7611f9f565b610d93565b610a3b576040517f08c379a0000000000000000000000000000000000000000000000000000000008152600401610a32906133a3565b60405180910390fd5b600260009054906101000a900460ff16610a8a576040517f08c379a0000000000000000000000000000000000000000000000000000000008152600401610a8190613423565b60405180910390fd5b6000600260006101000a81548160ff0219169083151502179055508173ffffffffffffffffffffffffffffffffffffffff16600073ffffffffffffffffffffffffffffffffffffffff161415610ae957610ae48147612205565b610b7e565b610b7d8230838573ffffffffffffffffffffffffffffffffffffffff166370a08231306040518263ffffffff1660e01b8152600401610b28919061310f565b60206040518083038186803b158015610b4057600080fd5b505afa158015610b54573d6000803e3d6000fd5b505050506040513d601f19601f82011682018060405250810190610b789190612d25565b61232b565b5b6001600260006101000a81548160ff0219169083151502179055505050565b600260019054906101000a900460ff1681565b6000600960003373ffffffffffffffffffffffffffffffffffffffff1673ffffffffffffffffffffffffffffffffffffffff1681526020019081526020016000206040518060c0016040529081600082015481526020016001820154815260200160028201548152602001600382015481526020016004820154815260200160058201548152505090508060000151600010610c81576040517f08c379a0000000000000000000000000000000000000000000000000000000008152600401610c7890613283565b60405180910390fd5b8060a0015160075411610cc9576040517f08c379a0000000000000000000000000000000000000000000000000000000008152600401610cc090613383565b60405180910390fd5b610cd233611c23565b50565b60028054906101000a900473ffffffffffffffffffffffffffffffffffffffff1681565b633b9aca0081565b60085481565b60075481565b670de0b6b3a764000081565b610d4a7f241ecf16d79d0f8dbfb92cbc07fe17840425976cf0667f022fe9877caa831b08610d45611f9f565b610d93565b610d89576040517f08c379a0000000000000000000000000000000000000000000000000000000008152600401610d80906132c3565b60405180910390fd5b8060078190555050565b600080600084815260200190815260200160002060000160008373ffffffffffffffffffffffffffffffffffffffff1673ffffffffffffffffffffffffffffffffffffffff16815260200190815260200160002060009054906101000a900460ff16905092915050565b670de0b6b3a764000081565b6000801b81565b610e417f241ecf16d79d0f8dbfb92cbc07fe17840425976cf0667f022fe9877caa831b08610e3c611f9f565b610d93565b610e80576040517f08c379a0000000000000000000000000000000000000000000000000000000008152600401610e77906132c3565b60405180910390fd5b6000610e8a611f9f565b90508073ffffffffffffffffffffffffffffffffffffffff168273ffffffffffffffffffffffffffffffffffffffff161415610efb576040517f08c379a0000000000000000000000000000000000000000000000000000000008152600401610ef290613323565b60405180910390fd5b610f0482612464565b610f0d826124d7565b610f168161254c565b5050565b610f4b7f241ecf16d79d0f8dbfb92cbc07fe17840425976cf0667f022fe9877caa831b08610f46611f9f565b610d93565b610f8a576040517f08c379a0000000000000000000000000000000000000000000000000000000008152600401610f81906132c3565b60405180910390fd5b600260019054906101000a900460ff1615610fda576040517f08c379a0000000000000000000000000000000000000000000000000000000008152600401610fd1906133e3565b60405180910390fd5b8473ffffffffffffffffffffffffffffffffffffffff16600073ffffffffffffffffffffffffffffffffffffffff161415801561104457508373ffffffffffffffffffffffffffffffffffffffff16600073ffffffffffffffffffffffffffffffffffffffff1614155b801561107d57508273ffffffffffffffffffffffffffffffffffffffff16600073ffffffffffffffffffffffffffffffffffffffff1614155b80156110b657508173ffffffffffffffffffffffffffffffffffffffff16600073ffffffffffffffffffffffffffffffffffffffff1614155b80156110ef57508073ffffffffffffffffffffffffffffffffffffffff16600073ffffffffffffffffffffffffffffffffffffffff1614155b61112e576040517f08c379a000000000000000000000000000000000000000000000000000000000815260040161112590613303565b60405180910390fd5b846002806101000a81548173ffffffffffffffffffffffffffffffffffffffff021916908373ffffffffffffffffffffffffffffffffffffffff16021790555083600360006101000a81548173ffffffffffffffffffffffffffffffffffffffff021916908373ffffffffffffffffffffffffffffffffffffffff16021790555082600460006101000a81548173ffffffffffffffffffffffffffffffffffffffff021916908373ffffffffffffffffffffffffffffffffffffffff16021790555081600560006101000a81548173ffffffffffffffffffffffffffffffffffffffff021916908373ffffffffffffffffffffffffffffffffffffffff16021790555080600660006101000a81548173ffffffffffffffffffffffffffffffffffffffff021916908373ffffffffffffffffffffffffffffffffffffffff1602179055506001600260016101000a81548160ff0219169083151502179055507fb64cd928397c668d0b1d067968118f196c298ec30b579f3421363524befabff13386868686866040516112c69695949392919061312a565b60405180910390a15050505050565b6113067fb19546dff01e856fb3f010c267a7b1c60363cf8a4664e21cc89c26224620214e611301611f9f565b610d93565b611345576040517f08c379a000000000000000000000000000000000000000000000000000000000815260040161133c906133a3565b60405180910390fd5b61136f7f241ecf16d79d0f8dbfb92cbc07fe17840425976cf0667f022fe9877caa831b0882610d93565b6113ae576040517f08c379a00000000000000000000000000000000000000000000000000000000081526004016113a590613343565b60405180910390fd5b6113d87f241ecf16d79d0f8dbfb92cbc07fe17840425976cf0667f022fe9877caa831b08826114a1565b50565b600560009054906101000a900473ffffffffffffffffffffffffffffffffffffffff1681565b600360009054906101000a900473ffffffffffffffffffffffffffffffffffffffff1681565b6114587f241ecf16d79d0f8dbfb92cbc07fe17840425976cf0667f022fe9877caa831b08611453611f9f565b610d93565b611497576040517f08c379a000000000000000000000000000000000000000000000000000000000815260040161148e906132c3565b60405180910390fd5b8060088190555050565b6114aa82610900565b6114bb816114b6611f9f565b611fa7565b6114c58383612124565b505050565b600080600060028054906101000a900473ffffffffffffffffffffffffffffffffffffffff1673ffffffffffffffffffffffffffffffffffffffff16630902f1ac6040518163ffffffff1660e01b815260040160606040518083038186803b15801561153557600080fd5b505afa158015611549573d6000803e3d6000fd5b505050506040513d601f19601f8201168201806040525081019061156d9190612cad565b506dffffffffffffffffffffffffffff1691506dffffffffffffffffffffffffffff169150600060028054906101000a900473ffffffffffffffffffffffffffffffffffffffff1673ffffffffffffffffffffffffffffffffffffffff16630dfe16816040518163ffffffff1660e01b815260040160206040518083038186803b1580156115fa57600080fd5b505afa15801561160e573d6000803e3d6000fd5b505050506040513d601f19601f820116820180604052508101906116329190612a9d565b9050600060028054906101000a900473ffffffffffffffffffffffffffffffffffffffff1673ffffffffffffffffffffffffffffffffffffffff1663d21220a76040518163ffffffff1660e01b815260040160206040518083038186803b15801561169c57600080fd5b505afa1580156116b0573d6000803e3d6000fd5b505050506040513d601f19601f820116820180604052508101906116d49190612a9d565b90508173ffffffffffffffffffffffffffffffffffffffff16600360009054906101000a900473ffffffffffffffffffffffffffffffffffffffff1673ffffffffffffffffffffffffffffffffffffffff1614801561178057508073ffffffffffffffffffffffffffffffffffffffff16600460009054906101000a900473ffffffffffffffffffffffffffffffffffffffff1673ffffffffffffffffffffffffffffffffffffffff16145b156117b1576117aa8461179c85896125c190919063ffffffff16565b6125d790919063ffffffff16565b9450611889565b8073ffffffffffffffffffffffffffffffffffffffff16600360009054906101000a900473ffffffffffffffffffffffffffffffffffffffff1673ffffffffffffffffffffffffffffffffffffffff1614801561185b57508173ffffffffffffffffffffffffffffffffffffffff16600460009054906101000a900473ffffffffffffffffffffffffffffffffffffffff1673ffffffffffffffffffffffffffffffffffffffff16145b15611888576118858361187786896125c190919063ffffffff16565b6125d790919063ffffffff16565b94505b5b50505050919050565b7fb19546dff01e856fb3f010c267a7b1c60363cf8a4664e21cc89c26224620214e81565b7f241ecf16d79d0f8dbfb92cbc07fe17840425976cf0667f022fe9877caa831b0881565b600080600960008473ffffffffffffffffffffffffffffffffffffffff1673ffffffffffffffffffffffffffffffffffffffff1681526020019081526020016000206040518060c0016040529081600082015481526020016001820154815260200160028201548152602001600382015481526020016004820154815260200160058201548152505090508060a001516007541115611a3457600061198282600001516114ca565b905060006119ae670de0b6b3a76400006103e861199f91906135f4565b836125d790919063ffffffff16565b905060006119c98460200151436125ed90919063ffffffff16565b90506119f26008546119e483856125c190919063ffffffff16565b6125c190919063ffffffff16565b9450611a0b8460a001518661260390919063ffffffff16565b6007541015611a3057611a2d8460a001516007546125ed90919063ffffffff16565b94505b5050505b50919050565b611a6b7f241ecf16d79d0f8dbfb92cbc07fe17840425976cf0667f022fe9877caa831b08611a66611f9f565b610d93565b611aaa576040517f08c379a0000000000000000000000000000000000000000000000000000000008152600401611aa1906132c3565b60405180910390fd5b6000815111611aee576040517f08c379a0000000000000000000000000000000000000000000000000000000008152600401611ae590613363565b60405180910390fd5b60005b8151811015611bb5576000828281518110611b35577f4e487b7100000000000000000000000000000000000000000000000000000000600052603260045260246000fd5b60200260200101519050611b4881612464565b611b727f241ecf16d79d0f8dbfb92cbc07fe17840425976cf0667f022fe9877caa831b0882610d93565b611ba157611ba07f241ecf16d79d0f8dbfb92cbc07fe17840425976cf0667f022fe9877caa831b088261091f565b5b508080611bad906137b8565b915050611af1565b5050565b60007f01ffc9a7000000000000000000000000000000000000000000000000000000007bffffffffffffffffffffffffffffffffffffffffffffffffffffffff1916827bffffffffffffffffffffffffffffffffffffffffffffffffffffffff1916149050919050565b600260009054906101000a900460ff16611c72576040517f08c379a0000000000000000000000000000000000000000000000000000000008152600401611c6990613423565b60405180910390fd5b6000600260006101000a81548160ff0219169083151502179055506000600960008373ffffffffffffffffffffffffffffffffffffffff1673ffffffffffffffffffffffffffffffffffffffff1681526020019081526020016000206040518060c0016040529081600082015481526020016001820154815260200160028201548152602001600382015481526020016004820154815260200160058201548152505090506000611d2682600001516114ca565b90506000611d52670de0b6b3a76400006103e8611d4391906135f4565b836125d790919063ffffffff16565b90506000611d6d8460200151436125ed90919063ffffffff16565b90506000611d98600854611d8a84866125c190919063ffffffff16565b6125c190919063ffffffff16565b9050611db18560a001518261260390919063ffffffff16565b6007541015611dd657611dd38560a001516007546125ed90919063ffffffff16565b90505b6040518060c001604052808660000151815260200143815260200182815260200186600001518152602001858152602001611e1e8760a001518461260390919063ffffffff16565b815250600960008873ffffffffffffffffffffffffffffffffffffffff1673ffffffffffffffffffffffffffffffffffffffff168152602001908152602001600020600082015181600001556020820151816001015560408201518160020155606082015181600301556080820151816004015560a082015181600501559050506000811115611f7c57600660009054906101000a900473ffffffffffffffffffffffffffffffffffffffff1673ffffffffffffffffffffffffffffffffffffffff166340c10f1987836040518363ffffffff1660e01b8152600401611f059291906131c2565b600060405180830381600087803b158015611f1f57600080fd5b505af1158015611f33573d6000803e3d6000fd5b50505050808673ffffffffffffffffffffffffffffffffffffffff167f47cee97cb7acd717b3c0aa1435d004cd5b3c8c57d70dbceb4e4458bbd60e39d460405160405180910390a35b50505050506001600260006101000a81548160ff02191690831515021790555050565b600033905090565b611fb18282610d93565b61204057611fd68173ffffffffffffffffffffffffffffffffffffffff166014612619565b611fe48360001c6020612619565b604051602001611ff59291906130d5565b6040516020818303038152906040526040517f08c379a00000000000000000000000000000000000000000000000000000000081526004016120379190613221565b60405180910390fd5b5050565b61204e8282610d93565b61212057600160008084815260200190815260200160002060000160008373ffffffffffffffffffffffffffffffffffffffff1673ffffffffffffffffffffffffffffffffffffffff16815260200190815260200160002060006101000a81548160ff0219169083151502179055506120c5611f9f565b73ffffffffffffffffffffffffffffffffffffffff168173ffffffffffffffffffffffffffffffffffffffff16837f2f8788117e7eff1d82e926ec794901d17c78024a50270940304540a733656f0d60405160405180910390a45b5050565b61212e8282610d93565b1561220157600080600084815260200190815260200160002060000160008373ffffffffffffffffffffffffffffffffffffffff1673ffffffffffffffffffffffffffffffffffffffff16815260200190815260200160002060006101000a81548160ff0219169083151502179055506121a6611f9f565b73ffffffffffffffffffffffffffffffffffffffff168173ffffffffffffffffffffffffffffffffffffffff16837ff6391f5c32d9c69d2a47ea670b442974b53935d1edc7fd64eb21e047a839171b60405160405180910390a45b5050565b60008273ffffffffffffffffffffffffffffffffffffffff1682600067ffffffffffffffff811115612260577f4e487b7100000000000000000000000000000000000000000000000000000000600052604160045260246000fd5b6040519080825280601f01601f1916602001820160405280156122925781602001600182028036833780820191505090505b506040516122a091906130be565b60006040518083038185875af1925050503d80600081146122dd576040519150601f19603f3d011682016040523d82523d6000602084013e6122e2565b606091505b5050905080612326576040517f08c379a000000000000000000000000000000000000000000000000000000000815260040161231d906133c3565b60405180910390fd5b505050565b6000808573ffffffffffffffffffffffffffffffffffffffff166323b872dd86868660405160240161235f9392919061318b565b6040516020818303038152906040529060e01b6020820180517bffffffffffffffffffffffffffffffffffffffffffffffffffffffff83818316178352505050506040516123ad91906130be565b6000604051808303816000865af19150503d80600081146123ea576040519150601f19603f3d011682016040523d82523d6000602084013e6123ef565b606091505b509150915081801561241d575060008151148061241c57508080602001905181019061241b9190612bf6565b5b5b61245c576040517f08c379a000000000000000000000000000000000000000000000000000000000815260040161245390613403565b60405180910390fd5b505050505050565b8073ffffffffffffffffffffffffffffffffffffffff16600073ffffffffffffffffffffffffffffffffffffffff1614156124d4576040517f08c379a00000000000000000000000000000000000000000000000000000000081526004016124cb906132e3565b60405180910390fd5b50565b60005b6001805490508110156125485761253560018281548110612524577f4e487b7100000000000000000000000000000000000000000000000000000000600052603260045260246000fd5b906000526020600020015483612913565b8080612540906137b8565b9150506124da565b5050565b60005b6001805490508110156125bd576125aa60018281548110612599577f4e487b7100000000000000000000000000000000000000000000000000000000600052603260045260246000fd5b906000526020600020015483610948565b80806125b5906137b8565b91505061254f565b5050565b600081836125cf91906135f4565b905092915050565b600081836125e591906135c3565b905092915050565b600081836125fb919061364e565b905092915050565b60008183612611919061356d565b905092915050565b60606000600283600261262c91906135f4565b612636919061356d565b67ffffffffffffffff811115612675577f4e487b7100000000000000000000000000000000000000000000000000000000600052604160045260246000fd5b6040519080825280601f01601f1916602001820160405280156126a75781602001600182028036833780820191505090505b5090507f300000000000000000000000000000000000000000000000000000000000000081600081518110612705577f4e487b7100000000000000000000000000000000000000000000000000000000600052603260045260246000fd5b60200101907effffffffffffffffffffffffffffffffffffffffffffffffffffffffffffff1916908160001a9053507f78000000000000000000000000000000000000000000000000000000000000008160018151811061278f577f4e487b7100000000000000000000000000000000000000000000000000000000600052603260045260246000fd5b60200101907effffffffffffffffffffffffffffffffffffffffffffffffffffffffffffff1916908160001a905350600060018460026127cf91906135f4565b6127d9919061356d565b90505b60018111156128c5577f3031323334353637383961626364656600000000000000000000000000000000600f861660108110612841577f4e487b7100000000000000000000000000000000000000000000000000000000600052603260045260246000fd5b1a60f81b82828151811061287e577f4e487b7100000000000000000000000000000000000000000000000000000000600052603260045260246000fd5b60200101907effffffffffffffffffffffffffffffffffffffffffffffffffffffffffffff1916908160001a905350600485901c9450806128be9061375d565b90506127dc565b5060008414612909576040517f08c379a000000000000000000000000000000000000000000000000000000000815260040161290090613243565b60405180910390fd5b8091505092915050565b61291d8282612044565b5050565b600061293461292f84613504565b6134df565b9050808382526020820190508285602086028201111561295357600080fd5b60005b858110156129835781612969888261298d565b845260208401935060208301925050600181019050612956565b5050509392505050565b60008135905061299c81613c1c565b92915050565b6000815190506129b181613c1c565b92915050565b600082601f8301126129c857600080fd5b81356129d8848260208601612921565b91505092915050565b6000815190506129f081613c33565b92915050565b600081359050612a0581613c4a565b92915050565b600081359050612a1a81613c61565b92915050565b600081519050612a2f81613c78565b92915050565b600081359050612a4481613c8f565b92915050565b600081519050612a5981613c8f565b92915050565b600081519050612a6e81613ca6565b92915050565b600060208284031215612a8657600080fd5b6000612a948482850161298d565b91505092915050565b600060208284031215612aaf57600080fd5b6000612abd848285016129a2565b91505092915050565b60008060408385031215612ad957600080fd5b6000612ae78582860161298d565b9250506020612af88582860161298d565b9150509250929050565b600080600080600060a08688031215612b1a57600080fd5b6000612b288882890161298d565b9550506020612b398882890161298d565b9450506040612b4a8882890161298d565b9350506060612b5b8882890161298d565b9250506080612b6c8882890161298d565b9150509295509295909350565b60008060408385031215612b8c57600080fd5b6000612b9a8582860161298d565b9250506020612bab85828601612a35565b9150509250929050565b600060208284031215612bc757600080fd5b600082013567ffffffffffffffff811115612be157600080fd5b612bed848285016129b7565b91505092915050565b600060208284031215612c0857600080fd5b6000612c16848285016129e1565b91505092915050565b600060208284031215612c3157600080fd5b6000612c3f848285016129f6565b91505092915050565b60008060408385031215612c5b57600080fd5b6000612c69858286016129f6565b9250506020612c7a8582860161298d565b9150509250929050565b600060208284031215612c9657600080fd5b6000612ca484828501612a0b565b91505092915050565b600080600060608486031215612cc257600080fd5b6000612cd086828701612a20565b9350506020612ce186828701612a20565b9250506040612cf286828701612a5f565b9150509250925092565b600060208284031215612d0e57600080fd5b6000612d1c84828501612a35565b91505092915050565b600060208284031215612d3757600080fd5b6000612d4584828501612a4a565b91505092915050565b612d5781613682565b82525050565b612d6681613694565b82525050565b612d75816136a0565b82525050565b6000612d8682613530565b612d908185613546565b9350612da081856020860161372a565b80840191505092915050565b6000612db78261353b565b612dc18185613551565b9350612dd181856020860161372a565b612dda8161388e565b840191505092915050565b6000612df08261353b565b612dfa8185613562565b9350612e0a81856020860161372a565b80840191505092915050565b6000612e23602083613551565b9150612e2e8261389f565b602082019050919050565b6000612e46600d83613551565b9150612e51826138c8565b602082019050919050565b6000612e69600983613551565b9150612e74826138f1565b602082019050919050565b6000612e8c600c83613551565b9150612e978261391a565b602082019050919050565b6000612eaf600c83613551565b9150612eba82613943565b602082019050919050565b6000612ed2601d83613551565b9150612edd8261396c565b602082019050919050565b6000612ef5600d83613551565b9150612f0082613995565b602082019050919050565b6000612f18601083613551565b9150612f23826139be565b602082019050919050565b6000612f3b601983613551565b9150612f46826139e7565b602082019050919050565b6000612f5e601783613551565b9150612f6982613a10565b602082019050919050565b6000612f81600e83613551565b9150612f8c82613a39565b602082019050919050565b6000612fa4600a83613551565b9150612faf82613a62565b602082019050919050565b6000612fc7602383613551565b9150612fd282613a8b565b604082019050919050565b6000612fea601783613562565b9150612ff582613ada565b601782019050919050565b600061300d601083613551565b915061301882613b03565b602082019050919050565b6000613030602483613551565b915061303b82613b2c565b604082019050919050565b6000613053601f83613551565b915061305e82613b7b565b602082019050919050565b6000613076601183613562565b915061308182613ba4565b601182019050919050565b6000613099602f83613551565b91506130a482613bcd565b604082019050919050565b6130b881613710565b82525050565b60006130ca8284612d7b565b915081905092915050565b60006130e082612fdd565b91506130ec8285612de5565b91506130f782613069565b91506131038284612de5565b91508190509392505050565b60006020820190506131246000830184612d4e565b92915050565b600060c08201905061313f6000830189612d4e565b61314c6020830188612d4e565b6131596040830187612d4e565b6131666060830186612d4e565b6131736080830185612d4e565b61318060a0830184612d4e565b979650505050505050565b60006060820190506131a06000830186612d4e565b6131ad6020830185612d4e565b6131ba60408301846130af565b949350505050565b60006040820190506131d76000830185612d4e565b6131e460208301846130af565b9392505050565b60006020820190506132006000830184612d5d565b92915050565b600060208201905061321b6000830184612d6c565b92915050565b6000602082019050818103600083015261323b8184612dac565b905092915050565b6000602082019050818103600083015261325c81612e16565b9050919050565b6000602082019050818103600083015261327c81612e39565b9050919050565b6000602082019050818103600083015261329c81612e5c565b9050919050565b600060208201905081810360008301526132bc81612e7f565b9050919050565b600060208201905081810360008301526132dc81612ea2565b9050919050565b600060208201905081810360008301526132fc81612ec5565b9050919050565b6000602082019050818103600083015261331c81612ee8565b9050919050565b6000602082019050818103600083015261333c81612f0b565b9050919050565b6000602082019050818103600083015261335c81612f2e565b9050919050565b6000602082019050818103600083015261337c81612f51565b9050919050565b6000602082019050818103600083015261339c81612f74565b9050919050565b600060208201905081810360008301526133bc81612f97565b9050919050565b600060208201905081810360008301526133dc81612fba565b9050919050565b600060208201905081810360008301526133fc81613000565b9050919050565b6000602082019050818103600083015261341c81613023565b9050919050565b6000602082019050818103600083015261343c81613046565b9050919050565b6000602082019050818103600083015261345c8161308c565b9050919050565b600060208201905061347860008301846130af565b92915050565b600060c08201905061349360008301896130af565b6134a060208301886130af565b6134ad60408301876130af565b6134ba60608301866130af565b6134c760808301856130af565b6134d460a08301846130af565b979650505050505050565b60006134e96134fa565b90506134f58282613787565b919050565b6000604051905090565b600067ffffffffffffffff82111561351f5761351e61385f565b5b602082029050602081019050919050565b600081519050919050565b600081519050919050565b600081905092915050565b600082825260208201905092915050565b600081905092915050565b600061357882613710565b915061358383613710565b9250827fffffffffffffffffffffffffffffffffffffffffffffffffffffffffffffffff038211156135b8576135b7613801565b5b828201905092915050565b60006135ce82613710565b91506135d983613710565b9250826135e9576135e8613830565b5b828204905092915050565b60006135ff82613710565b915061360a83613710565b9250817fffffffffffffffffffffffffffffffffffffffffffffffffffffffffffffffff048311821515161561364357613642613801565b5b828202905092915050565b600061365982613710565b915061366483613710565b92508282101561367757613676613801565b5b828203905092915050565b600061368d826136f0565b9050919050565b60008115159050919050565b6000819050919050565b60007fffffffff0000000000000000000000000000000000000000000000000000000082169050919050565b60006dffffffffffffffffffffffffffff82169050919050565b600073ffffffffffffffffffffffffffffffffffffffff82169050919050565b6000819050919050565b600063ffffffff82169050919050565b60005b8381101561374857808201518184015260208101905061372d565b83811115613757576000848401525b50505050565b600061376882613710565b9150600082141561377c5761377b613801565b5b600182039050919050565b6137908261388e565b810181811067ffffffffffffffff821117156137af576137ae61385f565b5b80604052505050565b60006137c382613710565b91507fffffffffffffffffffffffffffffffffffffffffffffffffffffffffffffffff8214156137f6576137f5613801565b5b600182019050919050565b7f4e487b7100000000000000000000000000000000000000000000000000000000600052601160045260246000fd5b7f4e487b7100000000000000000000000000000000000000000000000000000000600052601260045260246000fd5b7f4e487b7100000000000000000000000000000000000000000000000000000000600052604160045260246000fd5b6000601f19601f8301169050919050565b7f537472696e67733a20686578206c656e67746820696e73756666696369656e74600082015250565b7f686173206e6f7420737461727400000000000000000000000000000000000000600082015250565b7f6e6f207374616b65640000000000000000000000000000000000000000000000600082015250565b7f6f6e6c79207374616b696e670000000000000000000000000000000000000000600082015250565b7f6f6e6c79206d616e616765720000000000000000000000000000000000000000600082015250565b7f5a65726f2061646472657373206973206e6f7420737570706f72746564000000600082015250565b7f636865636b206164647265737300000000000000000000000000000000000000600082015250565b7f5468697320697320616e206f776e657200000000000000000000000000000000600082015250565b7f546865206164647265737320776173206e6f7420666f756e6400000000000000600082015250565b7f5f75736572732063616e206e6f7420626520656d707479000000000000000000600082015250565b7f6561726e6564206c617267657374000000000000000000000000000000000000600082015250565b7f6f6e6c79206f776e657200000000000000000000000000000000000000000000600082015250565b7f5472616e7366657248656c7065723a204554485f5452414e534645525f46414960008201527f4c45440000000000000000000000000000000000000000000000000000000000602082015250565b7f416363657373436f6e74726f6c3a206163636f756e7420000000000000000000600082015250565b7f68616420616c726561647920696e697400000000000000000000000000000000600082015250565b7f5472616e7366657248656c7065723a205452414e534645525f46524f4d5f464160008201527f494c454400000000000000000000000000000000000000000000000000000000602082015250565b7f5265656e7472616e637947756172643a207265656e7472616e742063616c6c00600082015250565b7f206973206d697373696e6720726f6c6520000000000000000000000000000000600082015250565b7f416363657373436f6e74726f6c3a2063616e206f6e6c792072656e6f756e636560008201527f20726f6c657320666f722073656c660000000000000000000000000000000000602082015250565b613c2581613682565b8114613c3057600080fd5b50565b613c3c81613694565b8114613c4757600080fd5b50565b613c53816136a0565b8114613c5e57600080fd5b50565b613c6a816136aa565b8114613c7557600080fd5b50565b613c81816136d6565b8114613c8c57600080fd5b50565b613c9881613710565b8114613ca357600080fd5b50565b613caf8161371a565b8114613cba57600080fd5b5056fea2646970667358221220500bf12ebe5996170d4eb1bee014dedea0e20c60d736477cf0efefdf698f0ee364736f6c63430008020033",
  "linkReferences": {},
  "deployedLinkReferences": {}
}