{
  "_format": "hh-sol-artifact-1",
  "contractName": "StakingRewardReleaseV2",
  "sourceName": "contracts/StakingRewardReleaseV2.sol",
  "abi": [
    {
      "anonymous": false,
      "inputs": [
        {
          "indexed": true,
          "internalType": "address",
          "name": "sender",
          "type": "address"
        },
        {
          "indexed": true,
          "internalType": "address",
          "name": "receiptor",
          "type": "address"
        },
        {
          "indexed": true,
          "internalType": "uint256",
          "name": "amount",
          "type": "uint256"
        }
      ],
      "name": "AddReward",
      "type": "event"
    },
    {
      "anonymous": false,
      "inputs": [
        {
          "indexed": true,
          "internalType": "address",
          "name": "receiptor",
          "type": "address"
        },
        {
          "indexed": true,
          "internalType": "uint256",
          "name": "recordBlock",
          "type": "uint256"
        },
        {
          "indexed": true,
          "internalType": "uint256",
          "name": "amount",
          "type": "uint256"
        }
      ],
      "name": "Claim",
      "type": "event"
    },
    {
      "anonymous": false,
      "inputs": [
        {
          "indexed": true,
          "internalType": "uint256",
          "name": "level",
          "type": "uint256"
        },
        {
          "indexed": true,
          "internalType": "uint256",
          "name": "scAmount",
          "type": "uint256"
        },
        {
          "indexed": true,
          "internalType": "uint256",
          "name": "speed",
          "type": "uint256"
        },
        {
          "indexed": false,
          "internalType": "address",
          "name": "sender",
          "type": "address"
        }
      ],
      "name": "ConfigLevel",
      "type": "event"
    },
    {
      "anonymous": false,
      "inputs": [
        {
          "indexed": true,
          "internalType": "address",
          "name": "previousOwner",
          "type": "address"
        },
        {
          "indexed": true,
          "internalType": "address",
          "name": "newOwner",
          "type": "address"
        }
      ],
      "name": "OwnershipTransferred",
      "type": "event"
    },
    {
      "anonymous": false,
      "inputs": [
        {
          "indexed": true,
          "internalType": "address",
          "name": "receiptor",
          "type": "address"
        },
        {
          "indexed": true,
          "internalType": "uint256",
          "name": "recordBlock",
          "type": "uint256"
        },
        {
          "indexed": true,
          "internalType": "uint256",
          "name": "newLevel",
          "type": "uint256"
        },
        {
          "indexed": false,
          "internalType": "address",
          "name": "sender",
          "type": "address"
        }
      ],
      "name": "SpeedUp",
      "type": "event"
    },
    {
      "inputs": [],
      "name": "SC",
      "outputs": [
        {
          "internalType": "address",
          "name": "",
          "type": "address"
        }
      ],
      "stateMutability": "view",
      "type": "function"
    },
    {
      "inputs": [],
      "name": "Staking",
      "outputs": [
        {
          "internalType": "address",
          "name": "",
          "type": "address"
        }
      ],
      "stateMutability": "view",
      "type": "function"
    },
    {
      "inputs": [],
      "name": "THS",
      "outputs": [
        {
          "internalType": "address",
          "name": "",
          "type": "address"
        }
      ],
      "stateMutability": "view",
      "type": "function"
    },
    {
      "inputs": [
        {
          "internalType": "address",
          "name": "_receiptor",
          "type": "address"
        },
        {
          "internalType": "uint256",
          "name": "_rewardAmount",
          "type": "uint256"
        }
      ],
      "name": "addReward",
      "outputs": [],
      "stateMutability": "nonpayable",
      "type": "function"
    },
    {
      "inputs": [],
      "name": "alreadySyncBaseData",
      "outputs": [
        {
          "internalType": "bool",
          "name": "",
          "type": "bool"
        }
      ],
      "stateMutability": "view",
      "type": "function"
    },
    {
      "inputs": [
        {
          "internalType": "address",
          "name": "",
          "type": "address"
        }
      ],
      "name": "alreadySynced",
      "outputs": [
        {
          "internalType": "bool",
          "name": "",
          "type": "bool"
        }
      ],
      "stateMutability": "view",
      "type": "function"
    },
    {
      "inputs": [
        {
          "internalType": "address",
          "name": "_user",
          "type": "address"
        },
        {
          "internalType": "uint256",
          "name": "_rewardBLock",
          "type": "uint256"
        },
        {
          "internalType": "uint256",
          "name": "_expectSpeedLevel",
          "type": "uint256"
        }
      ],
      "name": "calculateScAmount",
      "outputs": [
        {
          "internalType": "uint256",
          "name": "scAmount_",
          "type": "uint256"
        }
      ],
      "stateMutability": "view",
      "type": "function"
    },
    {
      "inputs": [
        {
          "internalType": "uint256",
          "name": "_recordBlock",
          "type": "uint256"
        }
      ],
      "name": "claim",
      "outputs": [],
      "stateMutability": "nonpayable",
      "type": "function"
    },
    {
      "inputs": [
        {
          "internalType": "uint256",
          "name": "_level",
          "type": "uint256"
        },
        {
          "internalType": "uint256",
          "name": "_burnScAmount",
          "type": "uint256"
        },
        {
          "internalType": "uint256",
          "name": "_speed",
          "type": "uint256"
        },
        {
          "internalType": "uint256",
          "name": "_thsAsUsdtStart",
          "type": "uint256"
        },
        {
          "internalType": "uint256",
          "name": "_thsAsUsdtEnd",
          "type": "uint256"
        }
      ],
      "name": "configLevel",
      "outputs": [],
      "stateMutability": "nonpayable",
      "type": "function"
    },
    {
      "inputs": [
        {
          "internalType": "uint256",
          "name": "_size",
          "type": "uint256"
        },
        {
          "internalType": "uint256[]",
          "name": "_levels",
          "type": "uint256[]"
        },
        {
          "internalType": "uint256[]",
          "name": "_burnScAmounts",
          "type": "uint256[]"
        },
        {
          "internalType": "uint256[]",
          "name": "_speeds",
          "type": "uint256[]"
        },
        {
          "internalType": "uint256[]",
          "name": "_thsAsUsdtStarts",
          "type": "uint256[]"
        },
        {
          "internalType": "uint256[]",
          "name": "_thsAsUsdtEnds",
          "type": "uint256[]"
        }
      ],
      "name": "configLevelBatch",
      "outputs": [],
      "stateMutability": "nonpayable",
      "type": "function"
    },
    {
      "inputs": [],
      "name": "currentVersion",
      "outputs": [
        {
          "internalType": "uint256",
          "name": "",
          "type": "uint256"
        }
      ],
      "stateMutability": "view",
      "type": "function"
    },
    {
      "inputs": [],
      "name": "earnedTotal",
      "outputs": [
        {
          "internalType": "uint256",
          "name": "",
          "type": "uint256"
        }
      ],
      "stateMutability": "view",
      "type": "function"
    },
    {
      "inputs": [],
      "name": "getAllSpeedLevel",
      "outputs": [
        {
          "internalType": "uint256",
          "name": "size_",
          "type": "uint256"
        },
        {
          "components": [
            {
              "internalType": "uint256",
              "name": "level",
              "type": "uint256"
            },
            {
              "internalType": "uint256",
              "name": "burnAmount",
              "type": "uint256"
            },
            {
              "internalType": "uint256",
              "name": "releaseSpeed",
              "type": "uint256"
            }
          ],
          "internalType": "struct IStakingRewardRelease.SpeedLevelInfo[]",
          "name": "levelList_",
          "type": "tuple[]"
        }
      ],
      "stateMutability": "view",
      "type": "function"
    },
    {
      "inputs": [
        {
          "internalType": "address",
          "name": "_user",
          "type": "address"
        },
        {
          "internalType": "uint256",
          "name": "_rewardBlock",
          "type": "uint256"
        }
      ],
      "name": "getAllSpeedLevelSpecifyReward",
      "outputs": [
        {
          "internalType": "uint256",
          "name": "size_",
          "type": "uint256"
        },
        {
          "components": [
            {
              "internalType": "uint256",
              "name": "level",
              "type": "uint256"
            },
            {
              "internalType": "uint256",
              "name": "burnAmount",
              "type": "uint256"
            },
            {
              "internalType": "uint256",
              "name": "releaseSpeed",
              "type": "uint256"
            },
            {
              "internalType": "uint256",
              "name": "thsAsUsdtStart",
              "type": "uint256"
            },
            {
              "internalType": "uint256",
              "name": "thsAsUsdtEnd",
              "type": "uint256"
            }
          ],
          "internalType": "struct StakingRewardReleaseV2.SpeedLevelInfoV3[]",
          "name": "levelList_",
          "type": "tuple[]"
        }
      ],
      "stateMutability": "view",
      "type": "function"
    },
    {
      "inputs": [],
      "name": "getAllSpeedLevel_new",
      "outputs": [
        {
          "internalType": "uint256",
          "name": "size_",
          "type": "uint256"
        },
        {
          "components": [
            {
              "internalType": "uint256",
              "name": "level",
              "type": "uint256"
            },
            {
              "internalType": "uint256",
              "name": "burnAmount",
              "type": "uint256"
            },
            {
              "internalType": "uint256",
              "name": "releaseSpeed",
              "type": "uint256"
            },
            {
              "internalType": "uint256",
              "name": "thsAsUsdtStart",
              "type": "uint256"
            },
            {
              "internalType": "uint256",
              "name": "thsAsUsdtEnd",
              "type": "uint256"
            }
          ],
          "internalType": "struct StakingRewardReleaseV2.SpeedLevelInfoV3[]",
          "name": "levelList_",
          "type": "tuple[]"
        }
      ],
      "stateMutability": "view",
      "type": "function"
    },
    {
      "inputs": [
        {
          "internalType": "address",
          "name": "_receiptor",
          "type": "address"
        },
        {
          "internalType": "uint256",
          "name": "_start",
          "type": "uint256"
        },
        {
          "internalType": "uint256",
          "name": "_size",
          "type": "uint256"
        }
      ],
      "name": "getRewardByPage",
      "outputs": [
        {
          "internalType": "uint256",
          "name": "resultSize_",
          "type": "uint256"
        },
        {
          "components": [
            {
              "internalType": "uint256",
              "name": "rewardTotal",
              "type": "uint256"
            },
            {
              "internalType": "uint256",
              "name": "earnedTotal",
              "type": "uint256"
            },
            {
              "internalType": "uint256",
              "name": "recordTimestamp",
              "type": "uint256"
            },
            {
              "internalType": "uint256",
              "name": "recordBlock",
              "type": "uint256"
            },
            {
              "internalType": "uint256",
              "name": "lastEarnedBlock",
              "type": "uint256"
            },
            {
              "internalType": "uint256",
              "name": "lastEarnedAmount",
              "type": "uint256"
            },
            {
              "internalType": "uint256",
              "name": "speedLevel",
              "type": "uint256"
            }
          ],
          "internalType": "struct IStakingRewardRelease.RewardInfo[]",
          "name": "rewardInfoList_",
          "type": "tuple[]"
        },
        {
          "internalType": "uint256[]",
          "name": "pendingList_",
          "type": "uint256[]"
        }
      ],
      "stateMutability": "view",
      "type": "function"
    },
    {
      "inputs": [
        {
          "internalType": "address",
          "name": "_receiptor",
          "type": "address"
        },
        {
          "internalType": "uint256",
          "name": "_start",
          "type": "uint256"
        },
        {
          "internalType": "uint256",
          "name": "_size",
          "type": "uint256"
        }
      ],
      "name": "getRewardByPageNew",
      "outputs": [
        {
          "internalType": "uint256",
          "name": "resultSize_",
          "type": "uint256"
        },
        {
          "components": [
            {
              "internalType": "uint256",
              "name": "rewardTotal",
              "type": "uint256"
            },
            {
              "internalType": "uint256",
              "name": "earnedTotal",
              "type": "uint256"
            },
            {
              "internalType": "uint256",
              "name": "recordTimestamp",
              "type": "uint256"
            },
            {
              "internalType": "uint256",
              "name": "recordBlock",
              "type": "uint256"
            },
            {
              "internalType": "uint256",
              "name": "lastEarnedBlock",
              "type": "uint256"
            },
            {
              "internalType": "uint256",
              "name": "lastEarnedAmount",
              "type": "uint256"
            },
            {
              "internalType": "uint256",
              "name": "speedLevel",
              "type": "uint256"
            }
          ],
          "internalType": "struct IStakingRewardRelease.RewardInfo[]",
          "name": "rewardInfoList_",
          "type": "tuple[]"
        },
        {
          "internalType": "uint256[]",
          "name": "pendingList_",
          "type": "uint256[]"
        },
        {
          "internalType": "uint256[]",
          "name": "speedList_",
          "type": "uint256[]"
        }
      ],
      "stateMutability": "view",
      "type": "function"
    },
    {
      "inputs": [
        {
          "internalType": "address",
          "name": "_THS",
          "type": "address"
        },
        {
          "internalType": "address",
          "name": "_SC",
          "type": "address"
        },
        {
          "internalType": "address",
          "name": "_Staking",
          "type": "address"
        },
        {
          "internalType": "address",
          "name": "_oldRelease",
          "type": "address"
        }
      ],
      "name": "initialize",
      "outputs": [],
      "stateMutability": "nonpayable",
      "type": "function"
    },
    {
      "inputs": [],
      "name": "initializeFlag",
      "outputs": [
        {
          "internalType": "bool",
          "name": "",
          "type": "bool"
        }
      ],
      "stateMutability": "view",
      "type": "function"
    },
    {
      "inputs": [
        {
          "internalType": "address",
          "name": "_user",
          "type": "address"
        }
      ],
      "name": "isRequireSyncOldData",
      "outputs": [
        {
          "internalType": "bool",
          "name": "",
          "type": "bool"
        }
      ],
      "stateMutability": "view",
      "type": "function"
    },
    {
      "inputs": [
        {
          "internalType": "uint256",
          "name": "",
          "type": "uint256"
        }
      ],
      "name": "levelInfoOf",
      "outputs": [
        {
          "internalType": "uint256",
          "name": "level",
          "type": "uint256"
        },
        {
          "internalType": "uint256",
          "name": "burnAmount",
          "type": "uint256"
        },
        {
          "internalType": "uint256",
          "name": "releaseSpeed",
          "type": "uint256"
        }
      ],
      "stateMutability": "view",
      "type": "function"
    },
    {
      "inputs": [
        {
          "internalType": "uint256",
          "name": "",
          "type": "uint256"
        }
      ],
      "name": "levelInfoOfV3",
      "outputs": [
        {
          "internalType": "uint256",
          "name": "level",
          "type": "uint256"
        },
        {
          "internalType": "uint256",
          "name": "burnAmount",
          "type": "uint256"
        },
        {
          "internalType": "uint256",
          "name": "releaseSpeed",
          "type": "uint256"
        },
        {
          "internalType": "uint256",
          "name": "thsAsUsdtStart",
          "type": "uint256"
        },
        {
          "internalType": "uint256",
          "name": "thsAsUsdtEnd",
          "type": "uint256"
        }
      ],
      "stateMutability": "view",
      "type": "function"
    },
    {
      "inputs": [],
      "name": "oldReleaseAddr",
      "outputs": [
        {
          "internalType": "address",
          "name": "",
          "type": "address"
        }
      ],
      "stateMutability": "view",
      "type": "function"
    },
    {
      "inputs": [],
      "name": "owner",
      "outputs": [
        {
          "internalType": "address",
          "name": "",
          "type": "address"
        }
      ],
      "stateMutability": "view",
      "type": "function"
    },
    {
      "inputs": [
        {
          "internalType": "address",
          "name": "_receiptor",
          "type": "address"
        },
        {
          "internalType": "uint256",
          "name": "_recordBlock",
          "type": "uint256"
        }
      ],
      "name": "pendingReward",
      "outputs": [
        {
          "internalType": "uint256",
          "name": "pendingReward_",
          "type": "uint256"
        }
      ],
      "stateMutability": "view",
      "type": "function"
    },
    {
      "inputs": [],
      "name": "renounceOwnership",
      "outputs": [],
      "stateMutability": "nonpayable",
      "type": "function"
    },
    {
      "inputs": [
        {
          "internalType": "address",
          "name": "",
          "type": "address"
        },
        {
          "internalType": "uint256",
          "name": "",
          "type": "uint256"
        }
      ],
      "name": "rewardInfoOnBlock",
      "outputs": [
        {
          "internalType": "uint256",
          "name": "rewardTotal",
          "type": "uint256"
        },
        {
          "internalType": "uint256",
          "name": "earnedTotal",
          "type": "uint256"
        },
        {
          "internalType": "uint256",
          "name": "recordTimestamp",
          "type": "uint256"
        },
        {
          "internalType": "uint256",
          "name": "recordBlock",
          "type": "uint256"
        },
        {
          "internalType": "uint256",
          "name": "lastEarnedBlock",
          "type": "uint256"
        },
        {
          "internalType": "uint256",
          "name": "lastEarnedAmount",
          "type": "uint256"
        },
        {
          "internalType": "uint256",
          "name": "speedLevel",
          "type": "uint256"
        }
      ],
      "stateMutability": "view",
      "type": "function"
    },
    {
      "inputs": [
        {
          "internalType": "address",
          "name": "_lpAddr",
          "type": "address"
        }
      ],
      "name": "setThsUsdtLp",
      "outputs": [],
      "stateMutability": "nonpayable",
      "type": "function"
    },
    {
      "inputs": [
        {
          "internalType": "address",
          "name": "_usdtAddr",
          "type": "address"
        }
      ],
      "name": "setUsdt",
      "outputs": [],
      "stateMutability": "nonpayable",
      "type": "function"
    },
    {
      "inputs": [
        {
          "internalType": "uint256",
          "name": "_version",
          "type": "uint256"
        }
      ],
      "name": "setVersion",
      "outputs": [],
      "stateMutability": "nonpayable",
      "type": "function"
    },
    {
      "inputs": [
        {
          "internalType": "uint256",
          "name": "_block",
          "type": "uint256"
        },
        {
          "internalType": "uint256",
          "name": "_expectSpeedLevel",
          "type": "uint256"
        }
      ],
      "name": "speedUp",
      "outputs": [],
      "stateMutability": "nonpayable",
      "type": "function"
    },
    {
      "inputs": [
        {
          "internalType": "address",
          "name": "_user",
          "type": "address"
        },
        {
          "internalType": "uint256",
          "name": "_rewardBlock",
          "type": "uint256"
        }
      ],
      "name": "stakedRewardAsUsdt",
      "outputs": [
        {
          "internalType": "uint256",
          "name": "rewardTotal_",
          "type": "uint256"
        },
        {
          "internalType": "uint256",
          "name": "rewardAsUsdt_",
          "type": "uint256"
        }
      ],
      "stateMutability": "view",
      "type": "function"
    },
    {
      "inputs": [],
      "name": "syncBaseData",
      "outputs": [],
      "stateMutability": "nonpayable",
      "type": "function"
    },
    {
      "inputs": [],
      "name": "syncOldData",
      "outputs": [],
      "stateMutability": "nonpayable",
      "type": "function"
    },
    {
      "inputs": [],
      "name": "thsUsdtLpAddr",
      "outputs": [
        {
          "internalType": "address",
          "name": "",
          "type": "address"
        }
      ],
      "stateMutability": "view",
      "type": "function"
    },
    {
      "inputs": [
        {
          "internalType": "address",
          "name": "newOwner",
          "type": "address"
        }
      ],
      "name": "transferOwnership",
      "outputs": [],
      "stateMutability": "nonpayable",
      "type": "function"
    },
    {
      "inputs": [],
      "name": "usdtAddr",
      "outputs": [
        {
          "internalType": "address",
          "name": "",
          "type": "address"
        }
      ],
      "stateMutability": "view",
      "type": "function"
    },
    {
      "inputs": [
        {
          "internalType": "uint256",
          "name": "_thsAmount",
          "type": "uint256"
        }
      ],
      "name": "viewAsUsdt",
      "outputs": [
        {
          "internalType": "uint256",
          "name": "usdtAmount_",
          "type": "uint256"
        }
      ],
      "stateMutability": "view",
      "type": "function"
    },
    {
      "inputs": [
        {
          "internalType": "address",
          "name": "_token",
          "type": "address"
        },
        {
          "internalType": "uint256",
          "name": "_amount",
          "type": "uint256"
        },
        {
          "internalType": "address",
          "name": "_to",
          "type": "address"
        }
      ],
      "name": "withdrawToken",
      "outputs": [],
      "stateMutability": "nonpayable",
      "type": "function"
    }
  ],
  "bytecode": "0x608060405234801561001057600080fd5b506138a5806100206000396000f3fe608060405234801561001057600080fd5b506004361061023d5760003560e01c80639322a5c41161013b578063c1701116116100b8578063ec1bfe751161007c578063ec1bfe7514610622578063f2fde38b14610635578063f430cf0d14610648578063f57df22e1461065b578063f8c8765e1461066e5761023d565b8063c170111614610534578063d52931be14610557578063d852438c146105e9578063dff935d0146105fc578063eabf75dc1461060f5761023d565b8063ac12ba72116100ff578063ac12ba72146104ba578063aed4680c146104e2578063ba6b03fe146104eb578063bc7f6bc61461050d578063c0781b87146105215761023d565b80639322a5c4146104415780639d888e86146104745780639e2e86671461047d5780639feb8f5014610491578063a5781589146104a45761023d565b806343cbfd74116101c95780635a1389111161018d5780635a138911146103b8578063715018a6146103cb57806374255b68146103d35780638a5398a91461041d5780638da5cb5b146104305761023d565b806343cbfd74146103615780634e0a795f146103825780635072d02e1461038a578063523114301461039d57806358979bfe146103a55761023d565b8063379607f511610210578063379607f5146103025780633ccdbb2814610315578063408def1e1461032857806341762c621461033b578063422759661461034e5761023d565b80630c10639c1461024257806311a5d883146102ac5780631554e1ce146102c15780631640d7cf146102ec575b600080fd5b61027f610250366004613114565b60a360205260009081526040902080546001820154600283015460038401546004909401549293919290919085565b604080519586526020860194909452928401919091526060830152608082015260a0015b60405180910390f35b6102bf6102ba36600461332a565b610681565b005b60a5546102d4906001600160a01b031681565b6040516001600160a01b0390911681526020016102a3565b6102f461085c565b6040516102a3929190613688565b6102bf610310366004613114565b6109b8565b6102bf61032336600461303c565b610aea565b6102bf610336366004613114565b610c3d565b6102bf61034936600461341f565b610c6c565b6102f461035c366004613011565b610caa565b61037461036f36600461307d565b610e7c565b6040519081526020016102a3565b6102bf6110cb565b6097546102d4906001600160a01b031681565b6102bf611305565b6102bf6103b3366004612f7e565b61150c565b6099546102d4906001600160a01b031681565b6102bf611558565b6104026103e1366004613114565b609d6020526000908152604090208054600182015460029092015490919083565b604080519384526020840192909252908201526060016102a3565b6102bf61042b366004612f7e565b61158e565b6033546001600160a01b03166102d4565b61046461044f366004612f7e565b60a16020526000908152604090205460ff1681565b60405190151581526020016102a3565b61037460a65481565b60a25461046490600160a01b900460ff1681565b6102bf61049f366004613011565b6115da565b6104ac611799565b6040516102a39291906136fe565b6104cd6104c8366004613011565b6117f5565b604080519283526020830191909152016102a3565b61037460a05481565b6104fe6104f936600461307d565b611836565b6040516102a393929190613609565b609a5461046490600160a01b900460ff1681565b60a4546102d4906001600160a01b031681565b61054761054236600461307d565b61188d565b6040516102a3949392919061363e565b6105b4610565366004613011565b609b602052816000526040600020602052806000526040600020600091509150508060000154908060010154908060020154908060030154908060040154908060050154908060060154905087565b604080519788526020880196909652948601939093526060850191909152608084015260a083015260c082015260e0016102a3565b6098546102d4906001600160a01b031681565b61037461060a366004613114565b611d59565b61046461061d366004612f7e565b611fa3565b6102bf6106303660046133fe565b612067565b6102bf610643366004612f7e565b6122a5565b610374610656366004613011565b612340565b609a546102d4906001600160a01b031681565b6102bf61067c366004612fb6565b61255d565b6033546001600160a01b031633146106b45760405162461bcd60e51b81526004016106ab90613589565b60405180910390fd5b600086116106f55760405162461bcd60e51b815260206004820152600e60248201526d5f73697a6520746f6f206c65737360901b60448201526064016106ab565b8451861480156107055750835186145b80156107115750825186145b801561071d5750815186145b80156107295750805186145b6107665760405162461bcd60e51b815260206004820152600e60248201526d0e6d2f4ca40dcdee840dac2e8c6d60931b60448201526064016106ab565b60005b868110156108535761084186828151811061079457634e487b7160e01b600052603260045260246000fd5b60200260200101518683815181106107bc57634e487b7160e01b600052603260045260246000fd5b60200260200101518684815181106107e457634e487b7160e01b600052603260045260246000fd5b602002602001015186858151811061080c57634e487b7160e01b600052603260045260246000fd5b602002602001015186868151811061083457634e487b7160e01b600052603260045260246000fd5b6020026020010151612755565b8061084b81613813565b915050610769565b50505050505050565b6000606061086a609e61278d565b91508167ffffffffffffffff81111561089357634e487b7160e01b600052604160045260246000fd5b6040519080825280602002602001820160405280156108cc57816020015b6108b9612e35565b8152602001906001900390816108b15790505b509050816108dd57600091506109b4565b60006108e9609e61279d565b905060005b838110156109b157600082828151811061091857634e487b7160e01b600052603260045260246000fd5b6020026020010151905060a360008281526020019081526020016000206040518060a00160405290816000820154815260200160018201548152602001600282015481526020016003820154815260200160048201548152505084838151811061099257634e487b7160e01b600052603260045260246000fd5b60200260200101819052505080806109a990613813565b9150506108ee565b50505b9091565b609754604051635d3581ff60e11b815233916000916001600160a01b039091169063ba6b03fe906109f29085908590600190600401613539565b60006040518083038186803b158015610a0a57600080fd5b505afa158015610a1e573d6000803e3d6000fd5b505050506040513d6000823e601f3d908101601f19168201604052610a469190810190613144565b50909150508015610a89576001600160a01b038216600090815260a1602052604090205460ff16610a895760405162461bcd60e51b81526004016106ab9061355a565b60a254600160a01b900460ff16610adb5760405162461bcd60e51b815260206004820152601660248201527568617661206e6f742073796e6320626173654461746160501b60448201526064016106ab565b610ae533846127aa565b505050565b6033546001600160a01b03163314610b145760405162461bcd60e51b81526004016106ab90613589565b60026065541415610b675760405162461bcd60e51b815260206004820152601f60248201527f5265656e7472616e637947756172643a207265656e7472616e742063616c6c0060448201526064016106ab565b60026065556001600160a01b038316610b9d576000808311610b895747610b8b565b825b9050610b978282612914565b50610c33565b6000808311610c22576040516370a0823160e01b81523060048201526001600160a01b038516906370a082319060240160206040518083038186803b158015610be557600080fd5b505afa158015610bf9573d6000803e3d6000fd5b505050506040513d601f19601f82011682018060405250810190610c1d919061312c565b610c24565b825b9050610c318483836129dd565b505b5050600160655550565b6033546001600160a01b03163314610c675760405162461bcd60e51b81526004016106ab90613589565b60a655565b6033546001600160a01b03163314610c965760405162461bcd60e51b81526004016106ab90613589565b610ca38585858585612755565b5050505050565b60006060610cb8609e61278d565b610cf7576040805160008082526020820190925281610ced565b610cda612e35565b815260200190600190039081610cd25790505b5091509150610e75565b604080516008808252610120820190925290925082816020015b610d19612e35565b815260200190600190039081610d115790505090506000610d3a609e61279d565b6001600160a01b0386166000908152609b602090815260408083208884529091528120805492935091610d6c90611d59565b90506000805b610d7c609e61278d565b811015610e6f576000858281518110610da557634e487b7160e01b600052603260045260246000fd5b60200260200101519050600060a360008381526020019081526020016000206040518060a0016040529081600082015481526020016001820154815260200160028201548152602001600382015481526020016004820154815250509050848160600151108015610e1a575080608001518511155b15610e5a5780888581518110610e4057634e487b7160e01b600052603260045260246000fd5b60200260200101819052508380610e5690613813565b9450505b50508080610e6790613813565b915050610d72565b50505050505b9250929050565b6001600160a01b0383166000908152609b60209081526040808320858452825280832084845260a39092528083206006830154845290832082548490610ec190611d59565b9050826003015481118015610eda575082600401548111155b610f265760405162461bcd60e51b815260206004820152601f60248201527f7374616b6552657761726420616e64206c6576656c206e6f74206d617463680060448201526064016106ab565b8260020154826002015411610f725760405162461bcd60e51b815260206004820152601260248201527118da1958dac81c995b19585cd954dc19595960721b60448201526064016106ab565b610f7a612e35565b6000610f86609e61279d565b905060005b610f95609e61278d565b811015611062576000828281518110610fbe57634e487b7160e01b600052603260045260246000fd5b602090810291909101810151600081815260a38352604090819020815160a0810183528154815260018201549481019490945260028082015492850183905260038201546060860152600490910154608085015289015491935011801561102c575087600301548160600151145b801561103f575087600401548160800151145b1561104d5793506110629050565b5050808061105a90613813565b915050610f8b565b5060008260800151116110a75760405162461bcd60e51b815260206004820152600d60248201526c1d5c081cdc1959590819985a5b609a1b60448201526064016106ab565b602082015160018601546110bb8183612af1565b9c9b505050505050505050505050565b6033546001600160a01b031633146110f55760405162461bcd60e51b81526004016106ab90613589565b60a254600160a01b900460ff16156111475760405162461bcd60e51b8152602060048201526015602482015274626173654461746120616c72656164792073796e6360581b60448201526064016106ab565b600080609760009054906101000a90046001600160a01b03166001600160a01b031663a57815896040518163ffffffff1660e01b815260040160006040518083038186803b15801561119857600080fd5b505afa1580156111ac573d6000803e3d6000fd5b505050506040513d6000823e601f3d908101601f191682016040526111d4919081019061325f565b9150915060005b8281101561126457600082828151811061120557634e487b7160e01b600052603260045260246000fd5b602002602001015190506112278160000151609e612b0490919063ffffffff16565b5080516000908152609d6020908152604091829020835181559083015160018201559101516002909101558061125c81613813565b9150506111db565b50609760009054906101000a90046001600160a01b03166001600160a01b031663aed4680c6040518163ffffffff1660e01b815260040160206040518083038186803b1580156112b357600080fd5b505afa1580156112c7573d6000803e3d6000fd5b505050506040513d601f19601f820116820180604052508101906112eb919061312c565b60a055505060a2805460ff60a01b1916600160a01b179055565b33600090815260a1602052604090205460ff16156113565760405162461bcd60e51b815260206004820152600e60248201526d185b1c9958591e481cde5b98d95960921b60448201526064016106ab565b600060315b609754604051635d3581ff60e11b8152600091829182916001600160a01b03169063ba6b03fe9061139490339089908990600401613539565b60006040518083038186803b1580156113ac57600080fd5b505afa1580156113c0573d6000803e3d6000fd5b505050506040513d6000823e601f3d908101601f191682016040526113e89190810190613144565b92509250925082600014156113ff575050506114ee565b60005b838110156114c957600083828151811061142c57634e487b7160e01b600052603260045260246000fd5b6020908102919091018101516060810151336000908152609c909352604090922090925061145991612b04565b50336000908152609b60209081526040808320606085018051855290835292819020845181559184015160018301558301516002820155905160038201556080820151600482015560a0820151600582015560c090910151600690910155806114c181613813565b915050611402565b50838310156114da575050506114ee565b6114e48585612b10565b945050505061135b565b505033600090815260a160205260409020805460ff19166001179055565b6033546001600160a01b031633146115365760405162461bcd60e51b81526004016106ab90613589565b60a580546001600160a01b0319166001600160a01b0392909216919091179055565b6033546001600160a01b031633146115825760405162461bcd60e51b81526004016106ab90613589565b61158c6000612b1c565b565b6033546001600160a01b031633146115b85760405162461bcd60e51b81526004016106ab90613589565b60a480546001600160a01b0319166001600160a01b0392909216919091179055565b609a546001600160a01b031633146116235760405162461bcd60e51b815260206004820152600c60248201526b6f6e6c79207374616b696e6760a01b60448201526064016106ab565b6001600160a01b0382166000908152609c602052604090206116459043612b6e565b156116855760405162461bcd60e51b815260206004820152601060248201526f626c6f636b206475706c69636174652160801b60448201526064016106ab565b6001600160a01b0382166116cf5760405162461bcd60e51b815260206004820152601160248201527034b73b30b634b2103932b1b2b4b83a37b960791b60448201526064016106ab565b6000811161170b5760405162461bcd60e51b81526020600482015260096024820152681b9bc81c995dd85c9960ba1b60448201526064016106ab565b6001600160a01b0382166000818152609b60209081526040808320438085529083528184208681556003810182905542600282015560048101829055948452609c90925290912061175b91612b04565b5060405182906001600160a01b0385169033907fbaa8134d057f38ffff73248ae9edf1012783d074fbae40443077bf53fc57b9ec90600090a4505050565b604080516000808252602082019092526060908290816117eb565b6117d860405180606001604052806000815260200160008152602001600081525090565b8152602001906001900390816117b45790505b50915091506109b4565b6001600160a01b0382166000908152609b6020908152604080832084845290915281208054829190829061182890611d59565b915496919550909350505050565b60408051600080825260208201909252606090819083908161186e565b61185b612e64565b8152602001906001900390816118535790505b5060408051600081526020810190915291989097509095509350505050565b60006060806060603285106118d55760405162461bcd60e51b815260206004820152600e60248201526d73697a6520746f6f206c6172676560901b60448201526064016106ab565b6001600160a01b0387166000908152609c602052604081206118f69061278d565b90508061195757604080516000808252602082019092528161192e565b61191b612e64565b8152602001906001900390816119135790505b50604080516000808252602082019081528183019092529297509095509093509150611d509050565b6000611964826001612af1565b9050808811156119a85760405162461bcd60e51b815260206004820152600f60248201526e737461727420746f6f206c6172676560881b60448201526064016106ab565b60006119bf60016119b98b8b612b10565b90612af1565b905060008282116119d057816119d2565b825b90506119e960016119e3838d612af1565b90612b10565b6001600160a01b038c166000908152609c6020526040812091995090611a0e9061279d565b90508867ffffffffffffffff811115611a3757634e487b7160e01b600052604160045260246000fd5b604051908082528060200260200182016040528015611a7057816020015b611a5d612e64565b815260200190600190039081611a555790505b5097508867ffffffffffffffff811115611a9a57634e487b7160e01b600052604160045260246000fd5b604051908082528060200260200182016040528015611ac3578160200160208202803683370190505b5096508867ffffffffffffffff811115611aed57634e487b7160e01b600052604160045260246000fd5b604051908082528060200260200182016040528015611b16578160200160208202803683370190505b5095508b8b60005b8b811015611d47576000848381518110611b4857634e487b7160e01b600052603260045260246000fd5b602002602001015190506000609b6000866001600160a01b03166001600160a01b0316815260200190815260200160002060008381526020019081526020016000206040518060e00160405290816000820154815260200160018201548152602001600282015481526020016003820154815260200160048201548152602001600582015481526020016006820154815250509050609b6000866001600160a01b03166001600160a01b0316815260200190815260200160002060008381526020019081526020016000206040518060e00160405290816000820154815260200160018201548152602001600282015481526020016003820154815260200160048201548152602001600582015481526020016006820154815250508d8481518110611c8457634e487b7160e01b600052603260045260246000fd5b6020026020010181905250611c998583612340565b8c8481518110611cb957634e487b7160e01b600052603260045260246000fd5b6020908102919091018101919091526001600160a01b0386166000908152609b82526040808220858352835280822060060154825260a390925220600201548b518c9085908110611d1a57634e487b7160e01b600052603260045260246000fd5b6020908102919091010152611d30846001612b10565b935050508080611d3f90613813565b915050611b1e565b50505050505050505b93509350935093565b600080600060a460009054906101000a90046001600160a01b03166001600160a01b0316630902f1ac6040518163ffffffff1660e01b815260040160606040518083038186803b158015611dac57600080fd5b505afa158015611dc0573d6000803e3d6000fd5b505050506040513d601f19601f82011682018060405250810190611de491906130d1565b506001600160701b031691506001600160701b03169150600060a460009054906101000a90046001600160a01b03166001600160a01b0316630dfe16816040518163ffffffff1660e01b815260040160206040518083038186803b158015611e4b57600080fd5b505afa158015611e5f573d6000803e3d6000fd5b505050506040513d601f19601f82011682018060405250810190611e839190612f9a565b9050600060a460009054906101000a90046001600160a01b03166001600160a01b031663d21220a76040518163ffffffff1660e01b815260040160206040518083038186803b158015611ed557600080fd5b505afa158015611ee9573d6000803e3d6000fd5b505050506040513d601f19601f82011682018060405250810190611f0d9190612f9a565b6098549091506001600160a01b038381169116148015611f3a575060a5546001600160a01b038281169116145b15611f5a57611f5384611f4d8886612b86565b90612b92565b9450611f9a565b6098546001600160a01b038281169116148015611f84575060a5546001600160a01b038381169116145b15611f9a57611f9783611f4d8887612b86565b94505b50505050919050565b609754604051635d3581ff60e11b815260009182916001600160a01b039091169063ba6b03fe90611fdd9086908590600190600401613539565b60006040518083038186803b158015611ff557600080fd5b505afa158015612009573d6000803e3d6000fd5b505050506040513d6000823e601f3d908101601f191682016040526120319190810190613144565b5050905060008111801561205e57506001600160a01b038316600090815260a1602052604090205460ff16155b9150505b919050565b609754604051635d3581ff60e11b815233916000916001600160a01b039091169063ba6b03fe906120a19085908590600190600401613539565b60006040518083038186803b1580156120b957600080fd5b505afa1580156120cd573d6000803e3d6000fd5b505050506040513d6000823e601f3d908101601f191682016040526120f59190810190613144565b50909150508015612138576001600160a01b038216600090815260a1602052604090205460ff166121385760405162461bcd60e51b81526004016106ab9061355a565b60a254600160a01b900460ff1661218a5760405162461bcd60e51b815260206004820152601660248201527568617661206e6f742073796e6320626173654461746160501b60448201526064016106ab565b336000908152609b60209081526040808320878452909152902080546121de5760405162461bcd60e51b81526020600482015260096024820152681b9bc81c995dd85c9960ba1b60448201526064016106ab565b600181015481541161221f5760405162461bcd60e51b815260206004820152600a60248201526919585c9b995908185b1b60b21b60448201526064016106ab565b61222a609e85612b6e565b6122665760405162461bcd60e51b815260206004820152600d60248201526c1a5b9d985b1a59081b195d995b609a1b60448201526064016106ab565b61227033866127aa565b600061227d338787610e7c565b609954909150612298906001600160a01b0316333084612b9e565b5060060192909255505050565b6033546001600160a01b031633146122cf5760405162461bcd60e51b81526004016106ab90613589565b6001600160a01b0381166123345760405162461bcd60e51b815260206004820152602660248201527f4f776e61626c653a206e6577206f776e657220697320746865207a65726f206160448201526564647265737360d01b60648201526084016106ab565b61233d81612b1c565b50565b609754604051635d3581ff60e11b8152600091849183916001600160a01b03169063ba6b03fe9061237a9085908590600190600401613539565b60006040518083038186803b15801561239257600080fd5b505afa1580156123a6573d6000803e3d6000fd5b505050506040513d6000823e601f3d908101601f191682016040526123ce9190810190613144565b50909150508015612411576001600160a01b038216600090815260a1602052604090205460ff166124115760405162461bcd60e51b81526004016106ab9061355a565b6001600160a01b0385166000908152609b60209081526040808320878452825291829020825160e081018452815480825260018301549382018490526002830154948201949094526003820154606082015260048201546080820152600582015460a082015260069091015460c08201529190811161249557600094505050612555565b60c0820151600090815260a360209081526040808320815160a081018352815481526001820154938101939093526002810154918301829052600381015460608401526004015460808301529091906124ef908490612b92565b9050600061250a856080015143612af190919063ffffffff16565b90506125168183612b86565b9750600061253186602001518a612b1090919063ffffffff16565b90508481111561254e57602086015161254b908690612af1565b98505b5050505050505b505092915050565b600054610100900460ff166125785760005460ff161561257c565b303b155b6125df5760405162461bcd60e51b815260206004820152602e60248201527f496e697469616c697a61626c653a20636f6e747261637420697320616c72656160448201526d191e481a5b9a5d1a585b1a5e995960921b60648201526084016106ab565b600054610100900460ff1615801561260a576000805460ff1961ff0019909116610100171660011790555b612612612cce565b61261a612cfd565b609a54600160a01b900460ff16156126635760405162461bcd60e51b815260206004820152600c60248201526b185b1c9958591e481a5b9a5d60a21b60448201526064016106ab565b6001600160a01b0385161580159061268357506001600160a01b03841615155b801561269757506001600160a01b03831615155b80156126ab57506001600160a01b03821615155b6126e75760405162461bcd60e51b815260206004820152600d60248201526c636865636b206164647265737360981b60448201526064016106ab565b609880546001600160a01b03199081166001600160a01b0388811691909117909255609980548216878416179055609a8054609780548416878616179055600160a01b92169286169290921760ff60a01b19161790558015610ca3576000805461ff00191690555050505050565b600085815260a36020526040902085815560018101859055600281018490556003810183905560048101829055610853609e87612b04565b6000612797825490565b92915050565b6060600061205e83612d2c565b6001600160a01b0382166000908152609b602090815260408083208484529091529020600181015481541161280e5760405162461bcd60e51b815260206004820152600a60248201526919585c9b995908185b1b60b21b60448201526064016106ab565b600061281a8484612340565b60985460405163a9059cbb60e01b81526001600160a01b0387811660048301526024820184905292935091169063a9059cbb90604401602060405180830381600087803b15801561286a57600080fd5b505af115801561287e573d6000803e3d6000fd5b505050506040513d601f19601f820116820180604052508101906128a291906130b1565b5060018201546128b3908290612b10565b60018301554360048301556005820181905560a0546128d3908290612b10565b60a055604051819084906001600160a01b038716907f34fcbac0073d7c3d388e51312faf357774904998eeb8fca628b9e6f65ee1cbf790600090a450505050565b604080516000808252602082019092526001600160a01b03841690839060405161293e9190613500565b60006040518083038185875af1925050503d806000811461297b576040519150601f19603f3d011682016040523d82523d6000602084013e612980565b606091505b5050905080610ae55760405162461bcd60e51b815260206004820152602360248201527f5472616e7366657248656c7065723a204554485f5452414e534645525f46414960448201526213115160ea1b60648201526084016106ab565b604080516001600160a01b038481166024830152604480830185905283518084039091018152606490920183526020820180516001600160e01b031663a9059cbb60e01b1790529151600092839290871691612a399190613500565b6000604051808303816000865af19150503d8060008114612a76576040519150601f19603f3d011682016040523d82523d6000602084013e612a7b565b606091505b5091509150818015612aa5575080511580612aa5575080806020019051810190612aa591906130b1565b610ca35760405162461bcd60e51b815260206004820152601f60248201527f5472616e7366657248656c7065723a205452414e534645525f4641494c45440060448201526064016106ab565b6000612afd82846137fc565b9392505050565b6000612afd8383612d88565b6000612afd82846137a5565b603380546001600160a01b038381166001600160a01b0319831681179093556040519116919082907f8be0079c531659141344cd1fd0a4f28419497f9722a3daafe3b4186f6b6457e090600090a35050565b60008181526001830160205260408120541515612afd565b6000612afd82846137dd565b6000612afd82846137bd565b604080516001600160a01b0385811660248301528481166044830152606480830185905283518084039091018152608490920183526020820180516001600160e01b03166323b872dd60e01b1790529151600092839290881691612c029190613500565b6000604051808303816000865af19150503d8060008114612c3f576040519150601f19603f3d011682016040523d82523d6000602084013e612c44565b606091505b5091509150818015612c6e575080511580612c6e575080806020019051810190612c6e91906130b1565b612cc65760405162461bcd60e51b8152602060048201526024808201527f5472616e7366657248656c7065723a205452414e534645525f46524f4d5f46416044820152631253115160e21b60648201526084016106ab565b505050505050565b600054610100900460ff16612cf55760405162461bcd60e51b81526004016106ab906135be565b61158c612dd7565b600054610100900460ff16612d245760405162461bcd60e51b81526004016106ab906135be565b61158c612e07565b606081600001805480602002602001604051908101604052809291908181526020018280548015612d7c57602002820191906000526020600020905b815481526020019060010190808311612d68575b50505050509050919050565b6000818152600183016020526040812054612dcf57508154600181810184556000848152602080822090930184905584548482528286019093526040902091909155612797565b506000612797565b600054610100900460ff16612dfe5760405162461bcd60e51b81526004016106ab906135be565b61158c33612b1c565b600054610100900460ff16612e2e5760405162461bcd60e51b81526004016106ab906135be565b6001606555565b6040518060a0016040528060008152602001600081526020016000815260200160008152602001600081525090565b6040518060e00160405280600081526020016000815260200160008152602001600081526020016000815260200160008152602001600081525090565b600082601f830112612eb1578081fd5b81356020612ec6612ec183613781565b613750565b8281528181019085830183850287018401881015612ee2578586fd5b855b85811015612f0057813584529284019290840190600101612ee4565b5090979650505050505050565b600082601f830112612f1d578081fd5b81516020612f2d612ec183613781565b8281528181019085830183850287018401881015612f49578586fd5b855b85811015612f0057815184529284019290840190600101612f4b565b80516001600160701b038116811461206257600080fd5b600060208284031215612f8f578081fd5b8135612afd8161385a565b600060208284031215612fab578081fd5b8151612afd8161385a565b60008060008060808587031215612fcb578283fd5b8435612fd68161385a565b93506020850135612fe68161385a565b92506040850135612ff68161385a565b915060608501356130068161385a565b939692955090935050565b60008060408385031215613023578182fd5b823561302e8161385a565b946020939093013593505050565b600080600060608486031215613050578283fd5b833561305b8161385a565b92506020840135915060408401356130728161385a565b809150509250925092565b600080600060608486031215613091578081fd5b833561309c8161385a565b95602085013595506040909401359392505050565b6000602082840312156130c2578081fd5b81518015158114612afd578182fd5b6000806000606084860312156130e5578081fd5b6130ee84612f67565b92506130fc60208501612f67565b9150604084015163ffffffff81168114613072578182fd5b600060208284031215613125578081fd5b5035919050565b60006020828403121561313d578081fd5b5051919050565b60008060006060808587031215613159578182fd5b8451935060208086015167ffffffffffffffff80821115613178578485fd5b818801915088601f83011261318b578485fd5b8151613199612ec182613781565b8181528481019084860160e0808502870188018e10156131b757898afd5b8996505b8487101561322c5780828f0312156131d157898afd5b6131da81613750565b82518152888301518982015260408084015190820152898301518a8201526080808401519082015260a0808401519082015260c0808401519082015284526001969096019592870192908101906131bb565b505060408b01519098509550505080841115613246578485fd5b50505061325586828701612f0d565b9150509250925092565b6000806040808486031215613272578283fd5b8351925060208085015167ffffffffffffffff811115613290578384fd5b8501601f810187136132a0578384fd5b80516132ae612ec182613781565b818152838101908385016060808502860187018c10156132cc578889fd5b8895505b848610156133195780828d0312156132e6578889fd5b6132ef81613750565b825181528783015188820152888301518982015284526001959095019492860192908101906132d0565b50979a909950975050505050505050565b60008060008060008060c08789031215613342578384fd5b86359550602087013567ffffffffffffffff80821115613360578586fd5b61336c8a838b01612ea1565b96506040890135915080821115613381578586fd5b61338d8a838b01612ea1565b955060608901359150808211156133a2578384fd5b6133ae8a838b01612ea1565b945060808901359150808211156133c3578384fd5b6133cf8a838b01612ea1565b935060a08901359150808211156133e4578283fd5b506133f189828a01612ea1565b9150509295509295509295565b60008060408385031215613410578182fd5b50508035926020909101359150565b600080600080600060a08688031215613436578283fd5b505083359560208501359550604085013594606081013594506080013592509050565b6000815180845260208085019450808401835b838110156134c657815180518852838101518489015260408082015190890152606080820151908901526080808201519089015260a0808201519089015260c0908101519088015260e0909601959082019060010161346c565b509495945050505050565b6000815180845260208085019450808401835b838110156134c6578151875295820195908201906001016134e4565b60008251815b818110156135205760208186018101518583015201613506565b8181111561352e5782828501525b509190910192915050565b6001600160a01b039390931683526020830191909152604082015260600190565b602080825260159082015274726571756972652073796e63206f6c64206461746160581b604082015260600190565b6020808252818101527f4f776e61626c653a2063616c6c6572206973206e6f7420746865206f776e6572604082015260600190565b6020808252602b908201527f496e697469616c697a61626c653a20636f6e7472616374206973206e6f74206960408201526a6e697469616c697a696e6760a81b606082015260800190565b6000848252606060208301526136226060830185613459565b828103604084015261363481856134d1565b9695505050505050565b6000858252608060208301526136576080830186613459565b828103604084015261366981866134d1565b9050828103606084015261367d81856134d1565b979650505050505050565b6000604080830185845260208281860152818651808452606093508387019150828801865b828110156136ef578151805185528581015186860152878101518886015286810151878601526080908101519085015260a090930192908401906001016136ad565b50919998505050505050505050565b6000604080830185845260208281860152818651808452606093508387019150828801865b828110156136ef578151805185528581015186860152870151878501529285019290840190600101613723565b604051601f8201601f1916810167ffffffffffffffff8111828210171561377957613779613844565b604052919050565b600067ffffffffffffffff82111561379b5761379b613844565b5060209081020190565b600082198211156137b8576137b861382e565b500190565b6000826137d857634e487b7160e01b81526012600452602481fd5b500490565b60008160001904831182151516156137f7576137f761382e565b500290565b60008282101561380e5761380e61382e565b500390565b60006000198214156138275761382761382e565b5060010190565b634e487b7160e01b600052601160045260246000fd5b634e487b7160e01b600052604160045260246000fd5b6001600160a01b038116811461233d57600080fdfea2646970667358221220eb48ff22b54de1b029fddb65b4fc7d559cb93ac2505f5691956716d8bddb5c3664736f6c63430008020033",
  "linkReferences": {},
  "deployedLinkReferences": {}
}