{
  "_format": "hh-sol-artifact-1",
  "contractName": "StakingHelper",
  "sourceName": "contracts/StakingHelper.sol",
  "abi": [
    {
      "inputs": [
        {
          "internalType": "address",
          "name": "_staking",
          "type": "address"
        },
        {
          "internalType": "address",
          "name": "_THS",
          "type": "address"
        }
      ],
      "stateMutability": "nonpayable",
      "type": "constructor"
    },
    {
      "inputs": [],
      "name": "THS",
      "outputs": [
        {
          "internalType": "address",
          "name": "",
          "type": "address"
        }
      ],
      "stateMutability": "view",
      "type": "function"
    },
    {
      "inputs": [
        {
          "internalType": "uint256",
          "name": "_amount",
          "type": "uint256"
        },
        {
          "internalType": "address",
          "name": "_recipient",
          "type": "address"
        }
      ],
      "name": "stake",
      "outputs": [],
      "stateMutability": "nonpayable",
      "type": "function"
    },
    {
      "inputs": [],
      "name": "staking",
      "outputs": [
        {
          "internalType": "address",
          "name": "",
          "type": "address"
        }
      ],
      "stateMutability": "view",
      "type": "function"
    }
  ],
  "bytecode": "0x60c060405234801561001057600080fd5b506040516107cb3803806107cb83398181016040528101906100329190610130565b600073ffffffffffffffffffffffffffffffffffffffff168273ffffffffffffffffffffffffffffffffffffffff16141561006c57600080fd5b8173ffffffffffffffffffffffffffffffffffffffff1660808173ffffffffffffffffffffffffffffffffffffffff1660601b81525050600073ffffffffffffffffffffffffffffffffffffffff168173ffffffffffffffffffffffffffffffffffffffff1614156100dd57600080fd5b8073ffffffffffffffffffffffffffffffffffffffff1660a08173ffffffffffffffffffffffffffffffffffffffff1660601b8152505050506101b5565b60008151905061012a8161019e565b92915050565b6000806040838503121561014357600080fd5b60006101518582860161011b565b92505060206101628582860161011b565b9150509250929050565b60006101778261017e565b9050919050565b600073ffffffffffffffffffffffffffffffffffffffff82169050919050565b6101a78161016c565b81146101b257600080fd5b50565b60805160601c60a05160601c6105ca6102016000396000818160c401528181610174015261037f01526000818160a0015281816101b00152818161024201526102f001526105ca6000f3fe608060405234801561001057600080fd5b50600436106100415760003560e01c80634cf088d9146100465780637acb775714610064578063d852438c14610080575b600080fd5b61004e61009e565b60405161005b9190610463565b60405180910390f35b61007e60048036038101906100799190610409565b6100c2565b005b61008861037d565b6040516100959190610463565b60405180910390f35b7f000000000000000000000000000000000000000000000000000000000000000081565b7f000000000000000000000000000000000000000000000000000000000000000073ffffffffffffffffffffffffffffffffffffffff166323b872dd3330856040518463ffffffff1660e01b815260040161011f9392919061047e565b602060405180830381600087803b15801561013957600080fd5b505af115801561014d573d6000803e3d6000fd5b505050506040513d601f19601f8201168201806040525081019061017191906103e0565b507f000000000000000000000000000000000000000000000000000000000000000073ffffffffffffffffffffffffffffffffffffffff1663095ea7b37f0000000000000000000000000000000000000000000000000000000000000000846040518363ffffffff1660e01b81526004016101ed9291906104b5565b602060405180830381600087803b15801561020757600080fd5b505af115801561021b573d6000803e3d6000fd5b505050506040513d601f19601f8201168201806040525081019061023f91906103e0565b507f000000000000000000000000000000000000000000000000000000000000000073ffffffffffffffffffffffffffffffffffffffff16637acb775783836040518363ffffffff1660e01b815260040161029b9291906104de565b602060405180830381600087803b1580156102b557600080fd5b505af11580156102c9573d6000803e3d6000fd5b505050506040513d601f19601f820116820180604052508101906102ed91906103e0565b507f000000000000000000000000000000000000000000000000000000000000000073ffffffffffffffffffffffffffffffffffffffff16631e83409a826040518263ffffffff1660e01b81526004016103479190610463565b600060405180830381600087803b15801561036157600080fd5b505af1158015610375573d6000803e3d6000fd5b505050505050565b7f000000000000000000000000000000000000000000000000000000000000000081565b6000813590506103b08161054f565b92915050565b6000815190506103c581610566565b92915050565b6000813590506103da8161057d565b92915050565b6000602082840312156103f257600080fd5b6000610400848285016103b6565b91505092915050565b6000806040838503121561041c57600080fd5b600061042a858286016103cb565b925050602061043b858286016103a1565b9150509250929050565b61044e81610507565b82525050565b61045d81610545565b82525050565b60006020820190506104786000830184610445565b92915050565b60006060820190506104936000830186610445565b6104a06020830185610445565b6104ad6040830184610454565b949350505050565b60006040820190506104ca6000830185610445565b6104d76020830184610454565b9392505050565b60006040820190506104f36000830185610454565b6105006020830184610445565b9392505050565b600061051282610525565b9050919050565b60008115159050919050565b600073ffffffffffffffffffffffffffffffffffffffff82169050919050565b6000819050919050565b61055881610507565b811461056357600080fd5b50565b61056f81610519565b811461057a57600080fd5b50565b61058681610545565b811461059157600080fd5b5056fea2646970667358221220eb418627f4b1edfb808b759bcf03921cc433d72875f0b4bce35f947d982c345a64736f6c63430008020033",
  "linkReferences": {},
  "deployedLinkReferences": {}
}