{
  "_format": "hh-sol-artifact-1",
  "contractName": "ThemisStaking",
  "sourceName": "contracts/Staking.sol",
  "abi": [
    {
      "anonymous": false,
      "inputs": [
        {
          "indexed": true,
          "internalType": "address",
          "name": "previousOwner",
          "type": "address"
        },
        {
          "indexed": true,
          "internalType": "address",
          "name": "newOwner",
          "type": "address"
        }
      ],
      "name": "OwnershipTransferred",
      "type": "event"
    },
    {
      "inputs": [],
      "name": "THS",
      "outputs": [
        {
          "internalType": "address",
          "name": "",
          "type": "address"
        }
      ],
      "stateMutability": "view",
      "type": "function"
    },
    {
      "inputs": [
        {
          "internalType": "address",
          "name": "_recipient",
          "type": "address"
        }
      ],
      "name": "claim",
      "outputs": [],
      "stateMutability": "nonpayable",
      "type": "function"
    },
    {
      "inputs": [],
      "name": "contractBalance",
      "outputs": [
        {
          "internalType": "uint256",
          "name": "",
          "type": "uint256"
        }
      ],
      "stateMutability": "view",
      "type": "function"
    },
    {
      "inputs": [],
      "name": "distributor",
      "outputs": [
        {
          "internalType": "address",
          "name": "",
          "type": "address"
        }
      ],
      "stateMutability": "view",
      "type": "function"
    },
    {
      "inputs": [],
      "name": "epoch",
      "outputs": [
        {
          "internalType": "uint256",
          "name": "length",
          "type": "uint256"
        },
        {
          "internalType": "uint256",
          "name": "number",
          "type": "uint256"
        },
        {
          "internalType": "uint256",
          "name": "endBlock",
          "type": "uint256"
        },
        {
          "internalType": "uint256",
          "name": "distribute",
          "type": "uint256"
        }
      ],
      "stateMutability": "view",
      "type": "function"
    },
    {
      "inputs": [],
      "name": "forfeit",
      "outputs": [],
      "stateMutability": "nonpayable",
      "type": "function"
    },
    {
      "inputs": [
        {
          "internalType": "uint256",
          "name": "_amount",
          "type": "uint256"
        }
      ],
      "name": "giveLockBonus",
      "outputs": [],
      "stateMutability": "nonpayable",
      "type": "function"
    },
    {
      "inputs": [],
      "name": "index",
      "outputs": [
        {
          "internalType": "uint256",
          "name": "",
          "type": "uint256"
        }
      ],
      "stateMutability": "view",
      "type": "function"
    },
    {
      "inputs": [
        {
          "internalType": "address",
          "name": "_THS",
          "type": "address"
        },
        {
          "internalType": "address",
          "name": "_sTHS",
          "type": "address"
        },
        {
          "internalType": "uint256",
          "name": "_epochLength",
          "type": "uint256"
        },
        {
          "internalType": "uint256",
          "name": "_firstEpochNumber",
          "type": "uint256"
        },
        {
          "internalType": "uint256",
          "name": "_firstEpochBlock",
          "type": "uint256"
        }
      ],
      "name": "initialize",
      "outputs": [],
      "stateMutability": "nonpayable",
      "type": "function"
    },
    {
      "inputs": [],
      "name": "locker",
      "outputs": [
        {
          "internalType": "address",
          "name": "",
          "type": "address"
        }
      ],
      "stateMutability": "view",
      "type": "function"
    },
    {
      "inputs": [],
      "name": "owner",
      "outputs": [
        {
          "internalType": "address",
          "name": "",
          "type": "address"
        }
      ],
      "stateMutability": "view",
      "type": "function"
    },
    {
      "inputs": [],
      "name": "rebase",
      "outputs": [],
      "stateMutability": "nonpayable",
      "type": "function"
    },
    {
      "inputs": [],
      "name": "renounceOwnership",
      "outputs": [],
      "stateMutability": "nonpayable",
      "type": "function"
    },
    {
      "inputs": [
        {
          "internalType": "uint256",
          "name": "_amount",
          "type": "uint256"
        }
      ],
      "name": "returnLockBonus",
      "outputs": [],
      "stateMutability": "nonpayable",
      "type": "function"
    },
    {
      "inputs": [],
      "name": "sTHS",
      "outputs": [
        {
          "internalType": "address",
          "name": "",
          "type": "address"
        }
      ],
      "stateMutability": "view",
      "type": "function"
    },
    {
      "inputs": [],
      "name": "scFarmForInvter",
      "outputs": [
        {
          "internalType": "address",
          "name": "",
          "type": "address"
        }
      ],
      "stateMutability": "view",
      "type": "function"
    },
    {
      "inputs": [],
      "name": "scFarmForInvterSwaitch",
      "outputs": [
        {
          "internalType": "bool",
          "name": "",
          "type": "bool"
        }
      ],
      "stateMutability": "view",
      "type": "function"
    },
    {
      "inputs": [],
      "name": "scFarmForStaker",
      "outputs": [
        {
          "internalType": "address",
          "name": "",
          "type": "address"
        }
      ],
      "stateMutability": "view",
      "type": "function"
    },
    {
      "inputs": [],
      "name": "scFarmForStakerSwaitch",
      "outputs": [
        {
          "internalType": "bool",
          "name": "",
          "type": "bool"
        }
      ],
      "stateMutability": "view",
      "type": "function"
    },
    {
      "inputs": [
        {
          "internalType": "enum ThemisStaking.CONTRACTS",
          "name": "_contract",
          "type": "uint8"
        },
        {
          "internalType": "address",
          "name": "_address",
          "type": "address"
        }
      ],
      "name": "setContract",
      "outputs": [],
      "stateMutability": "nonpayable",
      "type": "function"
    },
    {
      "inputs": [
        {
          "internalType": "address",
          "name": "_contract",
          "type": "address"
        },
        {
          "internalType": "bool",
          "name": "_switch",
          "type": "bool"
        }
      ],
      "name": "setScFarmForInvter",
      "outputs": [],
      "stateMutability": "nonpayable",
      "type": "function"
    },
    {
      "inputs": [
        {
          "internalType": "address",
          "name": "_contract",
          "type": "address"
        },
        {
          "internalType": "bool",
          "name": "_switch",
          "type": "bool"
        }
      ],
      "name": "setScFarmForStaker",
      "outputs": [],
      "stateMutability": "nonpayable",
      "type": "function"
    },
    {
      "inputs": [
        {
          "internalType": "address",
          "name": "_contract",
          "type": "address"
        },
        {
          "internalType": "bool",
          "name": "_switch",
          "type": "bool"
        }
      ],
      "name": "setStakingRewardRelease",
      "outputs": [],
      "stateMutability": "nonpayable",
      "type": "function"
    },
    {
      "inputs": [
        {
          "internalType": "uint256",
          "name": "_warmupPeriod",
          "type": "uint256"
        }
      ],
      "name": "setWarmup",
      "outputs": [],
      "stateMutability": "nonpayable",
      "type": "function"
    },
    {
      "inputs": [
        {
          "internalType": "uint256",
          "name": "_amount",
          "type": "uint256"
        },
        {
          "internalType": "address",
          "name": "_recipient",
          "type": "address"
        }
      ],
      "name": "stake",
      "outputs": [
        {
          "internalType": "bool",
          "name": "",
          "type": "bool"
        }
      ],
      "stateMutability": "nonpayable",
      "type": "function"
    },
    {
      "inputs": [
        {
          "internalType": "address",
          "name": "",
          "type": "address"
        }
      ],
      "name": "stakingAmountOf",
      "outputs": [
        {
          "internalType": "uint256",
          "name": "",
          "type": "uint256"
        }
      ],
      "stateMutability": "view",
      "type": "function"
    },
    {
      "inputs": [],
      "name": "stakingRewardRelease",
      "outputs": [
        {
          "internalType": "address",
          "name": "",
          "type": "address"
        }
      ],
      "stateMutability": "view",
      "type": "function"
    },
    {
      "inputs": [],
      "name": "stakingRewardReleaseSwaitch",
      "outputs": [
        {
          "internalType": "bool",
          "name": "",
          "type": "bool"
        }
      ],
      "stateMutability": "view",
      "type": "function"
    },
    {
      "inputs": [],
      "name": "toggleDepositLock",
      "outputs": [],
      "stateMutability": "nonpayable",
      "type": "function"
    },
    {
      "inputs": [],
      "name": "totalBonus",
      "outputs": [
        {
          "internalType": "uint256",
          "name": "",
          "type": "uint256"
        }
      ],
      "stateMutability": "view",
      "type": "function"
    },
    {
      "inputs": [
        {
          "internalType": "address",
          "name": "newOwner",
          "type": "address"
        }
      ],
      "name": "transferOwnership",
      "outputs": [],
      "stateMutability": "nonpayable",
      "type": "function"
    },
    {
      "inputs": [
        {
          "internalType": "uint256",
          "name": "_amount",
          "type": "uint256"
        },
        {
          "internalType": "bool",
          "name": "_trigger",
          "type": "bool"
        }
      ],
      "name": "unstake",
      "outputs": [],
      "stateMutability": "nonpayable",
      "type": "function"
    },
    {
      "inputs": [],
      "name": "warmupContract",
      "outputs": [
        {
          "internalType": "address",
          "name": "",
          "type": "address"
        }
      ],
      "stateMutability": "view",
      "type": "function"
    },
    {
      "inputs": [
        {
          "internalType": "address",
          "name": "",
          "type": "address"
        }
      ],
      "name": "warmupInfo",
      "outputs": [
        {
          "internalType": "uint256",
          "name": "deposit",
          "type": "uint256"
        },
        {
          "internalType": "uint256",
          "name": "gons",
          "type": "uint256"
        },
        {
          "internalType": "uint256",
          "name": "expiry",
          "type": "uint256"
        },
        {
          "internalType": "bool",
          "name": "lock",
          "type": "bool"
        }
      ],
      "stateMutability": "view",
      "type": "function"
    },
    {
      "inputs": [],
      "name": "warmupPeriod",
      "outputs": [
        {
          "internalType": "uint256",
          "name": "",
          "type": "uint256"
        }
      ],
      "stateMutability": "view",
      "type": "function"
    }
  ],
  "bytecode": "0x608060405234801561001057600080fd5b50613c42806100206000396000f3fe608060405234801561001057600080fd5b50600436106102115760003560e01c80639ebea88c11610125578063d13f90b4116100ad578063e90279b41161007c578063e90279b414610588578063ed4acaa8146105a6578063f2fde38b146105c4578063f3d86e4a146105e0578063f62ae76a146105ea57610211565b8063d13f90b414610512578063d7b96d4e1461052e578063d852438c1461054c578063deac361a1461056a57610211565b8063af14052c116100f4578063af14052c14610492578063bfe109281461049c578063c3bb7171146104ba578063c7130dbf146104d8578063c9f464ff146104f657610211565b80639ebea88c1461041c578063a1775f9e14610438578063a8dd07dc14610456578063aecc70e01461047457610211565b8063715018a6116101a85780638a223329116101775780638a223329146103995780638b7afe2e146103b55780638da5cb5b146103d35780638f077b83146103f1578063900cf0cf146103fb57610211565b8063715018a6146103255780637acb77571461032f57806384fa9f561461035f578063865e6fd31461037d57610211565b80634c47273b116101e45780634c47273b1461028857806358b77db5146102a45780636746f4c2146102d457806369ff90f81461030757610211565b806303c23670146102165780631793b273146102325780631e83409a1461024e5780632986c0e51461026a575b600080fd5b610230600480360381019061022b9190613105565b610606565b005b61024c60048036038101906102479190613064565b6106ed565b005b61026860048036038101906102639190612fc4565b61083f565b005b610272610aab565b60405161027f9190613659565b60405180910390f35b6102a2600480360381019061029d9190613064565b610b52565b005b6102be60048036038101906102b99190612fc4565b610ca4565b6040516102cb9190613659565b60405180910390f35b6102ee60048036038101906102e99190612fc4565b610cbc565b6040516102fe949392919061369d565b60405180910390f35b61030f610cf9565b60405161031c919061349c565b60405180910390f35b61032d610d0c565b005b61034960048036038101906103449190613157565b610d94565b604051610356919061349c565b60405180910390f35b6103676110c6565b604051610374919061349c565b60405180910390f35b610397600480360381019061039291906130c9565b6110d9565b005b6103b360048036038101906103ae9190613064565b6114b5565b005b6103bd611607565b6040516103ca9190613659565b60405180910390f35b6103db6116cd565b6040516103e89190613421565b60405180910390f35b6103f96116f7565b005b6104036117a3565b60405161041394939291906136e2565b60405180910390f35b61043660048036038101906104319190613193565b6117c1565b005b6104406119e8565b60405161044d9190613421565b60405180910390f35b61045e611a0e565b60405161046b9190613659565b60405180910390f35b61047c611a14565b604051610489919061349c565b60405180910390f35b61049a611a27565b005b6104a4611d11565b6040516104b19190613421565b60405180910390f35b6104c2611d37565b6040516104cf9190613421565b60405180910390f35b6104e0611d5d565b6040516104ed9190613421565b60405180910390f35b610510600480360381019061050b9190613105565b611d83565b005b61052c60048036038101906105279190612fed565b611e09565b005b61053661203f565b6040516105439190613421565b60405180910390f35b610554612065565b6040516105619190613421565b60405180910390f35b61057261208b565b60405161057f9190613659565b60405180910390f35b610590612091565b60405161059d9190613421565b60405180910390f35b6105ae6120b7565b6040516105bb9190613421565b60405180910390f35b6105de60048036038101906105d99190612fc4565b6120dd565b005b6105e86121d5565b005b61060460048036038101906105ff9190613105565b61245b565b005b606d60009054906101000a900473ffffffffffffffffffffffffffffffffffffffff1673ffffffffffffffffffffffffffffffffffffffff163373ffffffffffffffffffffffffffffffffffffffff161461066057600080fd5b61067581606e5461254490919063ffffffff16565b606e819055506106ea606d60009054906101000a900473ffffffffffffffffffffffffffffffffffffffff1682606660009054906101000a900473ffffffffffffffffffffffffffffffffffffffff1673ffffffffffffffffffffffffffffffffffffffff166125a29092919063ffffffff16565b50565b6106f5612628565b73ffffffffffffffffffffffffffffffffffffffff166107136116cd565b73ffffffffffffffffffffffffffffffffffffffff1614610769576040517f08c379a0000000000000000000000000000000000000000000000000000000008152600401610760906135d9565b60405180910390fd5b80156107e0578173ffffffffffffffffffffffffffffffffffffffff16600073ffffffffffffffffffffffffffffffffffffffff1614156107df576040517f08c379a00000000000000000000000000000000000000000000000000000000081526004016107d690613599565b60405180910390fd5b5b81607260006101000a81548173ffffffffffffffffffffffffffffffffffffffff021916908373ffffffffffffffffffffffffffffffffffffffff16021790555080607260146101000a81548160ff0219169083151502179055505050565b6000606b60008373ffffffffffffffffffffffffffffffffffffffff1673ffffffffffffffffffffffffffffffffffffffff1681526020019081526020016000206040518060800160405290816000820154815260200160018201548152602001600282015481526020016003820160009054906101000a900460ff16151515158152505090508060400151606760010154101580156108e457506000816040015114155b15610aa757606b60008373ffffffffffffffffffffffffffffffffffffffff1673ffffffffffffffffffffffffffffffffffffffff168152602001908152602001600020600080820160009055600182016000905560028201600090556003820160006101000a81549060ff021916905550506000606660009054906101000a900473ffffffffffffffffffffffffffffffffffffffff1673ffffffffffffffffffffffffffffffffffffffff16637965d56d83602001516040518263ffffffff1660e01b81526004016109b89190613659565b60206040518083038186803b1580156109d057600080fd5b505afa1580156109e4573d6000803e3d6000fd5b505050506040513d601f19601f82011682018060405250810190610a08919061312e565b9050606f60009054906101000a900473ffffffffffffffffffffffffffffffffffffffff1673ffffffffffffffffffffffffffffffffffffffff1663c3a2a66584836040518363ffffffff1660e01b8152600401610a67929190613473565b600060405180830381600087803b158015610a8157600080fd5b505af1158015610a95573d6000803e3d6000fd5b50505050610aa583826000612630565b505b5050565b6000606660009054906101000a900473ffffffffffffffffffffffffffffffffffffffff1673ffffffffffffffffffffffffffffffffffffffff16632986c0e56040518163ffffffff1660e01b815260040160206040518083038186803b158015610b1557600080fd5b505afa158015610b29573d6000803e3d6000fd5b505050506040513d601f19601f82011682018060405250810190610b4d919061312e565b905090565b610b5a612628565b73ffffffffffffffffffffffffffffffffffffffff16610b786116cd565b73ffffffffffffffffffffffffffffffffffffffff1614610bce576040517f08c379a0000000000000000000000000000000000000000000000000000000008152600401610bc5906135d9565b60405180910390fd5b8015610c45578173ffffffffffffffffffffffffffffffffffffffff16600073ffffffffffffffffffffffffffffffffffffffff161415610c44576040517f08c379a0000000000000000000000000000000000000000000000000000000008152600401610c3b90613599565b60405180910390fd5b5b81607360006101000a81548173ffffffffffffffffffffffffffffffffffffffff021916908373ffffffffffffffffffffffffffffffffffffffff16021790555080607360146101000a81548160ff0219169083151502179055505050565b60746020528060005260406000206000915090505481565b606b6020528060005260406000206000915090508060000154908060010154908060020154908060030160009054906101000a900460ff16905084565b607160149054906101000a900460ff1681565b610d14612628565b73ffffffffffffffffffffffffffffffffffffffff16610d326116cd565b73ffffffffffffffffffffffffffffffffffffffff1614610d88576040517f08c379a0000000000000000000000000000000000000000000000000000000008152600401610d7f906135d9565b60405180910390fd5b610d9260006128ce565b565b6000610d9e611a27565b610ded333085606560009054906101000a900473ffffffffffffffffffffffffffffffffffffffff1673ffffffffffffffffffffffffffffffffffffffff16612994909392919063ffffffff16565b6000606b60008473ffffffffffffffffffffffffffffffffffffffff1673ffffffffffffffffffffffffffffffffffffffff1681526020019081526020016000206040518060800160405290816000820154815260200160018201548152602001600282015481526020016003820160009054906101000a900460ff1615151515815250509050806060015115610eb9576040517f08c379a0000000000000000000000000000000000000000000000000000000008152600401610eb0906134d9565b60405180910390fd5b6040518060800160405280610edb86846000015161254490919063ffffffff16565b8152602001610fa1606660009054906101000a900473ffffffffffffffffffffffffffffffffffffffff1673ffffffffffffffffffffffffffffffffffffffff16631bd39674886040518263ffffffff1660e01b8152600401610f3e9190613659565b60206040518083038186803b158015610f5657600080fd5b505afa158015610f6a573d6000803e3d6000fd5b505050506040513d601f19601f82011682018060405250810190610f8e919061312e565b846020015161254490919063ffffffff16565b8152602001610fc060705460676001015461254490919063ffffffff16565b815260200160001515815250606b60008573ffffffffffffffffffffffffffffffffffffffff1673ffffffffffffffffffffffffffffffffffffffff16815260200190815260200160002060008201518160000155602082015181600101556040820151816002015560608201518160030160006101000a81548160ff0219169083151502179055509050506110bb606f60009054906101000a900473ffffffffffffffffffffffffffffffffffffffff1685606660009054906101000a900473ffffffffffffffffffffffffffffffffffffffff1673ffffffffffffffffffffffffffffffffffffffff166125a29092919063ffffffff16565b600191505092915050565b607260149054906101000a900460ff1681565b6110e1612628565b73ffffffffffffffffffffffffffffffffffffffff166110ff6116cd565b73ffffffffffffffffffffffffffffffffffffffff1614611155576040517f08c379a000000000000000000000000000000000000000000000000000000000815260040161114c906135d9565b60405180910390fd5b6000600281111561118f577f4e487b7100000000000000000000000000000000000000000000000000000000600052602160045260246000fd5b8260028111156111c8577f4e487b7100000000000000000000000000000000000000000000000000000000600052602160045260246000fd5b14156112145780606c60006101000a81548173ffffffffffffffffffffffffffffffffffffffff021916908373ffffffffffffffffffffffffffffffffffffffff1602179055506114b1565b6001600281111561124e577f4e487b7100000000000000000000000000000000000000000000000000000000600052602160045260246000fd5b826002811115611287577f4e487b7100000000000000000000000000000000000000000000000000000000600052602160045260246000fd5b141561136457600073ffffffffffffffffffffffffffffffffffffffff16606f60009054906101000a900473ffffffffffffffffffffffffffffffffffffffff1673ffffffffffffffffffffffffffffffffffffffff161461131e576040517f08c379a000000000000000000000000000000000000000000000000000000000815260040161131590613559565b60405180910390fd5b80606f60006101000a81548173ffffffffffffffffffffffffffffffffffffffff021916908373ffffffffffffffffffffffffffffffffffffffff1602179055506114b0565b60028081111561139d577f4e487b7100000000000000000000000000000000000000000000000000000000600052602160045260246000fd5b8260028111156113d6577f4e487b7100000000000000000000000000000000000000000000000000000000600052602160045260246000fd5b14156114af57600073ffffffffffffffffffffffffffffffffffffffff16606d60009054906101000a900473ffffffffffffffffffffffffffffffffffffffff1673ffffffffffffffffffffffffffffffffffffffff161461146d576040517f08c379a0000000000000000000000000000000000000000000000000000000008152600401611464906134f9565b60405180910390fd5b80606d60006101000a81548173ffffffffffffffffffffffffffffffffffffffff021916908373ffffffffffffffffffffffffffffffffffffffff1602179055505b5b5b5050565b6114bd612628565b73ffffffffffffffffffffffffffffffffffffffff166114db6116cd565b73ffffffffffffffffffffffffffffffffffffffff1614611531576040517f08c379a0000000000000000000000000000000000000000000000000000000008152600401611528906135d9565b60405180910390fd5b80156115a8578173ffffffffffffffffffffffffffffffffffffffff16600073ffffffffffffffffffffffffffffffffffffffff1614156115a7576040517f08c379a000000000000000000000000000000000000000000000000000000000815260040161159e90613599565b60405180910390fd5b5b81607160006101000a81548173ffffffffffffffffffffffffffffffffffffffff021916908373ffffffffffffffffffffffffffffffffffffffff16021790555080607160146101000a81548160ff0219169083151502179055505050565b60006116c8606e54606560009054906101000a900473ffffffffffffffffffffffffffffffffffffffff1673ffffffffffffffffffffffffffffffffffffffff166370a08231306040518263ffffffff1660e01b815260040161166a9190613421565b60206040518083038186803b15801561168257600080fd5b505afa158015611696573d6000803e3d6000fd5b505050506040513d601f19601f820116820180604052508101906116ba919061312e565b61254490919063ffffffff16565b905090565b6000603360009054906101000a900473ffffffffffffffffffffffffffffffffffffffff16905090565b606b60003373ffffffffffffffffffffffffffffffffffffffff1673ffffffffffffffffffffffffffffffffffffffff16815260200190815260200160002060030160009054906101000a900460ff1615606b60003373ffffffffffffffffffffffffffffffffffffffff1673ffffffffffffffffffffffffffffffffffffffff16815260200190815260200160002060030160006101000a81548160ff021916908315150217905550565b60678060000154908060010154908060020154908060030154905084565b80156117d0576117cf611a27565b5b6000607460003373ffffffffffffffffffffffffffffffffffffffff1673ffffffffffffffffffffffffffffffffffffffff16815260200190815260200160002054905080831115611857576040517f08c379a000000000000000000000000000000000000000000000000000000000815260040161184e90613519565b60405180910390fd5b600061191682606660009054906101000a900473ffffffffffffffffffffffffffffffffffffffff1673ffffffffffffffffffffffffffffffffffffffff166370a08231336040518263ffffffff1660e01b81526004016118b89190613421565b60206040518083038186803b1580156118d057600080fd5b505afa1580156118e4573d6000803e3d6000fd5b505050506040513d601f19601f82011682018060405250810190611908919061312e565b612a1d90919063ffffffff16565b9050600061192d858361254490919063ffffffff16565b905061197e333083606660009054906101000a900473ffffffffffffffffffffffffffffffffffffffff1673ffffffffffffffffffffffffffffffffffffffff16612994909392919063ffffffff16565b6119883383612a67565b61199433600087612630565b6119e13386606560009054906101000a900473ffffffffffffffffffffffffffffffffffffffff1673ffffffffffffffffffffffffffffffffffffffff166125a29092919063ffffffff16565b5050505050565b607160009054906101000a900473ffffffffffffffffffffffffffffffffffffffff1681565b606e5481565b607360149054906101000a900460ff1681565b4360676002015411611d0f57606660009054906101000a900473ffffffffffffffffffffffffffffffffffffffff1673ffffffffffffffffffffffffffffffffffffffff1663058ecdb46067600301546067600101546040518363ffffffff1660e01b8152600401611a9a929190613674565b602060405180830381600087803b158015611ab457600080fd5b505af1158015611ac8573d6000803e3d6000fd5b505050506040513d601f19601f82011682018060405250810190611aec919061312e565b50611b0a60676000015460676002015461254490919063ffffffff16565b60676002018190555060676001016000815480929190611b299061385e565b9190505550600073ffffffffffffffffffffffffffffffffffffffff16606c60009054906101000a900473ffffffffffffffffffffffffffffffffffffffff1673ffffffffffffffffffffffffffffffffffffffff1614611c2857606c60009054906101000a900473ffffffffffffffffffffffffffffffffffffffff1673ffffffffffffffffffffffffffffffffffffffff1663e4fc6b6d6040518163ffffffff1660e01b8152600401602060405180830381600087803b158015611bee57600080fd5b505af1158015611c02573d6000803e3d6000fd5b505050506040513d601f19601f82011682018060405250810190611c2691906130a0565b505b6000611c32611607565b90506000606660009054906101000a900473ffffffffffffffffffffffffffffffffffffffff1673ffffffffffffffffffffffffffffffffffffffff16639358928b6040518163ffffffff1660e01b815260040160206040518083038186803b158015611c9e57600080fd5b505afa158015611cb2573d6000803e3d6000fd5b505050506040513d601f19601f82011682018060405250810190611cd6919061312e565b9050808211611cef576000606760030181905550611d0c565b611d028183612a1d90919063ffffffff16565b6067600301819055505b50505b565b606c60009054906101000a900473ffffffffffffffffffffffffffffffffffffffff1681565b606660009054906101000a900473ffffffffffffffffffffffffffffffffffffffff1681565b607360009054906101000a900473ffffffffffffffffffffffffffffffffffffffff1681565b611d8b612628565b73ffffffffffffffffffffffffffffffffffffffff16611da96116cd565b73ffffffffffffffffffffffffffffffffffffffff1614611dff576040517f08c379a0000000000000000000000000000000000000000000000000000000008152600401611df6906135d9565b60405180910390fd5b8060708190555050565b600060019054906101000a900460ff16611e315760008054906101000a900460ff1615611e3a565b611e39612be0565b5b611e79576040517f08c379a0000000000000000000000000000000000000000000000000000000008152600401611e70906135b9565b60405180910390fd5b60008060019054906101000a900460ff161590508015611ec9576001600060016101000a81548160ff02191690831515021790555060016000806101000a81548160ff0219169083151502179055505b611ed1612bf1565b600073ffffffffffffffffffffffffffffffffffffffff168673ffffffffffffffffffffffffffffffffffffffff161415611f0b57600080fd5b85606560006101000a81548173ffffffffffffffffffffffffffffffffffffffff021916908373ffffffffffffffffffffffffffffffffffffffff160217905550600073ffffffffffffffffffffffffffffffffffffffff168573ffffffffffffffffffffffffffffffffffffffff161415611f8657600080fd5b84606660006101000a81548173ffffffffffffffffffffffffffffffffffffffff021916908373ffffffffffffffffffffffffffffffffffffffff1602179055506040518060800160405280858152602001848152602001838152602001600081525060676000820151816000015560208201518160010155604082015181600201556060820151816003015590505080156120375760008060016101000a81548160ff0219169083151502179055505b505050505050565b606d60009054906101000a900473ffffffffffffffffffffffffffffffffffffffff1681565b606560009054906101000a900473ffffffffffffffffffffffffffffffffffffffff1681565b60705481565b607260009054906101000a900473ffffffffffffffffffffffffffffffffffffffff1681565b606f60009054906101000a900473ffffffffffffffffffffffffffffffffffffffff1681565b6120e5612628565b73ffffffffffffffffffffffffffffffffffffffff166121036116cd565b73ffffffffffffffffffffffffffffffffffffffff1614612159576040517f08c379a0000000000000000000000000000000000000000000000000000000008152600401612150906135d9565b60405180910390fd5b600073ffffffffffffffffffffffffffffffffffffffff168173ffffffffffffffffffffffffffffffffffffffff1614156121c9576040517f08c379a00000000000000000000000000000000000000000000000000000000081526004016121c090613539565b60405180910390fd5b6121d2816128ce565b50565b6000606b60003373ffffffffffffffffffffffffffffffffffffffff1673ffffffffffffffffffffffffffffffffffffffff1681526020019081526020016000206040518060800160405290816000820154815260200160018201548152602001600282015481526020016003820160009054906101000a900460ff1615151515815250509050606b60003373ffffffffffffffffffffffffffffffffffffffff1673ffffffffffffffffffffffffffffffffffffffff168152602001908152602001600020600080820160009055600182016000905560028201600090556003820160006101000a81549060ff02191690555050606f60009054906101000a900473ffffffffffffffffffffffffffffffffffffffff1673ffffffffffffffffffffffffffffffffffffffff1663c3a2a66530606660009054906101000a900473ffffffffffffffffffffffffffffffffffffffff1673ffffffffffffffffffffffffffffffffffffffff16637965d56d85602001516040518263ffffffff1660e01b81526004016123689190613659565b60206040518083038186803b15801561238057600080fd5b505afa158015612394573d6000803e3d6000fd5b505050506040513d601f19601f820116820180604052508101906123b8919061312e565b6040518363ffffffff1660e01b81526004016123d5929190613473565b600060405180830381600087803b1580156123ef57600080fd5b505af1158015612403573d6000803e3d6000fd5b50505050612458338260000151606560009054906101000a900473ffffffffffffffffffffffffffffffffffffffff1673ffffffffffffffffffffffffffffffffffffffff166125a29092919063ffffffff16565b50565b606d60009054906101000a900473ffffffffffffffffffffffffffffffffffffffff1673ffffffffffffffffffffffffffffffffffffffff163373ffffffffffffffffffffffffffffffffffffffff16146124b557600080fd5b6124ca81606e54612a1d90919063ffffffff16565b606e81905550612541606d60009054906101000a900473ffffffffffffffffffffffffffffffffffffffff163083606660009054906101000a900473ffffffffffffffffffffffffffffffffffffffff1673ffffffffffffffffffffffffffffffffffffffff16612994909392919063ffffffff16565b50565b60008082846125539190613759565b905083811015612598576040517f08c379a000000000000000000000000000000000000000000000000000000000815260040161258f90613579565b60405180910390fd5b8091505092915050565b6126238363a9059cbb60e01b84846040516024016125c1929190613473565b604051602081830303815290604052907bffffffffffffffffffffffffffffffffffffffffffffffffffffffff19166020820180517bffffffffffffffffffffffffffffffffffffffffffffffffffffffff8381831617835250505050612c4a565b505050565b600033905090565b6000607460008573ffffffffffffffffffffffffffffffffffffffff1673ffffffffffffffffffffffffffffffffffffffff16815260200190815260200160002054905060008311156126d857612690838261254490919063ffffffff16565b607460008673ffffffffffffffffffffffffffffffffffffffff1673ffffffffffffffffffffffffffffffffffffffff16815260200190815260200160002081905550612739565b6000821115612738576126f48282612a1d90919063ffffffff16565b607460008673ffffffffffffffffffffffffffffffffffffffff1673ffffffffffffffffffffffffffffffffffffffff168152602001908152602001600020819055505b5b6000607460008673ffffffffffffffffffffffffffffffffffffffff1673ffffffffffffffffffffffffffffffffffffffff168152602001908152602001600020549050607160149054906101000a900460ff161561282257607160009054906101000a900473ffffffffffffffffffffffffffffffffffffffff1673ffffffffffffffffffffffffffffffffffffffff166311b9425f86836040518363ffffffff1660e01b81526004016127ef929190613473565b600060405180830381600087803b15801561280957600080fd5b505af115801561281d573d6000803e3d6000fd5b505050505b607260149054906101000a900460ff16156128c757607260009054906101000a900473ffffffffffffffffffffffffffffffffffffffff1673ffffffffffffffffffffffffffffffffffffffff166311b9425f86836040518363ffffffff1660e01b8152600401612894929190613473565b600060405180830381600087803b1580156128ae57600080fd5b505af11580156128c2573d6000803e3d6000fd5b505050505b5050505050565b6000603360009054906101000a900473ffffffffffffffffffffffffffffffffffffffff16905081603360006101000a81548173ffffffffffffffffffffffffffffffffffffffff021916908373ffffffffffffffffffffffffffffffffffffffff1602179055508173ffffffffffffffffffffffffffffffffffffffff168173ffffffffffffffffffffffffffffffffffffffff167f8be0079c531659141344cd1fd0a4f28419497f9722a3daafe3b4186f6b6457e060405160405180910390a35050565b612a17846323b872dd60e01b8585856040516024016129b59392919061343c565b604051602081830303815290604052907bffffffffffffffffffffffffffffffffffffffffffffffffffffffff19166020820180517bffffffffffffffffffffffffffffffffffffffffffffffffffffffff8381831617835250505050612c4a565b50505050565b6000612a5f83836040518060400160405280601e81526020017f536166654d6174683a207375627472616374696f6e206f766572666c6f770000815250612d11565b905092915050565b6000811415612a7557612bdc565b607360149054906101000a900460ff1615612b8d57607360009054906101000a900473ffffffffffffffffffffffffffffffffffffffff1673ffffffffffffffffffffffffffffffffffffffff16639feb8f5083836040518363ffffffff1660e01b8152600401612ae7929190613473565b600060405180830381600087803b158015612b0157600080fd5b505af1158015612b15573d6000803e3d6000fd5b50505050612b88607360009054906101000a900473ffffffffffffffffffffffffffffffffffffffff1682606560009054906101000a900473ffffffffffffffffffffffffffffffffffffffff1673ffffffffffffffffffffffffffffffffffffffff166125a29092919063ffffffff16565b612bdb565b612bda8282606560009054906101000a900473ffffffffffffffffffffffffffffffffffffffff1673ffffffffffffffffffffffffffffffffffffffff166125a29092919063ffffffff16565b5b5b5050565b6000612beb30612d75565b15905090565b600060019054906101000a900460ff16612c40576040517f08c379a0000000000000000000000000000000000000000000000000000000008152600401612c3790613619565b60405180910390fd5b612c48612d98565b565b6000612cac826040518060400160405280602081526020017f5361666545524332303a206c6f772d6c6576656c2063616c6c206661696c65648152508573ffffffffffffffffffffffffffffffffffffffff16612df99092919063ffffffff16565b9050600081511115612d0c5780806020019051810190612ccc91906130a0565b612d0b576040517f08c379a0000000000000000000000000000000000000000000000000000000008152600401612d0290613639565b60405180910390fd5b5b505050565b6000838311158290612d59576040517f08c379a0000000000000000000000000000000000000000000000000000000008152600401612d5091906134b7565b60405180910390fd5b5060008385612d6891906137af565b9050809150509392505050565b6000808273ffffffffffffffffffffffffffffffffffffffff163b119050919050565b600060019054906101000a900460ff16612de7576040517f08c379a0000000000000000000000000000000000000000000000000000000008152600401612dde90613619565b60405180910390fd5b612df7612df2612628565b6128ce565b565b6060612e088484600085612e11565b90509392505050565b6060612e1c85612f33565b612e5b576040517f08c379a0000000000000000000000000000000000000000000000000000000008152600401612e52906135f9565b60405180910390fd5b6000808673ffffffffffffffffffffffffffffffffffffffff168587604051612e84919061340a565b60006040518083038185875af1925050503d8060008114612ec1576040519150601f19603f3d011682016040523d82523d6000602084013e612ec6565b606091505b50915091508115612edb578092505050612f2b565b600081511115612eee5780518082602001fd5b836040517f08c379a0000000000000000000000000000000000000000000000000000000008152600401612f2291906134b7565b60405180910390fd5b949350505050565b600080823b905060008111915050919050565b600081359050612f5581613bb7565b92915050565b600081359050612f6a81613bce565b92915050565b600081519050612f7f81613bce565b92915050565b600081359050612f9481613be5565b92915050565b600081359050612fa981613bf5565b92915050565b600081519050612fbe81613bf5565b92915050565b600060208284031215612fd657600080fd5b6000612fe484828501612f46565b91505092915050565b600080600080600060a0868803121561300557600080fd5b600061301388828901612f46565b955050602061302488828901612f46565b945050604061303588828901612f9a565b935050606061304688828901612f9a565b925050608061305788828901612f9a565b9150509295509295909350565b6000806040838503121561307757600080fd5b600061308585828601612f46565b925050602061309685828601612f5b565b9150509250929050565b6000602082840312156130b257600080fd5b60006130c084828501612f70565b91505092915050565b600080604083850312156130dc57600080fd5b60006130ea85828601612f85565b92505060206130fb85828601612f46565b9150509250929050565b60006020828403121561311757600080fd5b600061312584828501612f9a565b91505092915050565b60006020828403121561314057600080fd5b600061314e84828501612faf565b91505092915050565b6000806040838503121561316a57600080fd5b600061317885828601612f9a565b925050602061318985828601612f46565b9150509250929050565b600080604083850312156131a657600080fd5b60006131b485828601612f9a565b92505060206131c585828601612f5b565b9150509250929050565b6131d8816137e3565b82525050565b6131e7816137f5565b82525050565b60006131f882613727565b613202818561373d565b935061321281856020860161382b565b80840191505092915050565b600061322982613732565b6132338185613748565b935061324381856020860161382b565b61324c816138d6565b840191505092915050565b6000613264601f83613748565b915061326f826138e7565b602082019050919050565b6000613287602383613748565b915061329282613910565b604082019050919050565b60006132aa601083613748565b91506132b58261395f565b602082019050919050565b60006132cd602683613748565b91506132d882613988565b604082019050919050565b60006132f0602383613748565b91506132fb826139d7565b604082019050919050565b6000613313601b83613748565b915061331e82613a26565b602082019050919050565b6000613336601883613748565b915061334182613a4f565b602082019050919050565b6000613359602e83613748565b915061336482613a78565b604082019050919050565b600061337c602083613748565b915061338782613ac7565b602082019050919050565b600061339f601d83613748565b91506133aa82613af0565b602082019050919050565b60006133c2602b83613748565b91506133cd82613b19565b604082019050919050565b60006133e5602a83613748565b91506133f082613b68565b604082019050919050565b61340481613821565b82525050565b600061341682846131ed565b915081905092915050565b600060208201905061343660008301846131cf565b92915050565b600060608201905061345160008301866131cf565b61345e60208301856131cf565b61346b60408301846133fb565b949350505050565b600060408201905061348860008301856131cf565b61349560208301846133fb565b9392505050565b60006020820190506134b160008301846131de565b92915050565b600060208201905081810360008301526134d1818461321e565b905092915050565b600060208201905081810360008301526134f281613257565b9050919050565b600060208201905081810360008301526135128161327a565b9050919050565b600060208201905081810360008301526135328161329d565b9050919050565b60006020820190508181036000830152613552816132c0565b9050919050565b60006020820190508181036000830152613572816132e3565b9050919050565b6000602082019050818103600083015261359281613306565b9050919050565b600060208201905081810360008301526135b281613329565b9050919050565b600060208201905081810360008301526135d28161334c565b9050919050565b600060208201905081810360008301526135f28161336f565b9050919050565b6000602082019050818103600083015261361281613392565b9050919050565b60006020820190508181036000830152613632816133b5565b9050919050565b60006020820190508181036000830152613652816133d8565b9050919050565b600060208201905061366e60008301846133fb565b92915050565b600060408201905061368960008301856133fb565b61369660208301846133fb565b9392505050565b60006080820190506136b260008301876133fb565b6136bf60208301866133fb565b6136cc60408301856133fb565b6136d960608301846131de565b95945050505050565b60006080820190506136f760008301876133fb565b61370460208301866133fb565b61371160408301856133fb565b61371e60608301846133fb565b95945050505050565b600081519050919050565b600081519050919050565b600081905092915050565b600082825260208201905092915050565b600061376482613821565b915061376f83613821565b9250827fffffffffffffffffffffffffffffffffffffffffffffffffffffffffffffffff038211156137a4576137a36138a7565b5b828201905092915050565b60006137ba82613821565b91506137c583613821565b9250828210156137d8576137d76138a7565b5b828203905092915050565b60006137ee82613801565b9050919050565b60008115159050919050565b600073ffffffffffffffffffffffffffffffffffffffff82169050919050565b6000819050919050565b60005b8381101561384957808201518184015260208101905061382e565b83811115613858576000848401525b50505050565b600061386982613821565b91507fffffffffffffffffffffffffffffffffffffffffffffffffffffffffffffffff82141561389c5761389b6138a7565b5b600182019050919050565b7f4e487b7100000000000000000000000000000000000000000000000000000000600052601160045260246000fd5b6000601f19601f8301169050919050565b7f4465706f7369747320666f72206163636f756e7420617265206c6f636b656400600082015250565b7f4c6f636b65722063616e6e6f7420626520736574206d6f7265207468616e206f60008201527f6e63650000000000000000000000000000000000000000000000000000000000602082015250565b7f616d6f756e7420746f6f206c6172676500000000000000000000000000000000600082015250565b7f4f776e61626c653a206e6577206f776e657220697320746865207a65726f206160008201527f6464726573730000000000000000000000000000000000000000000000000000602082015250565b7f5761726d75702063616e6e6f7420626520736574206d6f7265207468616e206f60008201527f6e63650000000000000000000000000000000000000000000000000000000000602082015250565b7f536166654d6174683a206164646974696f6e206f766572666c6f770000000000600082015250565b7f6e6f7420737570706f7274207a65726f20616464726573730000000000000000600082015250565b7f496e697469616c697a61626c653a20636f6e747261637420697320616c72656160008201527f647920696e697469616c697a6564000000000000000000000000000000000000602082015250565b7f4f776e61626c653a2063616c6c6572206973206e6f7420746865206f776e6572600082015250565b7f416464726573733a2063616c6c20746f206e6f6e2d636f6e7472616374000000600082015250565b7f496e697469616c697a61626c653a20636f6e7472616374206973206e6f74206960008201527f6e697469616c697a696e67000000000000000000000000000000000000000000602082015250565b7f5361666545524332303a204552433230206f7065726174696f6e20646964206e60008201527f6f74207375636365656400000000000000000000000000000000000000000000602082015250565b613bc0816137e3565b8114613bcb57600080fd5b50565b613bd7816137f5565b8114613be257600080fd5b50565b60038110613bf257600080fd5b50565b613bfe81613821565b8114613c0957600080fd5b5056fea2646970667358221220f68f261c1a22eb2776c3261f2e318979aeb2c446a8ccd8f3700250c87a50d21864736f6c63430008020033",
  "linkReferences": {},
  "deployedLinkReferences": {}
}