{
  "_format": "hh-sol-artifact-1",
  "contractName": "ThsFarmForInvter",
  "sourceName": "contracts/ThsFarmForInvter.sol",
  "abi": [
    {
      "anonymous": false,
      "inputs": [
        {
          "indexed": true,
          "internalType": "address",
          "name": "staker",
          "type": "address"
        },
        {
          "indexed": true,
          "internalType": "uint256",
          "name": "oldAmount",
          "type": "uint256"
        },
        {
          "indexed": true,
          "internalType": "uint256",
          "name": "newAmount",
          "type": "uint256"
        }
      ],
      "name": "ChangeStakeAmount",
      "type": "event"
    },
    {
      "anonymous": false,
      "inputs": [
        {
          "indexed": true,
          "internalType": "address",
          "name": "staker",
          "type": "address"
        },
        {
          "indexed": true,
          "internalType": "uint256",
          "name": "reward",
          "type": "uint256"
        }
      ],
      "name": "Claim",
      "type": "event"
    },
    {
      "anonymous": false,
      "inputs": [
        {
          "indexed": true,
          "internalType": "address",
          "name": "previousOwner",
          "type": "address"
        },
        {
          "indexed": true,
          "internalType": "address",
          "name": "newOwner",
          "type": "address"
        }
      ],
      "name": "OwnershipTransferred",
      "type": "event"
    },
    {
      "inputs": [],
      "name": "CALCULATE_DECIMAL",
      "outputs": [
        {
          "internalType": "uint256",
          "name": "",
          "type": "uint256"
        }
      ],
      "stateMutability": "view",
      "type": "function"
    },
    {
      "inputs": [],
      "name": "ONE_THS",
      "outputs": [
        {
          "internalType": "uint256",
          "name": "",
          "type": "uint256"
        }
      ],
      "stateMutability": "view",
      "type": "function"
    },
    {
      "inputs": [],
      "name": "ONE_USDT",
      "outputs": [
        {
          "internalType": "uint256",
          "name": "",
          "type": "uint256"
        }
      ],
      "stateMutability": "view",
      "type": "function"
    },
    {
      "inputs": [
        {
          "internalType": "address",
          "name": "_staker",
          "type": "address"
        }
      ],
      "name": "calculateRebaseRewardTwoDay",
      "outputs": [
        {
          "internalType": "uint256",
          "name": "reward_",
          "type": "uint256"
        }
      ],
      "stateMutability": "view",
      "type": "function"
    },
    {
      "inputs": [
        {
          "internalType": "address",
          "name": "_invitee",
          "type": "address"
        }
      ],
      "name": "calculateRewardPerBlockSpecificInvitee",
      "outputs": [
        {
          "internalType": "uint256",
          "name": "rewardPerBlock_",
          "type": "uint256"
        }
      ],
      "stateMutability": "view",
      "type": "function"
    },
    {
      "inputs": [
        {
          "internalType": "address",
          "name": "_staker",
          "type": "address"
        },
        {
          "internalType": "uint256",
          "name": "_newAmount",
          "type": "uint256"
        }
      ],
      "name": "changeStakeAmount",
      "outputs": [],
      "stateMutability": "nonpayable",
      "type": "function"
    },
    {
      "inputs": [],
      "name": "claim",
      "outputs": [],
      "stateMutability": "nonpayable",
      "type": "function"
    },
    {
      "inputs": [
        {
          "internalType": "address",
          "name": "_invitee",
          "type": "address"
        }
      ],
      "name": "claimSpecificInvitee",
      "outputs": [],
      "stateMutability": "nonpayable",
      "type": "function"
    },
    {
      "inputs": [],
      "name": "initFlag",
      "outputs": [
        {
          "internalType": "bool",
          "name": "",
          "type": "bool"
        }
      ],
      "stateMutability": "view",
      "type": "function"
    },
    {
      "inputs": [
        {
          "internalType": "address",
          "name": "_pair",
          "type": "address"
        },
        {
          "internalType": "address",
          "name": "_ths",
          "type": "address"
        },
        {
          "internalType": "address",
          "name": "_sThs",
          "type": "address"
        },
        {
          "internalType": "address",
          "name": "_usdt",
          "type": "address"
        },
        {
          "internalType": "address",
          "name": "_staking",
          "type": "address"
        },
        {
          "internalType": "address",
          "name": "_relationship",
          "type": "address"
        },
        {
          "internalType": "uint256",
          "name": "_rewardLockBlocks",
          "type": "uint256"
        },
        {
          "internalType": "uint256",
          "name": "_totalBlockTwoDay",
          "type": "uint256"
        },
        {
          "internalType": "uint256",
          "name": "_rewardRate",
          "type": "uint256"
        }
      ],
      "name": "initValue",
      "outputs": [],
      "stateMutability": "nonpayable",
      "type": "function"
    },
    {
      "inputs": [],
      "name": "initialize",
      "outputs": [],
      "stateMutability": "nonpayable",
      "type": "function"
    },
    {
      "inputs": [],
      "name": "owner",
      "outputs": [
        {
          "internalType": "address",
          "name": "",
          "type": "address"
        }
      ],
      "stateMutability": "view",
      "type": "function"
    },
    {
      "inputs": [],
      "name": "pairAddr",
      "outputs": [
        {
          "internalType": "address",
          "name": "",
          "type": "address"
        }
      ],
      "stateMutability": "view",
      "type": "function"
    },
    {
      "inputs": [
        {
          "internalType": "address",
          "name": "_inviter",
          "type": "address"
        }
      ],
      "name": "pendingReward",
      "outputs": [
        {
          "internalType": "uint256",
          "name": "pendingReward_",
          "type": "uint256"
        }
      ],
      "stateMutability": "view",
      "type": "function"
    },
    {
      "inputs": [
        {
          "internalType": "address",
          "name": "_inviter",
          "type": "address"
        },
        {
          "internalType": "address",
          "name": "_invitee",
          "type": "address"
        }
      ],
      "name": "pendingRewardSpecificInvitee",
      "outputs": [
        {
          "internalType": "uint256",
          "name": "pendingReward_",
          "type": "uint256"
        }
      ],
      "stateMutability": "view",
      "type": "function"
    },
    {
      "inputs": [],
      "name": "rebaseTimesTwoDay",
      "outputs": [
        {
          "internalType": "uint256",
          "name": "",
          "type": "uint256"
        }
      ],
      "stateMutability": "view",
      "type": "function"
    },
    {
      "inputs": [],
      "name": "relationshipAdr",
      "outputs": [
        {
          "internalType": "address",
          "name": "",
          "type": "address"
        }
      ],
      "stateMutability": "view",
      "type": "function"
    },
    {
      "inputs": [],
      "name": "renounceOwnership",
      "outputs": [],
      "stateMutability": "nonpayable",
      "type": "function"
    },
    {
      "inputs": [],
      "name": "rewardDec",
      "outputs": [
        {
          "internalType": "uint256",
          "name": "",
          "type": "uint256"
        }
      ],
      "stateMutability": "view",
      "type": "function"
    },
    {
      "inputs": [
        {
          "internalType": "address",
          "name": "",
          "type": "address"
        },
        {
          "internalType": "address",
          "name": "",
          "type": "address"
        }
      ],
      "name": "rewardInfoOf",
      "outputs": [
        {
          "internalType": "uint256",
          "name": "earnedTotal",
          "type": "uint256"
        },
        {
          "internalType": "uint256",
          "name": "lastEarnedBlock",
          "type": "uint256"
        },
        {
          "internalType": "uint256",
          "name": "lastEarnedAmount",
          "type": "uint256"
        },
        {
          "internalType": "uint256",
          "name": "lastInviterStakedTHS",
          "type": "uint256"
        },
        {
          "internalType": "uint256",
          "name": "lastInviterStakedTHSAsUsdt",
          "type": "uint256"
        },
        {
          "internalType": "uint256",
          "name": "lastInviteeStakedTHS",
          "type": "uint256"
        },
        {
          "internalType": "uint256",
          "name": "lastInviteeStakedTHSAsUsdt",
          "type": "uint256"
        }
      ],
      "stateMutability": "view",
      "type": "function"
    },
    {
      "inputs": [],
      "name": "rewardLockBlocks",
      "outputs": [
        {
          "internalType": "uint256",
          "name": "",
          "type": "uint256"
        }
      ],
      "stateMutability": "view",
      "type": "function"
    },
    {
      "inputs": [],
      "name": "rewardRate",
      "outputs": [
        {
          "internalType": "uint256",
          "name": "",
          "type": "uint256"
        }
      ],
      "stateMutability": "view",
      "type": "function"
    },
    {
      "inputs": [],
      "name": "sThsAddr",
      "outputs": [
        {
          "internalType": "address",
          "name": "",
          "type": "address"
        }
      ],
      "stateMutability": "view",
      "type": "function"
    },
    {
      "inputs": [
        {
          "internalType": "uint256",
          "name": "_blockCount",
          "type": "uint256"
        }
      ],
      "name": "setRewardLockBlocks",
      "outputs": [],
      "stateMutability": "nonpayable",
      "type": "function"
    },
    {
      "inputs": [],
      "name": "stakeThresholdToEarn",
      "outputs": [
        {
          "internalType": "uint256",
          "name": "",
          "type": "uint256"
        }
      ],
      "stateMutability": "view",
      "type": "function"
    },
    {
      "inputs": [
        {
          "internalType": "address",
          "name": "",
          "type": "address"
        }
      ],
      "name": "stakedInfoOf",
      "outputs": [
        {
          "internalType": "uint256",
          "name": "currentStakedTHS",
          "type": "uint256"
        },
        {
          "internalType": "uint256",
          "name": "earnedTotal",
          "type": "uint256"
        },
        {
          "internalType": "uint256",
          "name": "amountChangedBlock",
          "type": "uint256"
        }
      ],
      "stateMutability": "view",
      "type": "function"
    },
    {
      "inputs": [],
      "name": "supportClaim",
      "outputs": [
        {
          "internalType": "bool",
          "name": "",
          "type": "bool"
        }
      ],
      "stateMutability": "view",
      "type": "function"
    },
    {
      "inputs": [],
      "name": "thsAddr",
      "outputs": [
        {
          "internalType": "address",
          "name": "",
          "type": "address"
        }
      ],
      "stateMutability": "view",
      "type": "function"
    },
    {
      "inputs": [],
      "name": "thsStaking",
      "outputs": [
        {
          "internalType": "address",
          "name": "",
          "type": "address"
        }
      ],
      "stateMutability": "view",
      "type": "function"
    },
    {
      "inputs": [],
      "name": "toggleSupportClaim",
      "outputs": [],
      "stateMutability": "nonpayable",
      "type": "function"
    },
    {
      "inputs": [],
      "name": "totalBlockTwoDay",
      "outputs": [
        {
          "internalType": "uint256",
          "name": "",
          "type": "uint256"
        }
      ],
      "stateMutability": "view",
      "type": "function"
    },
    {
      "inputs": [
        {
          "internalType": "address",
          "name": "newOwner",
          "type": "address"
        }
      ],
      "name": "transferOwnership",
      "outputs": [],
      "stateMutability": "nonpayable",
      "type": "function"
    },
    {
      "inputs": [],
      "name": "usdtAddr",
      "outputs": [
        {
          "internalType": "address",
          "name": "",
          "type": "address"
        }
      ],
      "stateMutability": "view",
      "type": "function"
    },
    {
      "inputs": [
        {
          "internalType": "uint256",
          "name": "_thsAmount",
          "type": "uint256"
        }
      ],
      "name": "viewAsUsdt",
      "outputs": [
        {
          "internalType": "uint256",
          "name": "usdtAmount_",
          "type": "uint256"
        }
      ],
      "stateMutability": "view",
      "type": "function"
    },
    {
      "inputs": [
        {
          "internalType": "address",
          "name": "_token",
          "type": "address"
        },
        {
          "internalType": "uint256",
          "name": "_amount",
          "type": "uint256"
        },
        {
          "internalType": "address",
          "name": "_to",
          "type": "address"
        }
      ],
      "name": "withdrawToken",
      "outputs": [],
      "stateMutability": "nonpayable",
      "type": "function"
    }
  ],
  "bytecode": "0x608060405234801561001057600080fd5b50613f83806100206000396000f3fe608060405234801561001057600080fd5b50600436106102115760003560e01c80637b0a47ee11610125578063bd8f89b3116100ad578063dff935d01161007c578063dff935d01461058c578063e28e6387146105bc578063f2fde38b146105f2578063f40f0f521461060e578063f5d611981461063e57610211565b8063bd8f89b314610518578063cb66b40c14610534578063cbf7601e14610552578063db1b82721461057057610211565b806388d88472116100f457806388d88472146104965780638da5cb5b146104a0578063b2e0dc02146104be578063b3d94a5e146104dc578063ba32946f146104fa57610211565b80637b0a47ee14610432578063803039d9146104505780638129fc1c1461046e57806388a5c64f1461047857610211565b80633fd3eb1f116101a85780634f4fc99b116101775780634f4fc99b146103b05780634fa828a4146103ce57806353c867e8146103ec57806358d5e0e41461040a578063715018a61461042857610211565b80633fd3eb1f1461033a57806345c6eded146103585780634d5fd924146103765780634e71d92d146103a657610211565b80631554e1ce116101e45780631554e1ce146102b257806324ba5aff146102d057806333e3e1a8146103005780633ccdbb281461031e57610211565b8063059700f114610216578063074eb1e7146102465780630df3b62c1461026457806311b9425f14610296575b600080fd5b610230600480360381019061022b91906131ac565b61065a565b60405161023d91906137b8565b60405180910390f35b61024e61066e565b60405161025b91906137b8565b60405180910390f35b61027e6004803603810190610279919061315a565b610674565b60405161028d939291906137d3565b60405180910390f35b6102b060048036038101906102ab91906132ae565b61069e565b005b6102ba6109ff565b6040516102c791906135f9565b60405180910390f35b6102ea60048036038101906102e5919061315a565b610a25565b6040516102f791906137b8565b60405180910390f35b610308610cbe565b604051610315919061363d565b60405180910390f35b610338600480360381019061033391906132ea565b610cd1565b005b610342610ea8565b60405161034f919061363d565b60405180910390f35b610360610ebb565b60405161036d91906135f9565b60405180910390f35b610390600480360381019061038b919061315a565b610ee1565b60405161039d91906137b8565b60405180910390f35b6103ae610f48565b005b6103b8611007565b6040516103c591906135f9565b60405180910390f35b6103d661102d565b6040516103e391906137b8565b60405180910390f35b6103f4611033565b60405161040191906135f9565b60405180910390f35b610412611059565b60405161041f91906137b8565b60405180910390f35b61043061105f565b005b61043a6110e7565b60405161044791906137b8565b60405180910390f35b6104586110ed565b60405161046591906137b8565b60405180910390f35b6104766110f3565b005b61048061124e565b60405161048d91906137b8565b60405180910390f35b61049e611254565b005b6104a86112fc565b6040516104b591906135f9565b60405180910390f35b6104c6611326565b6040516104d391906137b8565b60405180910390f35b6104e461132c565b6040516104f191906135f9565b60405180910390f35b610502611352565b60405161050f91906137b8565b60405180910390f35b610532600480360381019061052d919061315a565b611358565b005b61053c611470565b60405161054991906135f9565b60405180910390f35b61055a611496565b60405161056791906137b8565b60405180910390f35b61058a600480360381019061058591906131e8565b61149c565b005b6105a660048036038101906105a191906133b1565b6118b6565b6040516105b391906137b8565b60405180910390f35b6105d660048036038101906105d191906131ac565b611c84565b6040516105e9979695949392919061380a565b60405180910390f35b61060c6004803603810190610607919061315a565b611cd3565b005b6106286004803603810190610623919061315a565b611dcb565b60405161063591906137b8565b60405180910390f35b610658600480360381019061065391906133b1565b611f24565b005b60006106668383611faa565b905092915050565b609f5481565b60a76020528060005260406000206000915090508060000154908060010154908060020154905083565b3373ffffffffffffffffffffffffffffffffffffffff1660a460009054906101000a900473ffffffffffffffffffffffffffffffffffffffff1673ffffffffffffffffffffffffffffffffffffffff161461072e576040517f08c379a0000000000000000000000000000000000000000000000000000000008152600401610725906136b8565b60405180910390fd5b600060a760008473ffffffffffffffffffffffffffffffffffffffff1673ffffffffffffffffffffffffffffffffffffffff16815260200190815260200160002060000154905061077e8361223e565b61078783611358565b8160a760008573ffffffffffffffffffffffffffffffffffffffff1673ffffffffffffffffffffffffffffffffffffffff168152602001908152602001600020600001819055504360a760008573ffffffffffffffffffffffffffffffffffffffff1673ffffffffffffffffffffffffffffffffffffffff1681526020019081526020016000206002018190555081818473ffffffffffffffffffffffffffffffffffffffff167f95b53cd2c5aab31b8b239cac46797315a9aed9b7c97b4266ca329d00c90d0f6d60405160405180910390a4600060a560009054906101000a900473ffffffffffffffffffffffffffffffffffffffff1673ffffffffffffffffffffffffffffffffffffffff1663d216ce6f856040518263ffffffff1660e01b81526004016108b791906135f9565b60206040518083038186803b1580156108cf57600080fd5b505afa1580156108e3573d6000803e3d6000fd5b505050506040513d601f19601f820116820180604052508101906109079190613183565b90508073ffffffffffffffffffffffffffffffffffffffff16600073ffffffffffffffffffffffffffffffffffffffff1614156109455750506109fb565b60008314156109a55761099f8460a660008473ffffffffffffffffffffffffffffffffffffffff1673ffffffffffffffffffffffffffffffffffffffff16815260200190815260200160002061239c90919063ffffffff16565b506109f8565b6109f68460a660008473ffffffffffffffffffffffffffffffffffffffff1673ffffffffffffffffffffffffffffffffffffffff1681526020019081526020016000206123cc90919063ffffffff16565b505b50505b5050565b60a360009054906101000a900473ffffffffffffffffffffffffffffffffffffffff1681565b60008060a260009054906101000a900473ffffffffffffffffffffffffffffffffffffffff1673ffffffffffffffffffffffffffffffffffffffff16639358928b6040518163ffffffff1660e01b815260040160206040518083038186803b158015610a9057600080fd5b505afa158015610aa4573d6000803e3d6000fd5b505050506040513d601f19601f82011682018060405250810190610ac891906133da565b9050600060a460009054906101000a900473ffffffffffffffffffffffffffffffffffffffff1673ffffffffffffffffffffffffffffffffffffffff1663195785d36040518163ffffffff1660e01b815260040160206040518083038186803b158015610b3457600080fd5b505afa158015610b48573d6000803e3d6000fd5b505050506040513d601f19601f82011682018060405250810190610b6c91906133da565b90506000610b9783610b89609954856123fc90919063ffffffff16565b61241290919063ffffffff16565b9050600060a260009054906101000a900473ffffffffffffffffffffffffffffffffffffffff1673ffffffffffffffffffffffffffffffffffffffff166370a08231876040518263ffffffff1660e01b8152600401610bf691906135f9565b60206040518083038186803b158015610c0e57600080fd5b505afa158015610c22573d6000803e3d6000fd5b505050506040513d601f19601f82011682018060405250810190610c4691906133da565b90506000609b5483609954610c5b91906138a0565b610c65919061397a565b82610c709190613a98565b90506000610c96609b54609954610c87919061397a565b8361241290919063ffffffff16565b90506000610cad848361242890919063ffffffff16565b905080975050505050505050919050565b60a060019054906101000a900460ff1681565b610cd961243e565b73ffffffffffffffffffffffffffffffffffffffff16610cf76112fc565b73ffffffffffffffffffffffffffffffffffffffff1614610d4d576040517f08c379a0000000000000000000000000000000000000000000000000000000008152600401610d4490613718565b60405180910390fd5b60026065541415610d93576040517f08c379a0000000000000000000000000000000000000000000000000000000008152600401610d8a90613798565b60405180910390fd5b60026065819055508273ffffffffffffffffffffffffffffffffffffffff16600073ffffffffffffffffffffffffffffffffffffffff161415610df3576000808311610ddf5747610de1565b825b9050610ded8282612446565b50610e9b565b6000808311610e8a578373ffffffffffffffffffffffffffffffffffffffff166370a08231306040518263ffffffff1660e01b8152600401610e3591906135f9565b60206040518083038186803b158015610e4d57600080fd5b505afa158015610e61573d6000803e3d6000fd5b505050506040513d601f19601f82011682018060405250810190610e8591906133da565b610e8c565b825b9050610e9984838361256c565b505b6001606581905550505050565b60a060009054906101000a900460ff1681565b60a260009054906101000a900473ffffffffffffffffffffffffffffffffffffffff1681565b600080610eed83610a25565b9050610f40609c54610f32609f54610f24609e54610f16609954886123fc90919063ffffffff16565b6123fc90919063ffffffff16565b61241290919063ffffffff16565b61241290919063ffffffff16565b915050919050565b600060a760003373ffffffffffffffffffffffffffffffffffffffff1673ffffffffffffffffffffffffffffffffffffffff168152602001908152602001600020604051806060016040529081600082015481526020016001820154815260200160028201548152505090508060000151600010610ffb576040517f08c379a0000000000000000000000000000000000000000000000000000000008152600401610ff290613698565b60405180910390fd5b6110043361223e565b50565b60a060029054906101000a900473ffffffffffffffffffffffffffffffffffffffff1681565b60985481565b60a560009054906101000a900473ffffffffffffffffffffffffffffffffffffffff1681565b609a5481565b61106761243e565b73ffffffffffffffffffffffffffffffffffffffff166110856112fc565b73ffffffffffffffffffffffffffffffffffffffff16146110db576040517f08c379a00000000000000000000000000000000000000000000000000000000081526004016110d290613718565b60405180910390fd5b6110e560006126a2565b565b609e5481565b60975481565b600060019054906101000a900460ff1661111b5760008054906101000a900460ff1615611124565b611123612768565b5b611163576040517f08c379a000000000000000000000000000000000000000000000000000000000815260040161115a906136f8565b60405180910390fd5b60008060019054906101000a900460ff1615905080156111b3576001600060016101000a81548160ff02191690831515021790555060016000806101000a81548160ff0219169083151502179055505b6111bb612779565b6111c36127d2565b670de0b6b3a7640000609781905550633b9aca00609881905550633b9aca006099819055506097546103e86111f89190613a98565b609a819055506006609b81905550612710609f81905550600160a060016101000a81548160ff021916908315150217905550801561124b5760008060016101000a81548160ff0219169083151502179055505b50565b609d5481565b61125c61243e565b73ffffffffffffffffffffffffffffffffffffffff1661127a6112fc565b73ffffffffffffffffffffffffffffffffffffffff16146112d0576040517f08c379a00000000000000000000000000000000000000000000000000000000081526004016112c790613718565b60405180910390fd5b60a060019054906101000a900460ff161560a060016101000a81548160ff021916908315150217905550565b6000603360009054906101000a900473ffffffffffffffffffffffffffffffffffffffff16905090565b609b5481565b60a460009054906101000a900473ffffffffffffffffffffffffffffffffffffffff1681565b609c5481565b600060a560009054906101000a900473ffffffffffffffffffffffffffffffffffffffff1673ffffffffffffffffffffffffffffffffffffffff1663d216ce6f836040518263ffffffff1660e01b81526004016113b591906135f9565b60206040518083038186803b1580156113cd57600080fd5b505afa1580156113e1573d6000803e3d6000fd5b505050506040513d601f19601f820116820180604052508101906114059190613183565b90508073ffffffffffffffffffffffffffffffffffffffff16600073ffffffffffffffffffffffffffffffffffffffff161415611442575061146d565b600061144e828461282b565b9050600081141561146057505061146d565b61146a8282612b26565b50505b50565b60a160009054906101000a900473ffffffffffffffffffffffffffffffffffffffff1681565b60995481565b6114a461243e565b73ffffffffffffffffffffffffffffffffffffffff166114c26112fc565b73ffffffffffffffffffffffffffffffffffffffff1614611518576040517f08c379a000000000000000000000000000000000000000000000000000000000815260040161150f90613718565b60405180910390fd5b60a060009054906101000a900460ff1615611568576040517f08c379a000000000000000000000000000000000000000000000000000000000815260040161155f90613778565b60405180910390fd5b8873ffffffffffffffffffffffffffffffffffffffff16600073ffffffffffffffffffffffffffffffffffffffff16141580156115d257508773ffffffffffffffffffffffffffffffffffffffff16600073ffffffffffffffffffffffffffffffffffffffff1614155b801561160b57508673ffffffffffffffffffffffffffffffffffffffff16600073ffffffffffffffffffffffffffffffffffffffff1614155b801561164457508573ffffffffffffffffffffffffffffffffffffffff16600073ffffffffffffffffffffffffffffffffffffffff1614155b801561167d57508473ffffffffffffffffffffffffffffffffffffffff16600073ffffffffffffffffffffffffffffffffffffffff1614155b80156116b657508373ffffffffffffffffffffffffffffffffffffffff16600073ffffffffffffffffffffffffffffffffffffffff1614155b6116f5576040517f08c379a00000000000000000000000000000000000000000000000000000000081526004016116ec906136d8565b60405180910390fd5b8860a060026101000a81548173ffffffffffffffffffffffffffffffffffffffff021916908373ffffffffffffffffffffffffffffffffffffffff1602179055508760a160006101000a81548173ffffffffffffffffffffffffffffffffffffffff021916908373ffffffffffffffffffffffffffffffffffffffff1602179055508660a260006101000a81548173ffffffffffffffffffffffffffffffffffffffff021916908373ffffffffffffffffffffffffffffffffffffffff1602179055508560a360006101000a81548173ffffffffffffffffffffffffffffffffffffffff021916908373ffffffffffffffffffffffffffffffffffffffff1602179055508460a460006101000a81548173ffffffffffffffffffffffffffffffffffffffff021916908373ffffffffffffffffffffffffffffffffffffffff1602179055508360a560006101000a81548173ffffffffffffffffffffffffffffffffffffffff021916908373ffffffffffffffffffffffffffffffffffffffff16021790555082609d8190555081609c8190555080609e81905550600160a060006101000a81548160ff021916908315150217905550505050505050505050565b600080600060a060029054906101000a900473ffffffffffffffffffffffffffffffffffffffff1673ffffffffffffffffffffffffffffffffffffffff16630902f1ac6040518163ffffffff1660e01b815260040160606040518083038186803b15801561192357600080fd5b505afa158015611937573d6000803e3d6000fd5b505050506040513d601f19601f8201168201806040525081019061195b9190613362565b506dffffffffffffffffffffffffffff1691506dffffffffffffffffffffffffffff169150600060a060029054906101000a900473ffffffffffffffffffffffffffffffffffffffff1673ffffffffffffffffffffffffffffffffffffffff16630dfe16816040518163ffffffff1660e01b815260040160206040518083038186803b1580156119ea57600080fd5b505afa1580156119fe573d6000803e3d6000fd5b505050506040513d601f19601f82011682018060405250810190611a229190613183565b9050600060a060029054906101000a900473ffffffffffffffffffffffffffffffffffffffff1673ffffffffffffffffffffffffffffffffffffffff1663d21220a76040518163ffffffff1660e01b815260040160206040518083038186803b158015611a8e57600080fd5b505afa158015611aa2573d6000803e3d6000fd5b505050506040513d601f19601f82011682018060405250810190611ac69190613183565b90508173ffffffffffffffffffffffffffffffffffffffff1660a160009054906101000a900473ffffffffffffffffffffffffffffffffffffffff1673ffffffffffffffffffffffffffffffffffffffff16148015611b7257508073ffffffffffffffffffffffffffffffffffffffff1660a360009054906101000a900473ffffffffffffffffffffffffffffffffffffffff1673ffffffffffffffffffffffffffffffffffffffff16145b15611ba357611b9c84611b8e85896123fc90919063ffffffff16565b61241290919063ffffffff16565b9450611c7b565b8073ffffffffffffffffffffffffffffffffffffffff1660a160009054906101000a900473ffffffffffffffffffffffffffffffffffffffff1673ffffffffffffffffffffffffffffffffffffffff16148015611c4d57508173ffffffffffffffffffffffffffffffffffffffff1660a360009054906101000a900473ffffffffffffffffffffffffffffffffffffffff1673ffffffffffffffffffffffffffffffffffffffff16145b15611c7a57611c7783611c6986896123fc90919063ffffffff16565b61241290919063ffffffff16565b94505b5b50505050919050565b60a8602052816000526040600020602052806000526040600020600091509150508060000154908060010154908060020154908060030154908060040154908060050154908060060154905087565b611cdb61243e565b73ffffffffffffffffffffffffffffffffffffffff16611cf96112fc565b73ffffffffffffffffffffffffffffffffffffffff1614611d4f576040517f08c379a0000000000000000000000000000000000000000000000000000000008152600401611d4690613718565b60405180910390fd5b600073ffffffffffffffffffffffffffffffffffffffff168173ffffffffffffffffffffffffffffffffffffffff161415611dbf576040517f08c379a0000000000000000000000000000000000000000000000000000000008152600401611db690613678565b60405180910390fd5b611dc8816126a2565b50565b60008060a760008473ffffffffffffffffffffffffffffffffffffffff1673ffffffffffffffffffffffffffffffffffffffff168152602001908152602001600020604051806060016040529081600082015481526020016001820154815260200160028201548152505090506000611e4782600001516118b6565b9050609a54811015611e5e57600092505050611f1f565b600060a660008673ffffffffffffffffffffffffffffffffffffffff1673ffffffffffffffffffffffffffffffffffffffff16815260200190815260200160002090506000611eac82612d2a565b1015611ebe5760009350505050611f1f565b60005b611eca82612d2a565b811015611f1a576000611eef87611eea8486612d3f90919063ffffffff16565b611faa565b9050611f048187612d5990919063ffffffff16565b9550508080611f1290613bcb565b915050611ec1565b505050505b919050565b611f2c61243e565b73ffffffffffffffffffffffffffffffffffffffff16611f4a6112fc565b73ffffffffffffffffffffffffffffffffffffffff1614611fa0576040517f08c379a0000000000000000000000000000000000000000000000000000000008152600401611f9790613718565b60405180910390fd5b80609d8190555050565b600060a060019054906101000a900460ff16611fc95760009050612238565b600060a760008573ffffffffffffffffffffffffffffffffffffffff1673ffffffffffffffffffffffffffffffffffffffff16815260200190815260200160002060405180606001604052908160008201548152602001600182015481526020016002820154815250509050600061204482600001516118b6565b9050600060a760008673ffffffffffffffffffffffffffffffffffffffff1673ffffffffffffffffffffffffffffffffffffffff1681526020019081526020016000206040518060600160405290816000820154815260200160018201548152602001600282015481525050905060006120c182600001516118b6565b9050600060a860008973ffffffffffffffffffffffffffffffffffffffff1673ffffffffffffffffffffffffffffffffffffffff16815260200190815260200160002060008873ffffffffffffffffffffffffffffffffffffffff1673ffffffffffffffffffffffffffffffffffffffff1681526020019081526020016000209050600061215e8460400151609d54612d5990919063ffffffff16565b9050600061217b8760400151609d54612d5990919063ffffffff16565b9050600081831161218c578161218e565b825b9050836001015481116121a55783600101546121a7565b805b905060008143116121b95760006121cd565b6121cc824361242890919063ffffffff16565b5b9050609a548810806121e05750609a5486105b156121f75760009950505050505050505050612238565b60006122028c610ee1565b905061222b60995461221d83856123fc90919063ffffffff16565b61241290919063ffffffff16565b9a50505050505050505050505b92915050565b600060a760008373ffffffffffffffffffffffffffffffffffffffff1673ffffffffffffffffffffffffffffffffffffffff1681526020019081526020016000206040518060600160405290816000820154815260200160018201548152602001600282015481525050905060006122b982600001516118b6565b9050609a548110156122cc575050612399565b600060a660008573ffffffffffffffffffffffffffffffffffffffff1673ffffffffffffffffffffffffffffffffffffffff1681526020019081526020016000209050600061231a82612d2a565b101561232857505050612399565b600080600090505b61233983612d2a565b81101561238957600061235e876123598487612d3f90919063ffffffff16565b61282b565b90506123738184612d5990919063ffffffff16565b925050808061238190613bcb565b915050612330565b506123948582612b26565b505050505b50565b60006123c4836000018373ffffffffffffffffffffffffffffffffffffffff1660001b612d6f565b905092915050565b60006123f4836000018373ffffffffffffffffffffffffffffffffffffffff1660001b612ef5565b905092915050565b6000818361240a9190613a98565b905092915050565b6000818361242091906138f6565b905092915050565b600081836124369190613af2565b905092915050565b600033905090565b60008273ffffffffffffffffffffffffffffffffffffffff1682600067ffffffffffffffff8111156124a1577f4e487b7100000000000000000000000000000000000000000000000000000000600052604160045260246000fd5b6040519080825280601f01601f1916602001820160405280156124d35781602001600182028036833780820191505090505b506040516124e191906135e2565b60006040518083038185875af1925050503d806000811461251e576040519150601f19603f3d011682016040523d82523d6000602084013e612523565b606091505b5050905080612567576040517f08c379a000000000000000000000000000000000000000000000000000000000815260040161255e90613738565b60405180910390fd5b505050565b6000808473ffffffffffffffffffffffffffffffffffffffff1663a9059cbb858560405160240161259e929190613614565b6040516020818303038152906040529060e01b6020820180517bffffffffffffffffffffffffffffffffffffffffffffffffffffffff83818316178352505050506040516125ec91906135e2565b6000604051808303816000865af19150503d8060008114612629576040519150601f19603f3d011682016040523d82523d6000602084013e61262e565b606091505b509150915081801561265c575060008151148061265b57508080602001905181019061265a9190613339565b5b5b61269b576040517f08c379a000000000000000000000000000000000000000000000000000000000815260040161269290613658565b60405180910390fd5b5050505050565b6000603360009054906101000a900473ffffffffffffffffffffffffffffffffffffffff16905081603360006101000a81548173ffffffffffffffffffffffffffffffffffffffff021916908373ffffffffffffffffffffffffffffffffffffffff1602179055508173ffffffffffffffffffffffffffffffffffffffff168173ffffffffffffffffffffffffffffffffffffffff167f8be0079c531659141344cd1fd0a4f28419497f9722a3daafe3b4186f6b6457e060405160405180910390a35050565b600061277330612f65565b15905090565b600060019054906101000a900460ff166127c8576040517f08c379a00000000000000000000000000000000000000000000000000000000081526004016127bf90613758565b60405180910390fd5b6127d0612f88565b565b600060019054906101000a900460ff16612821576040517f08c379a000000000000000000000000000000000000000000000000000000000815260040161281890613758565b60405180910390fd5b612829612fe9565b565b600060a060019054906101000a900460ff1661284a5760009050612b20565b600060a760008573ffffffffffffffffffffffffffffffffffffffff1673ffffffffffffffffffffffffffffffffffffffff1681526020019081526020016000206040518060600160405290816000820154815260200160018201548152602001600282015481525050905060006128c582600001516118b6565b9050600060a760008673ffffffffffffffffffffffffffffffffffffffff1673ffffffffffffffffffffffffffffffffffffffff16815260200190815260200160002060405180606001604052908160008201548152602001600182015481526020016002820154815250509050600061294282600001516118b6565b9050600060a860008973ffffffffffffffffffffffffffffffffffffffff1673ffffffffffffffffffffffffffffffffffffffff16815260200190815260200160002060008873ffffffffffffffffffffffffffffffffffffffff1673ffffffffffffffffffffffffffffffffffffffff168152602001908152602001600020905060006129df8460400151609d54612d5990919063ffffffff16565b905060006129fc8760400151609d54612d5990919063ffffffff16565b90506000818311612a0d5781612a0f565b825b905083600101548111612a26578360010154612a28565b805b90506000814311612a3a576000612a4e565b612a4d824361242890919063ffffffff16565b5b90504385600101819055508860000151856003018190555087856004018190555086600001518560050181905550858560060181905550609a54881080612a965750609a5486105b15612ab7576000856002018190555060009950505050505050505050612b20565b6000612ac28c610ee1565b9050612aeb609954612add83856123fc90919063ffffffff16565b61241290919063ffffffff16565b9a50612b0486600001548c612d5990919063ffffffff16565b86600001819055508a8660020181905550505050505050505050505b92915050565b60026065541415612b6c576040517f08c379a0000000000000000000000000000000000000000000000000000000008152600401612b6390613798565b60405180910390fd5b60026065819055506000811415612b8257612d1e565b60a160009054906101000a900473ffffffffffffffffffffffffffffffffffffffff1673ffffffffffffffffffffffffffffffffffffffff166340c10f1930836040518363ffffffff1660e01b8152600401612bdf929190613614565b600060405180830381600087803b158015612bf957600080fd5b505af1158015612c0d573d6000803e3d6000fd5b50505050612c3e60a160009054906101000a900473ffffffffffffffffffffffffffffffffffffffff16838361256c565b612c9360a760008473ffffffffffffffffffffffffffffffffffffffff1673ffffffffffffffffffffffffffffffffffffffff1681526020019081526020016000206001015482612d5990919063ffffffff16565b60a760008473ffffffffffffffffffffffffffffffffffffffff1673ffffffffffffffffffffffffffffffffffffffff16815260200190815260200160002060010181905550808273ffffffffffffffffffffffffffffffffffffffff167f47cee97cb7acd717b3c0aa1435d004cd5b3c8c57d70dbceb4e4458bbd60e39d460405160405180910390a35b60016065819055505050565b6000612d3882600001613042565b9050919050565b6000612d4e8360000183613053565b60001c905092915050565b60008183612d6791906138a0565b905092915050565b60008083600101600084815260200190815260200160002054905060008114612ee9576000600182612da19190613af2565b9050600060018660000180549050612db99190613af2565b9050818114612e74576000866000018281548110612e00577f4e487b7100000000000000000000000000000000000000000000000000000000600052603260045260246000fd5b9060005260206000200154905080876000018481548110612e4a577f4e487b7100000000000000000000000000000000000000000000000000000000600052603260045260246000fd5b90600052602060002001819055508387600101600083815260200190815260200160002081905550505b85600001805480612eae577f4e487b7100000000000000000000000000000000000000000000000000000000600052603160045260246000fd5b600190038181906000526020600020016000905590558560010160008681526020019081526020016000206000905560019350505050612eef565b60009150505b92915050565b6000612f0183836130a4565b612f5a578260000182908060018154018082558091505060019003906000526020600020016000909190919091505582600001805490508360010160008481526020019081526020016000208190555060019050612f5f565b600090505b92915050565b6000808273ffffffffffffffffffffffffffffffffffffffff163b119050919050565b600060019054906101000a900460ff16612fd7576040517f08c379a0000000000000000000000000000000000000000000000000000000008152600401612fce90613758565b60405180910390fd5b612fe7612fe261243e565b6126a2565b565b600060019054906101000a900460ff16613038576040517f08c379a000000000000000000000000000000000000000000000000000000000815260040161302f90613758565b60405180910390fd5b6001606581905550565b600081600001805490509050919050565b6000826000018281548110613091577f4e487b7100000000000000000000000000000000000000000000000000000000600052603260045260246000fd5b9060005260206000200154905092915050565b600080836001016000848152602001908152602001600020541415905092915050565b6000813590506130d681613eda565b92915050565b6000815190506130eb81613eda565b92915050565b60008151905061310081613ef1565b92915050565b60008151905061311581613f08565b92915050565b60008135905061312a81613f1f565b92915050565b60008151905061313f81613f1f565b92915050565b60008151905061315481613f36565b92915050565b60006020828403121561316c57600080fd5b600061317a848285016130c7565b91505092915050565b60006020828403121561319557600080fd5b60006131a3848285016130dc565b91505092915050565b600080604083850312156131bf57600080fd5b60006131cd858286016130c7565b92505060206131de858286016130c7565b9150509250929050565b60008060008060008060008060006101208a8c03121561320757600080fd5b60006132158c828d016130c7565b99505060206132268c828d016130c7565b98505060406132378c828d016130c7565b97505060606132488c828d016130c7565b96505060806132598c828d016130c7565b95505060a061326a8c828d016130c7565b94505060c061327b8c828d0161311b565b93505060e061328c8c828d0161311b565b92505061010061329e8c828d0161311b565b9150509295985092959850929598565b600080604083850312156132c157600080fd5b60006132cf858286016130c7565b92505060206132e08582860161311b565b9150509250929050565b6000806000606084860312156132ff57600080fd5b600061330d868287016130c7565b935050602061331e8682870161311b565b925050604061332f868287016130c7565b9150509250925092565b60006020828403121561334b57600080fd5b6000613359848285016130f1565b91505092915050565b60008060006060848603121561337757600080fd5b600061338586828701613106565b935050602061339686828701613106565b92505060406133a786828701613145565b9150509250925092565b6000602082840312156133c357600080fd5b60006133d18482850161311b565b91505092915050565b6000602082840312156133ec57600080fd5b60006133fa84828501613130565b91505092915050565b61340c81613b26565b82525050565b61341b81613b38565b82525050565b600061342c82613879565b6134368185613884565b9350613446818560208601613b98565b80840191505092915050565b600061345f601f8361388f565b915061346a82613c7f565b602082019050919050565b600061348260268361388f565b915061348d82613ca8565b604082019050919050565b60006134a560098361388f565b91506134b082613cf7565b602082019050919050565b60006134c8600c8361388f565b91506134d382613d20565b602082019050919050565b60006134eb600d8361388f565b91506134f682613d49565b602082019050919050565b600061350e602e8361388f565b915061351982613d72565b604082019050919050565b600061353160208361388f565b915061353c82613dc1565b602082019050919050565b600061355460238361388f565b915061355f82613dea565b604082019050919050565b6000613577602b8361388f565b915061358282613e39565b604082019050919050565b600061359a60108361388f565b91506135a582613e88565b602082019050919050565b60006135bd601f8361388f565b91506135c882613eb1565b602082019050919050565b6135dc81613b7e565b82525050565b60006135ee8284613421565b915081905092915050565b600060208201905061360e6000830184613403565b92915050565b60006040820190506136296000830185613403565b61363660208301846135d3565b9392505050565b60006020820190506136526000830184613412565b92915050565b6000602082019050818103600083015261367181613452565b9050919050565b6000602082019050818103600083015261369181613475565b9050919050565b600060208201905081810360008301526136b181613498565b9050919050565b600060208201905081810360008301526136d1816134bb565b9050919050565b600060208201905081810360008301526136f1816134de565b9050919050565b6000602082019050818103600083015261371181613501565b9050919050565b6000602082019050818103600083015261373181613524565b9050919050565b6000602082019050818103600083015261375181613547565b9050919050565b600060208201905081810360008301526137718161356a565b9050919050565b600060208201905081810360008301526137918161358d565b9050919050565b600060208201905081810360008301526137b1816135b0565b9050919050565b60006020820190506137cd60008301846135d3565b92915050565b60006060820190506137e860008301866135d3565b6137f560208301856135d3565b61380260408301846135d3565b949350505050565b600060e08201905061381f600083018a6135d3565b61382c60208301896135d3565b61383960408301886135d3565b61384660608301876135d3565b61385360808301866135d3565b61386060a08301856135d3565b61386d60c08301846135d3565b98975050505050505050565b600081519050919050565b600081905092915050565b600082825260208201905092915050565b60006138ab82613b7e565b91506138b683613b7e565b9250827fffffffffffffffffffffffffffffffffffffffffffffffffffffffffffffffff038211156138eb576138ea613c14565b5b828201905092915050565b600061390182613b7e565b915061390c83613b7e565b92508261391c5761391b613c43565b5b828204905092915050565b6000808291508390505b60018511156139715780860481111561394d5761394c613c14565b5b600185161561395c5780820291505b808102905061396a85613c72565b9450613931565b94509492505050565b600061398582613b7e565b915061399083613b7e565b92506139bd7fffffffffffffffffffffffffffffffffffffffffffffffffffffffffffffffff84846139c5565b905092915050565b6000826139d55760019050613a91565b816139e35760009050613a91565b81600181146139f95760028114613a0357613a32565b6001915050613a91565b60ff841115613a1557613a14613c14565b5b8360020a915084821115613a2c57613a2b613c14565b5b50613a91565b5060208310610133831016604e8410600b8410161715613a675782820a905083811115613a6257613a61613c14565b5b613a91565b613a748484846001613927565b92509050818404811115613a8b57613a8a613c14565b5b81810290505b9392505050565b6000613aa382613b7e565b9150613aae83613b7e565b9250817fffffffffffffffffffffffffffffffffffffffffffffffffffffffffffffffff0483118215151615613ae757613ae6613c14565b5b828202905092915050565b6000613afd82613b7e565b9150613b0883613b7e565b925082821015613b1b57613b1a613c14565b5b828203905092915050565b6000613b3182613b5e565b9050919050565b60008115159050919050565b60006dffffffffffffffffffffffffffff82169050919050565b600073ffffffffffffffffffffffffffffffffffffffff82169050919050565b6000819050919050565b600063ffffffff82169050919050565b60005b83811015613bb6578082015181840152602081019050613b9b565b83811115613bc5576000848401525b50505050565b6000613bd682613b7e565b91507fffffffffffffffffffffffffffffffffffffffffffffffffffffffffffffffff821415613c0957613c08613c14565b5b600182019050919050565b7f4e487b7100000000000000000000000000000000000000000000000000000000600052601160045260246000fd5b7f4e487b7100000000000000000000000000000000000000000000000000000000600052601260045260246000fd5b60008160011c9050919050565b7f5472616e7366657248656c7065723a205452414e534645525f4641494c454400600082015250565b7f4f776e61626c653a206e6577206f776e657220697320746865207a65726f206160008201527f6464726573730000000000000000000000000000000000000000000000000000602082015250565b7f6e6f207374616b65640000000000000000000000000000000000000000000000600082015250565b7f6f6e6c79207374616b696e670000000000000000000000000000000000000000600082015250565b7f636865636b206164647265737300000000000000000000000000000000000000600082015250565b7f496e697469616c697a61626c653a20636f6e747261637420697320616c72656160008201527f647920696e697469616c697a6564000000000000000000000000000000000000602082015250565b7f4f776e61626c653a2063616c6c6572206973206e6f7420746865206f776e6572600082015250565b7f5472616e7366657248656c7065723a204554485f5452414e534645525f46414960008201527f4c45440000000000000000000000000000000000000000000000000000000000602082015250565b7f496e697469616c697a61626c653a20636f6e7472616374206973206e6f74206960008201527f6e697469616c697a696e67000000000000000000000000000000000000000000602082015250565b7f68616420616c726561647920696e697400000000000000000000000000000000600082015250565b7f5265656e7472616e637947756172643a207265656e7472616e742063616c6c00600082015250565b613ee381613b26565b8114613eee57600080fd5b50565b613efa81613b38565b8114613f0557600080fd5b50565b613f1181613b44565b8114613f1c57600080fd5b50565b613f2881613b7e565b8114613f3357600080fd5b50565b613f3f81613b88565b8114613f4a57600080fd5b5056fea2646970667358221220daa469141076d13ef109e1efa5792f4facd26f83d0791b875923f9524950ee1564736f6c63430008020033",
  "linkReferences": {},
  "deployedLinkReferences": {}
}